:100000000216B502001AE47813F622021C27439D5B
:10001000103222020021021DCB2232021C65C2CF07
:10002000323232021D3E323232322202001E0026AD
:01003000C00F
:03003300020026A2
:03003B0002002997
:030043000206644E
:03004B0002002789
:03005300021E7416
:03005B0002000E92
:0300630002002870
:10006B00020022E709F608DFFA8046E709F208DF0B
:10007B00FA803E88828C83E709F0A3DFFA8032E3B3
:10008B0009F608DFFA8078E309F208DFFA80708856
:10009B00828C83E309F0A3DFFA806489828A83E090
:1000AB00A3F608DFFA805889828A83E0A3F208DF7F
:1000BB00FA804C80D280FA80C680D4806980F2802E
:1000CB0033801080A680EA809A80A880DA80E28054
:1000DB00CA803389828A83ECFAE493A3C8C582C8A9
:1000EB00CCC583CCF0A3C8C582C8CCC583CCDFE913
:1000FB00DEE7800D89828A83E493A3F608DFF9ECAF
:10010B00FAA9F0EDFB2289828A83ECFAE0A3C8C539
:10011B0082C8CCC583CCF0A3C8C582C8CCC583CC60
:10012B00DFEADEE880DB89828A83E493A3F208DFCF
:10013B00F980CC88F0EF60010E4E60C388F0ED249F
:10014B0002B4040050B9F582EB2402B4040050AFA2
:10015B0023234582239000BE73BB010689828A83C9
:10016B00E0225002E722BBFE02E32289828A83E46B
:10017B009322BB010CE58229F582E5833AF583E0F6
:10018B00225006E92582F8E622BBFE06E92582F815
:10019B00E222E58229F582E5833AF583E49322BBDB
:1001AB00010FF8E58229F582E5833AF583E028F023
:1001BB00225009C58229F8E58226F622BBFE09C525
:1001CB008229F8E22582F222F8EA2583F583E99366
:1001DB002822BB010689828A83F0225002F722BBB8
:1001EB00FE01F322F8BB010DE58229F582E5833A86
:1001FB00F583E8F0225006E92582C8F622BBFE05FE
:10020B00E92582C8F222BC000BBE0029EF8DF084D9
:10021B00FFADF022E4CCF875F008EF2FFFEE33FEC4
:10022B00EC33FCEE9DEC984005FCEE9DFE0FD5F0FB
:10023B00E9E4CEFD22EDF8F5F0EE8420D21CFEAD04
:10024B00F075F008EF2FFFED33FD4007985006D502
:10025B00F0F222C398FD0FD5F0EA22C5F0F8A3E027
:10026B0028F0C5F0F8E582158270021583E038F0AE
:10027B0022A3F8E0C5F025F0F0E582158270021597
:10028B0083E0C838F0E822BB010A89828A83E0F553
:10029B00F0A3E022500687F009E71922BBFE07E323
:1002AB00F5F009E3192289828A83E493F5F074014E
:1002BB009322BB0110E58229F582E5833AF583E0B1
:1002CB00F5F0A3E0225009E92582F886F008E62232
:1002DB00BBFE0AE92582F8E2F5F008E222E5832A63
:1002EB00F583E993F5F0A3E99322BB010A89828A8E
:1002FB0083F0E5F0A3F0225006F709A7F01922BB13
:10030B00FE06F3E5F009F31922F8BB0111E582298A
:10031B00F582E5833AF583E8F0E5F0A3F022500986
:10032B00E92582C8F608A6F022BBFE09E92582C89A
:10033B00F2E5F008F222E88FF0A4CC8BF0A42CFCB1
:10034B00E98EF0A42CFC8AF0EDA42CFCEA8EF0A430
:10035B00CDA8F08BF0A42DCC3825F0FDE98FF0A4BF
:10036B002CCD35F0FCEB8EF0A4FEA9F0EB8FF0A4B6
:10037B00CFC5F02ECD39FEE43CFCEAA42DCE35F0F2
:10038B00FDE43CFC2275F008758200EF2FFFEE3385
:10039B00FECD33CDCC33CCC58233C5829BED9AECED
:1003AB0099E58298400CF582EE9BFEED9AFDEC9957
:1003BB00FC0FD5F0D6E4CEFBE4CDFAE4CCF9A88261
:1003CB0022B800C1B90059BA002DEC8BF084CFCE06
:1003DB00CDFCE5F0CBF97818EF2FFFEE33FEED33C4
:1003EB00FDEC33FCEB33FB10D703994004EB99FB8B
:1003FB000FD8E5E4F9FA227818EF2FFFEE33FEED74
:10040B0033FDEC33FCC933C910D7059BE99A400780
:10041B00EC9BFCE99AF90FD8E0E4C9FAE4CCFB2297
:10042B0075F010EF2FFFEE33FEED33FDCC33CCC860
:10043B0033C810D7079BEC9AE899400AED9BFDEC6B
:10044B009AFCE899F80FD5F0DAE4CDFBE4CCFAE4AA
:10045B00C8F922E8600FECC313FCED13FDEE13FE9D
:10046B00EF13FFD8F122E8600FEFC333FFEE33FE3B
:10047B00ED33FDEC33FCD8F122BB010789828A8373
:10048B000205B05005E9F80205A4BBFE05E9F80228
:10049B0005BC89828A830205C8BB010789828A83CE
:1004AB000204BE5005E9F80205D8BBFE05E9F802C7
:1004BB0005E422ECF0A3EDF0A3EEF0A3EFF022A8FD
:1004CB00828583F0D083D0821204E11204E11204FE
:1004DB00E11204E1E473E493A3C583C5F0C583C8BB
:1004EB00C582C8F0A3C583C5F0C583C8C582C82221
:1004FB00BB010789828A830204CA5005E9F8020509
:10050B00F0BBFE05E9F802060922BB010DE58229C5
:10051B00F582E5833AF5830206345007E92582F824
:10052B00020622BBFE07E92582F8020646E5822970
:10053B00F582E5833AF583020658BB0120E5822953
:10054B00F582E5833AF583D0F0D0E0F8D0E0F9D02E
:10055B00E0FAD0E0FBE8C0E0C0F002063D5018E93D
:10056B002582F8D083D082D0E0F9D0E0FAD0E0FB3E
:10057B00C082C08302062BBBFE18E92582F8D0830C
:10058B00D082D0E0F9D0E0FAD0E0FBC082C0830289
:10059B00064F228A838982E473E6FC08E6FD08E6AF
:1005AB00FE08E6FF22E0FCA3E0FDA3E0FEA3E0FFD4
:1005BB0022E2FC08E2FD08E2FE08E2FF22E493FCE3
:1005CB00740193FD740293FE740393FF22ECF608FF
:1005DB00EDF608EEF608EFF622ECF208EDF208EE77
:1005EB00F208EFF222D083D082E493F608740193E1
:1005FB00F608740293F608740393F6740473D083AD
:10060B00D082E493F208740193F208740293F20817
:10061B00740393F2740473E6FB08E6FA08E6F92216
:10062B00EBF608EAF608E9F622E0FBA3E0FAA3E012
:10063B00F922EBF0A3EAF0A3E9F022E2FB08E2FADD
:10064B0008E2F922EBF208EAF208E9F222E493FB62
:10065B00740193FA740293F922C0E0C0F0C083C016
:10066B0082C0D075D00820D9030209E9E5D9543FDF
:10067B0070030209DB24FE603824E2700302096A6E
:10068B0024FE601924F26034240F60030209E7751D
:10069B00D300E5D254FC4402F5D20209E79001D411
:1006AB007401F075D500E5D454FC4402F5D402096D
:1006BB00E71219FB9000CFEFF00209E79000CEE5AF
:1006CB00DBF0E06408600302093E900006E0900155
:1006DB00D0F0900007E070099001D0E0D3947F40F8
:1006EB00069001D0747FF09000CEE4F0900001E012
:1006FB009001D1F0900000E05460606D9001D1E06A
:10070B0024C060362480703A9001D5E0FF24E7F9CD
:10071B00E4341EFA9001DE74FFF0A3EAF0A3E9F0D3
:10072B009000CE7402F0EFC394189001D55006E000
:10073B002402F080137418F0800E9000CE7409F030
:10074B0080069000CE74FFF09000CEE0FF9001D0B9
:10075B00E0D39F4002EFF09001D0E0FFC39408403C
:10076B00057F080208020208029001D1E0B40B00D9
:10077B00400302093C900787F828287302091F02DF
:10078B00087102093C0208A902093C02083C020755
:10079B00A802093C020847020860020944900003C2
:1007AB00E024FE601904702C9001DE74FFF0A3743A
:1007BB001EF0A374AEF09000CE7412F0801C90016A
:1007CB00DE74FFF0A3741EF0A374C0F09000CE741F
:1007DB0027F080069000CE74FFF09000CEE0FF90E3
:1007EB0001D0E0D39F4002EFF09001D0E0FFC39423
:1007FB000840047F0880009000CEEFF07E00780068
:10080B007C007D019001DEE0FBA3E0FAA3E0F9128E
:10081B00013E9001D0E0FF9000CEE0FEC3EF9E9032
:10082B0001D0F0EEFF9001DFE48FF01202660209B7
:10083B0044900002E09001D0F0020944900188E05E
:10084B00900000F09001D0E0C394015003020944E2
:10085B009000CE800B900002E0900188F09001E1B7
:10086B007401F0020944900000E0541F6402702BE5
:10087B00900004E024FE601D2481600E147041E59D
:10088B00D454BC4402F5D4020944E5D254BC44020E
:10089B00F5D202094453D47302094402093E900075
:1008AB0000E0541FFD701B900003E0FE900002E07F
:1008BB00FBEB64014E7009901EC79320E57B8073A0
:1008CB008071ED6402704B900003E0FE900002E03B
:1008DB00FDED4E703B900005E0FE900004E0FDED59
:1008EB00FFEE702AEF24FE60112481601714701E36
:1008FB00E5D454BF4403F5D4803FE5D4547F440C76
:10090B00F5D48035E5D254BF4403F5D2802B802338
:10091B008021801F900000E4F0A3F09001D0E0FF55
:10092B00C394029000CE40057402F0800CEFF0806F
:10093B000880009000CE74FFF09000CEE0FFB4FF73
:10094B000C9001D174FFF075DCCF0209E7EFD39463
:10095B000850048FDD800375DD0075DCC0807D9051
:10096B0001D1E024FB605314705E9001D0E0FFC313
:10097B00940840047F0880009000CEEFF07E007852
:10098B00007C007D019001DEE0FBA3E0FAA3E0F91F
:10099B0012013E9001D0E0FF9000CEE0FEC3EF9E2F
:1009AB009001D0F0EEFF9001DFE48FF01202669021
:1009BB0000CEE0F5DD63DC408022E5E35480FF9060
:1009CB0001D0E04FF5E3800375DD0075DC02800C90
:1009DB009000CEE5DBF075DD0075DC00C2D930D8B8
:1009EB001275DC0275D21075D41275E300C2DAC22F
:1009FB00D9C2D830DA04C2DA800375D8FFD0D0D090
:100A0B0082D083D0F0D0E0329000DFEBF0A3EAF09D
:100A1B00A3E9F090002B12051512059E9000E2EF52
:100A2B00F09000DFE0FBA3E0FAA3E0F9120164FF12
:100A3B006003020AF49000E2E0FE64026008EE64D8
:100A4B00036003020D17900029E41201EF90002AB6
:100A5B00E41201EF90002712017DFD7C00E92401D7
:100A6B00F9E43AFAE92DF9EC3AFA12016425E012AD
:100A7B0001DD9000E2E0FEB40202802DEE9000DF7B
:100A8B00B40335E0FBA3E0FAA3E0F99000271201D1
:100A9B007DFD7C00E92401F9E43AFAE92DF9EC3A01
:100AAB00FA12016444011201DD9000DFE0FBA3E0C8
:100ABB00FAA3E0F97405800AE0FBA3E0FAA3E0F9DE
:100ACB0074061201DD9000DFE0FBA3E0FAA3E0F96E
:100ADB0090002874011201AA90002812017DD39472
:100AEB00075003020D17020CD1EF640570489000FC
:100AFB00DFE0FBA3E0FAA3E0F990002974011201F7
:100B0B00AA90002912017DD3947F400F9000DFE063
:100B1B00FBA3E0FAA3E0F9740680189000E2E0640E
:100B2B00046003020D179000DFE0FBA3E0FAA3E0E3
:100B3B00F974040201DD9000DFE0FBA3E0FAA3E00F
:100B4B00F9120164FF64046003020CEB90002A04A9
:100B5B001201AA90002A12017DFED394FE500302CB
:100B6B000C0D9000DFE0FBA3E0FAA3E0F974061292
:100B7B0001DD9000DFE0FBA3E0FAA3E0F990002198
:100B8B0074011201EF90002712017D75F008A4FD8E
:100B9B0090002812017D2D9000221201EF9000276A
:100BAB0012017DFD7C00E92401F9E43AFAE92DF903
:100BBB00EC3AFAC003C002C001120164FD9000DFE1
:100BCB00E0FBA3E0FAA3E0F990002812017DFCC33F
:100BDB0074089CFCEDA804088002C333D8FCD00138
:100BEB00D002D0031201DD9000DFE0FBA3E0FAA3FB
:100BFB00E0F990002912017DFD900023E48DF002B5
:100C0B0003149000E2E0FD64026008ED64036003EE
:100C1B00020D179000DFE0FBA3E0FAA3E0F9EEFD75
:100C2B00900025E48DF0120314900029E41201EFDB
:100C3B0090002AE41201EF90002712017DFD7C0049
:100C4B00E92401F9E43AFAE92DF9EC3AFA120164D4
:100C5B0025E01201DD9000E2E0FEB40202802DEEF1
:100C6B009000DFB40335E0FBA3E0FAA3E0F99000BA
:100C7B002712017DFD7C00E92401F9E43AFAE92D04
:100C8B00F9EC3AFA12016444011201DD9000DFE045
:100C9B00FBA3E0FAA3E0F97405800AE0FBA3E0FAFA
:100CAB00A3E0F974061201DD9000DFE0FBA3E0FA8C
:100CBB00A3E0F990002874011201AA9000281201F8
:100CCB007DD3940740469000DFE0FBA3E0FAA3E05E
:100CDB00F9900028E41201EF90002774010201AA99
:100CEB00EFB406289000DFE0FBA3E0FAA3E0F9E401
:100CFB001201DD9000DFE0FBA3E0FAA3E0F9900026
:100D0B0027E41201EF900028E41201EF229000DF9C
:100D1B00EBF0A3EAF0A3E9F0A3EDF0E0FC24FFFF76
:100D2B00E434FFFEEF7802CEC313CE13D8F92C04B4
:100D3B00FF9000EBF09000E6E0FBA3E0FAA3E0F9F4
:100D4B00EF1201DDED75F008A49000ECF0E49000DB
:100D5B00E9F09000EBE0FF9000E9E0FEC39F501C30
:100D6B009000E3E0FBA3E0FAA3E0F98E8275830029
:100D7B00E41201EF9000E9E004F080D6E49000E982
:100D8B00F09000ECE0FF9000E9E0C39F4003020EFF
:100D9B00A49000DFE0FBA3E0FAA3E0F91201645496
:100DAB0080FFE4FE9000EBE0FDEEC39D4003020EDE
:100DBB0084EF60089000EA7401F08005E49000EA8B
:100DCB00F0E4FF9000E3E0FBA3E0FAA3E0F98E82EE
:100DDB0075830012017DD3947F400B0F8E82758338
:100DEB000074301201AA9000E3E0FBA3E0FAA3E049
:100DFB00F98E8275830012017D540FD39407400A3C
:100E0B008E8275830074031201AA9000E3E0FBA3AA
:100E1B00E0FAA3E0F98E8275830012017D25E0FDD7
:100E2B009000EAE02D8E827583001201EF8E8275A1
:100E3B00830012017D540FD3940940159000E3E019
:100E4B00FBA3E0FAA3E0F98E82758300740612010E
:100E5B00AA9000E3E0FBA3E0FAA3E0F98E8275838E
:100E6B000012017DD3949F400C8E827583007460B9
:100E7B001201AA7F010E020DAF9000DFE0FBA3E091
:100E8B00FAA3E0F9A3E0FD9000F17401F0121391C5
:100E9B009000E9E004F0020D8C9000E3E0FBA3E08E
:100EAB00FAA3E0F99000EBE0FD02174F9000E1EBA5
:100EBB00F0A3EAF0A3E9F0AD07A3E06003020FC0D3
:100ECB00ED24FEFBE434FFFAEBAE027803CEC31342
:100EDB00CE13D8F99000E5F0EAC313EB13FCA3741F
:100EEB0080F0E49000E9F09000E7F09000E7E0FF7D
:100EFB00C39C5042EF131313541FA3F09000E1E077
:100F0B00FBA3E0FAA3E0F99000E8E0F5827583001B
:100F1B0012017DFF9000E6E0FE5F60069000E9E0C5
:100F2B0004F0EEC3139000E6F070037480F09000B1
:100F3B00E7E004F080B59000E9E05401F09000E6A2
:100F4B007401F0E49000EAF09000E7F09000E7E025
:100F5B00FFC39C504DEF131313541FFFA3F09000CE
:100F6B00E5E014C39F9000E8F09000E1E0FBA3E004
:100F7B00FAA3E0F99000E8E0F58275830012017D99
:100F8B00FF9000E6E0FE5F60069000EAE004F0EE02
:100F9B0025E09000E6F0700204F09000E7E004F02A
:100FAB0080AA9000EAE030E004E4F080149000EABC
:100FBB007401F0800CAF05EF131313541F9000E571
:100FCB00F0121EA29000E4E070089000E9E0FF121E
:100FDB001D65E49000E7F09000E5E0FF9000E7E08E
:100FEB00C39F50449000E67480F0E49000E8F090CA
:100FFB0000E1E0FBA3E0FAA3E0F99000E7E0F58263
:10100B0075830012017D9000E6121D619000E6E0F1
:10101B00FFC313F09000E8E004F0E0C3940840CF66
:10102B009000E7E004F080AF9000E4E070089000DF
:10103B00EAE0FF121D65021E689000DFEBF0A3EAE9
:10104B00F0A3E9F0A3EDF0E0FB24FFFEE434FFA3F3
:10105B00F0A3CEF0EB75F002A424FFFEE5F034FF15
:10106B00A3F0A3CEF09000E3E0FEA3E0FFC3EE6499
:10107B00809480405D9000DFE0FBA3E0FAA3E0F9F1
:10108B008F828E8312017D540FFF9000E574FFF564
:10109B00F012027C85F082F583EF1201EF9000E3F2
:1010AB00E0FEA3E0F5828E8312017DC4540FFF9006
:1010BB0000E574FFF5F012027C85F082F583EF12E8
:1010CB0001EF9000E4E024FFF09000E3E034FFF048
:1010DB008093E49000E3F0A3F09000E2E075F0025F
:1010EB00A4FFA3E0FCA3E0FDC39FE5F06480F8EC54
:1010FB0064809850779000DFE0FBA3E0FAA3E0F95F
:10110B008D828C8312017DFFD3940950109000E3E4
:10111B00A3E0F5828C8374301201AA803EEFD39446
:10112B000F50319000E3E0FEA3E0FFF5828E8312B7
:10113B00017DC3940A401D9000DFE0FBA3E0FAA3FE
:10114B00E0F98F828E8312017D24378F828E83127A
:10115B0001EF80079000E3A3E0FF229000E4E0049E
:10116B00F070069000E3E004F00210E49000E2E07F
:10117B0025E0FF22C2A9E4F5FF7842E67015900145
:10118B00D3E0B4AA03121CCA7B007A007921120A9D
:10119B001380E37843E65407640270549000D174D3
:1011AB0002F0E49000DEF09000D1E02407FFE4337E
:1011BB00FE7843E6FDC3EF9D7480F86E98502F7B4D
:1011CB00007A007922E0FD24079000E3F01212B3BD
:1011DB009000DEE024D4F582E43400F583EFF09048
:1011EB0000D1E02408F09000DEE004F080B9806BC1
:1011FB007843E65407D39400401D7B007A00792294
:10120B00E6131313541F04FDE65407FFC374089F22
:10121B009000E3F01216029000D17401F0E49000FC
:10122B00DEF09000D1E0C3784396502F7B007A001C
:10123B007922E0FD24079000E3F01212B39000DE58
:10124B00E024D4F582E43400F583EFF09000D1E094
:10125B002408F09000DEE004F080C79000DEE0FD93
:10126B009000E37401F0A37401F0A37489F0A374EC
:10127B0001F0A37401F0A374CFF07B017A0079D451
:10128B00120D187B017A0179899001CFE0FD1210C4
:10129B00449001CFE025E0F09001D474AAF012182D
:1012AB007BE47842F60211819000DFEBF0A3EAF0C9
:1012BB00A3E9F0AB059000E41204CA000000009013
:1012CB0000E3E0C39B049000EAF0EB131313541FED
:1012DB00A3F0EB5407FF700D9000E904F09000EBC6
:1012EB00E014F08012EF14FF7480A807088002C38B
:1012FB0013D8FC9000E9F0E49000E8F09000EAE0ED
:10130B00FF9000E8E0C39F506E9000E4E0FCA3E088
:10131B00FDA3E0FEA3E0FF78011204719000E4123C
:10132B0004BE9000E9E070097480F09000EBE004DB
:10133B00F09000DFE0FBA3E0FAA3E0F99000EBE014
:10134B00F58275830012017DFF9000E9E0FB5F6081
:10135B00179000E4E0FCA3E0FDA3E0FEA3E0440152
:10136B00FFEC9000E41204BEEBC3139000E9F09085
:10137B0000E8E004F080859000E4E0FCA3E0FDA32E
:10138B00E0FEA3E0FF229000EDEBF0A3EAF0A3E96F
:10139B00F0120164FF9000F1E0FEC374089EFEEFB3
:1013AB00A806088002C313D8FC9000F2F09000F15D
:1013BB00E0FEEFA806088002C333D8FC1201DD7FE4
:1013CB0001EFC39D50729000EDE0FBA3E0FAA3E0A8
:1013DB00F98F8275830012017DFE9000F1E0FCC352
:1013EB0074089CFCEEA804088002C313D8FC900080
:1013FB00F3F0EF24FFF582E434FFF583E92582F95E
:10140B00EA3583FA120164FE9000F3E04E1201DD1F
:10141B009000EDE0FBA3E0FAA3E02FF9E43AFA1217
:10142B000164FE9000F1E0FCEEA804088002C333D7
:10143B00D8FC1201DD0F8089EF24FFFFE434FFFE9F
:10144B009000EDE0FBA3E0FAA3E02FF9EA3EFA12DD
:10145B000164FF9000F2E04F0201DD7B017A00791D
:10146B00D19000D97402F0E4FF121B5DE49000D41C
:10147B00F09000D3F09000D3E0FFC39406501CA370
:10148B00E0FEC006121E3E9000D3E02FFFC3D0E05B
:10149B009FA3F09000D3E004F080DA9000D1E0FF3E
:1014AB00B4670C9000D4E0FE9000D2E06E607BEF4E
:1014BB00646670599000D4E0FF9000D2E06F704DDD
:1014CB009000D17467F07B017A0079D19000D974C8
:1014DB0002F0E4FF12198BE49000D3F09000D3E0FC
:1014EB00FFC394985044EF75F002A424C0FFE5F0BD
:1014FB003426FE7B017A0079D19000DA7402F01267
:10150B001536E4F5FF9000D3E004F080CF90002E69
:10151B00E4740193FA740293F912059E121EA2C28F
:10152B008E7F147E0012186380F7229000D5EEF0A8
:10153B00A3EFF0A3EBF0A3EAF0A3E9F0A3E030E014
:10154B000204F09000D6E030E00A04F07006900040
:10155B00D5E004F075A15575A1AA43B108E4F5A136
:10156B009000DBF09000DAE0C313FFA3E0FEC39F13
:10157B005076EE75F002A4FF9000D6E02FFF90009E
:10158B00D5E035F0F5858F849000D7E0FBA3E0FA2A
:10159B00A3E0F99000DBE0FD75F002A42401F582D5
:1015AB00E435F0F58312017DFE9000D7A3A375F00F
:1015BB0002EDA4F58285F08312017D7C002400FFEF
:1015CB00EC3EF58F8F8EE58630E60575869A8003A7
:1015DB007F0022E5866440D3940040037F00229075
:1015EB0000DBE004F002156F75A15575A1AA53B18C
:1015FB00F7E4F5A17F01229000DFEBF0A3EAF0A363
:10160B00E9F0ED24FFFFE434FFFEE92FF9EA3EFA9F
:10161B00120164FF9000E3E0FEEFA806088002C30E
:10162B0013D8FC1201DDED24FEFFD3EF6480947F11
:10163B0040779000DFE0FBA3E0FAA3E0F9EFFD3386
:10164B0095E08D82F58312017DFE9000E3E0FDC3F2
:10165B0074089DFDEEA805088002C333D8FCFEEF8D
:10166B00FD3395E0FCED2401FDE43CFCE92DF9EAAA
:10167B003CFA1201644E1201DD9000DFE0FBA3E0A7
:10168B00FAA3E0F9EFFD3395E0FCE92DF9EA3CFA1A
:10169B00120164FD9000E3E0FCEDA804088002C396
:1016AB0013D8FC1201DD1F808122787FE4F6D8FD70
:1016BB009000007FFF7E03E4F0A3DFFCDEFA758170
:1016CB008902170A021D7EE493A3F8E493A3400357
:1016DB00F68001F208DFF48029E493A3F854072481
:1016EB000CC8C333C4540F4420C8834004F4568041
:1016FB000146F6DFE4800B010204081020408090C5
:10170B001D1BE47E019360BCA3FF543F30E50954DD
:10171B001FFEE493A360010ECF54C025E060A840E8
:10172B00B8E493A3FAE493A3F8E493A3C8C582C8DF
:10173B00CAC583CAF0A3C8C582C8CAC583CADFE9B4
:10174B00DEE780BE9000EDEBF0A3EAF0A3E9F0A397
:10175B00EDF0E4A3F09000F0E0FFC313FEA3E0C3B1
:10176B009E50799000EDE0FBA3E0FAA3E0F9900026
:10177B00F1E0FEF58275830012017D9000F2F0EF2F
:10178B0024FFFDE434FFFCEEFFC3ED9FFFEC940060
:10179B008F82F58312017DFF9000F1E0F582758356
:1017AB0000EF1201EF9000F2E0FF9000F0E024FF59
:1017BB00FDE434FFFCA3E0FBC3ED9BFDEC9400FCCC
:1017CB009000EDE0FBA3E0FAA3E0F98D828C83EFB0
:1017DB001201EF9000F1E004F002176022D2957F26
:1017EB000A7E00121863C2957F0A7E00121863D21C
:1017FB00957F0A7E00121863C2957F0A7E0012182D
:10180B0063D2957F0A7E00121863C2957F0A7E0011
:10181B00121863D2957F0A7E00121863C2957F0A55
:10182B007E00121863D2957F0A7E00121863C29550
:10183B007F0A7E00121863D2957F0A7E001218630E
:10184B00C2957F0A7E00121863D2957F0A7E001222
:10185B001863C2957F0A7E00AD07AC06ED4C600F96
:10186B00E4F5FF7F64121E4DED1D70F01C80ED2220
:10187B009000E17401F0A37401F0A37489F090015E
:10188B00D4E0C394AA40729001CFE0944640037F0A
:10189B00FF229001CFE0FF6057C394209000DF4000
:1018AB00057420F08002EFF09000DFE0FEC3EF9EA6
:1018BB009001CFF0EEFF7E0078487C007D01900018
:1018CB00E1E0FBA3E0FAA3E0F912013E9000DFE0B8
:1018DB00F5D553D4FCE49001D4F09001D4E060FA38
:1018EB009000DFE0FF9000E2E48FF012026680A22E
:1018FB00E49001D4F09001CFF07F00229000D1EB67
:10190B00F0A3EAF0A3E9F09000D1E0FBA3E0FAA387
:10191B00E0F9E41201DD9000D1E0FBA3E0FAA3E0D3
:10192B00F9900021E41201EF900027E41201EF90EF
:10193B000028E41201EF900029E41201EF90002A35
:10194B00E41201EF900022E41201EF900023E4F582
:10195B00F0120314900025E4F5F01203149000D458
:10196B00E0FBA3E0FAA3E0F9C003C002C0019000C2
:10197B00D1E0FBA3E0FAA3E0F990002B120545227E
:10198B009000D6EBF0A3EAF0A3E9F075A15575A191
:10199B00AA43B104E4F5A17585C0EF25E0FFE4FE91
:1019AB009000D9E0FDEEC39D5037EE25E02FF58476
:1019BB009000D6E0FBA3E0FAA3E0F98E82758300DA
:1019CB0012017DF58EE58630E60575869A80037FDC
:1019DB000022E5866440D3940040037F00220E80F2
:1019EB00BF75A15575A1AA53B1FBE4F5A17F0122E7
:1019FB0030DE5F9000D0E5DBF0E0FF7E009001D29F
:101A0B00E02442F9E43401C8E9C8FC7D017B017A8A
:101A1B0000790812013E9000D0E0FF9001D2E02F38
:101A2B00F0EFC394204005E094464023E5D454F3F3
:101A3B004408F5D49001D2E0D39446400AE4A3F0D5
:101A4B009001D2F07FFF229001D374AAF080035350
:101A5B00D4F37F0022EF702CEB7007EDF45292520F
:101A6B009322EBB40106EDF452928014EBB402080E
:101A7B00ED4292EDF4529322EB64037036ED4292F9
:101A8B00ED429322EF6401702AEB7007EDF452964E
:101A9B00529722EBB40106EDF452968013EBB4028D
:101AAB0008ED4296EDF4529722EBB40306ED429605
:101ABB00ED4297229001F6E07032A3E07010120015
:101ACB0016121466121BE89001F77401F0229001B4
:101ADB00F7E0B401047402F0229001F7E0640270A5
:101AEB00259001F604F0E49001F8F0229001F6E065
:101AFB00B401139001F8E0700304F0229001F8E0B8
:101B0B00B4010312117F227813E67811F6E6FF6019
:101B1B0040540F18F66008E6901F0193F6800F787B
:101B2B0011E6FFC4540F901F0193240418F6121EE4
:101B3B00A27810E6901F1193781356F6121E687850
:101B4B0010E624FE60051460058006021E7F121A43
:101B5B00BF229000D6EBF0A3EAF0A3E9F07585C0A5
:101B6B00EF25E0FFE4FE9000D9E0FDEEC39D502988
:101B7B00EE25E02FF58475868EE58630E1037F0038
:101B8B00229000D6E0FBA3E0FAA3E0F98E827583E6
:101B9B0000E58E1201EF0E80CD7F0122C2EAE4F543
:101BAB00E2F5EA43EA4043EB0C53EBFE75ED0075AF
:101BBB00EC0075EF0175EE0075E50075E40875DC5A
:101BCB000275D21275D412F5E375D18075E22943F3
:101BDB00D10175D8FF75E107D2EAD2AF22E49000AC
:101BEB00D1F0121BA7E4F5DDF5D3F5D59001D2F0BA
:101BFB009001D4F09001CFF09001D3F09001E1F07F
:101C0B007F647E001218639000D1E0FF04F0EFD3E5
:101C1B00940550079001E1E060E62222C0E0C0830A
:101C2B00C082C0D075D000C000758CD8758AF07892
:101C3B001406E6D39401400876007813E64404F6C4
:101C4B009000FDE0600914F0E070049000F5F0D016
:101C5B0000D0D0D082D083D0E032C0E0C083C0822D
:101C6B00C0D075D000C000781406E6D394014008AC
:101C7B0076007813E64404F69000FDE0600914F05A
:101C8B00E070049000F5F0D000D0D0D082D083D09B
:101C9B00E0329000D6EBF0A3EAF0A3E9F0E4FF907A
:101CAB0000D5E0FEEFC39E5015A3E0FBA3E0FAA323
:101CBB00E0F98F82758300ED1201EF0F80E1229026
:101CCB0001D3E0B4AA239001D2E075F008A424025A
:101CDB00FF7B017A017942E49000E4F0120EB7E445
:101CEB009001D2F0A3F053D4F322A2B09200A2B190
:101CFB0092013000062001037F03222000063001F1
:101D0B00037F02223000063001037F04227F012271
:101D1B004101D50041014000410141004801E2FF72
:101D2B00FFFFFFFFFFFFFF4801EA0123456789AB78
:101D3B00CDEF00C0E0C083C08230980EC2989000F7
:101D4B00F4E599F09000FD7403F0309902C299D03C
:101D5B0082D083D0E032FFE05FFFEF6004C2B1803E
:101D6B0002C2B07F28121E4DD2B1D2B07F027E00CC
:101D7B00021863C2AF78127601121DF712002A12F5
:101D8B001E91E47812F6D2AFE4F5FF121B1280F825
:101D9B007B017A0079FF9000D57401F0E4FD121CF1
:101DAB009D9000FF7496F022C28CC28D53C9EF53E5
:101DBB0089F0438901758CD8758AF0D2A9D28C220F
:101DCB009000D474FFF0A3741CF0A374F5F07B00A7
:101DDB007A0079210219079000FFE0600E14F0E001
:101DEB0070097405F07813E64408F622121E0A7F78
:101DFB00057E00121863121E88121E5B021E2D75C3
:101E0B00A15575A1AAE5B954F84406F5B9E4F5A1B5
:101E1B00227B017A0079FE9000D57401F0E4FD027B
:101E2B001C9D75A15575A1AA43B101C2EFE4F5A1A3
:101E3B00F5FF22EF24FAFFE4343F8F82F583E4931E
:101E4B00FF22EF600AE4FE0EEEB412FB1F80F322BA
:101E5B00121DB3E49000F5F09000FDF0227812E62D
:101E6B00600616E67002D2AF2230C002C2C030C18B
:101E7B0002C2C132121DE21200120200197B037D55
:101E8B00037F01021A60120006121EA8021E9AE4BA
:101E9B009001F6F0A3F022C2AF78120622121D9B1E
:101EAB00021E1C12011001FF000208861A235504A2
:101EBB0003000000010902270001010080F0090462
:101ECB00000003FF01020007058202200000070546
:101EDB000202200000070581030800013000C30047
:101EEB00FFEC9FECFFECDFECDFECDFEC9FEC9FEC0F
:101EFB009FEC9FECFFEC00000100020001000300CF
:0E1F0B00010002000100FEFDFBF7EFDFBF7FCB
:00000001FF
