:1000000002121502001AE47813F622021639439DF3
:1000100010322202002102184322320216B2C2CF4D
:10002000323232021799323232322202001E002658
:01003000C00F
:03003300020026A2
:03003B0002002997
:030043000206644E
:03004B0002002789
:030053000218ECA4
:03005B0002000E92
:0300630002002870
:10006B00020022E709F608DFFA8046E709F208DF0B
:10007B00FA803E88828C83E709F0A3DFFA8032E3B3
:10008B0009F608DFFA8078E309F208DFFA80708856
:10009B00828C83E309F0A3DFFA806489828A83E090
:1000AB00A3F608DFFA805889828A83E0A3F208DF7F
:1000BB00FA804C80D280FA80C680D4806980F2802E
:1000CB0033801080A680EA809A80A880DA80E28054
:1000DB00CA803389828A83ECFAE493A3C8C582C8A9
:1000EB00CCC583CCF0A3C8C582C8CCC583CCDFE913
:1000FB00DEE7800D89828A83E493A3F608DFF9ECAF
:10010B00FAA9F0EDFB2289828A83ECFAE0A3C8C539
:10011B0082C8CCC583CCF0A3C8C582C8CCC583CC60
:10012B00DFEADEE880DB89828A83E493A3F208DFCF
:10013B00F980CC88F0EF60010E4E60C388F0ED249F
:10014B0002B4040050B9F582EB2402B4040050AFA2
:10015B0023234582239000BE73BB010689828A83C9
:10016B00E0225002E722BBFE02E32289828A83E46B
:10017B009322BB010CE58229F582E5833AF583E0F6
:10018B00225006E92582F8E622BBFE06E92582F815
:10019B00E222E58229F582E5833AF583E49322BBDB
:1001AB00010FF8E58229F582E5833AF583E028F023
:1001BB00225009C58229F8E58226F622BBFE09C525
:1001CB008229F8E22582F222F8EA2583F583E99366
:1001DB002822BB010689828A83F0225002F722BBB8
:1001EB00FE01F322F8BB010DE58229F582E5833A86
:1001FB00F583E8F0225006E92582C8F622BBFE05FE
:10020B00E92582C8F222BC000BBE0029EF8DF084D9
:10021B00FFADF022E4CCF875F008EF2FFFEE33FEC4
:10022B00EC33FCEE9DEC984005FCEE9DFE0FD5F0FB
:10023B00E9E4CEFD22EDF8F5F0EE8420D21CFEAD04
:10024B00F075F008EF2FFFED33FD4007985006D502
:10025B00F0F222C398FD0FD5F0EA22C5F0F8A3E027
:10026B0028F0C5F0F8E582158270021583E038F0AE
:10027B0022A3F8E0C5F025F0F0E582158270021597
:10028B0083E0C838F0E822BB010A89828A83E0F553
:10029B00F0A3E022500687F009E71922BBFE07E323
:1002AB00F5F009E3192289828A83E493F5F074014E
:1002BB009322BB0110E58229F582E5833AF583E0B1
:1002CB00F5F0A3E0225009E92582F886F008E62232
:1002DB00BBFE0AE92582F8E2F5F008E222E5832A63
:1002EB00F583E993F5F0A3E99322BB010A89828A8E
:1002FB0083F0E5F0A3F0225006F709A7F01922BB13
:10030B00FE06F3E5F009F31922F8BB0111E582298A
:10031B00F582E5833AF583E8F0E5F0A3F022500986
:10032B00E92582C8F608A6F022BBFE09E92582C89A
:10033B00F2E5F008F222E88FF0A4CC8BF0A42CFCB1
:10034B00E98EF0A42CFC8AF0EDA42CFCEA8EF0A430
:10035B00CDA8F08BF0A42DCC3825F0FDE98FF0A4BF
:10036B002CCD35F0FCEB8EF0A4FEA9F0EB8FF0A4B6
:10037B00CFC5F02ECD39FEE43CFCEAA42DCE35F0F2
:10038B00FDE43CFC2275F008758200EF2FFFEE3385
:10039B00FECD33CDCC33CCC58233C5829BED9AECED
:1003AB0099E58298400CF582EE9BFEED9AFDEC9957
:1003BB00FC0FD5F0D6E4CEFBE4CDFAE4CCF9A88261
:1003CB0022B800C1B90059BA002DEC8BF084CFCE06
:1003DB00CDFCE5F0CBF97818EF2FFFEE33FEED33C4
:1003EB00FDEC33FCEB33FB10D703994004EB99FB8B
:1003FB000FD8E5E4F9FA227818EF2FFFEE33FEED74
:10040B0033FDEC33FCC933C910D7059BE99A400780
:10041B00EC9BFCE99AF90FD8E0E4C9FAE4CCFB2297
:10042B0075F010EF2FFFEE33FEED33FDCC33CCC860
:10043B0033C810D7079BEC9AE899400AED9BFDEC6B
:10044B009AFCE899F80FD5F0DAE4CDFBE4CCFAE4AA
:10045B00C8F922E8600FECC313FCED13FDEE13FE9D
:10046B00EF13FFD8F122E8600FEFC333FFEE33FE3B
:10047B00ED33FDEC33FCD8F122BB010789828A8373
:10048B000205B05005E9F80205A4BBFE05E9F80228
:10049B0005BC89828A830205C8BB010789828A83CE
:1004AB000204BE5005E9F80205D8BBFE05E9F802C7
:1004BB0005E422ECF0A3EDF0A3EEF0A3EFF022A8FD
:1004CB00828583F0D083D0821204E11204E11204FE
:1004DB00E11204E1E473E493A3C583C5F0C583C8BB
:1004EB00C582C8F0A3C583C5F0C583C8C582C82221
:1004FB00BB010789828A830204CA5005E9F8020509
:10050B00F0BBFE05E9F802060922BB010DE58229C5
:10051B00F582E5833AF5830206345007E92582F824
:10052B00020622BBFE07E92582F8020646E5822970
:10053B00F582E5833AF583020658BB0120E5822953
:10054B00F582E5833AF583D0F0D0E0F8D0E0F9D02E
:10055B00E0FAD0E0FBE8C0E0C0F002063D5018E93D
:10056B002582F8D083D082D0E0F9D0E0FAD0E0FB3E
:10057B00C082C08302062BBBFE18E92582F8D0830C
:10058B00D082D0E0F9D0E0FAD0E0FBC082C0830289
:10059B00064F228A838982E473E6FC08E6FD08E6AF
:1005AB00FE08E6FF22E0FCA3E0FDA3E0FEA3E0FFD4
:1005BB0022E2FC08E2FD08E2FE08E2FF22E493FCE3
:1005CB00740193FD740293FE740393FF22ECF608FF
:1005DB00EDF608EEF608EFF622ECF208EDF208EE77
:1005EB00F208EFF222D083D082E493F608740193E1
:1005FB00F608740293F608740393F6740473D083AD
:10060B00D082E493F208740193F208740293F20817
:10061B00740393F2740473E6FB08E6FA08E6F92216
:10062B00EBF608EAF608E9F622E0FBA3E0FAA3E012
:10063B00F922EBF0A3EAF0A3E9F022E2FB08E2FADD
:10064B0008E2F922EBF208EAF208E9F222E493FB62
:10065B00740193FA740293F922C0E0C0F0C083C016
:10066B0082C0D075D0089000F5E4F020D9030209C0
:10067B00D0E5D9543F70030209C524E07003020989
:10068B005414601924F16029240E60030209CE75FD
:10069B00D500E5D454FC4402F5D40209CE75D30041
:1006AB00E5D254FC4402F5D29000E27401F0020949
:1006BB00CE9000F5E5DBF0E06408600302092B90B7
:1006CB000006E09000E3F0900007E070099000E373
:1006DB00E0D3947F40069000E3747FF09000F5E444
:1006EB00F0900001E09000E4F0900000E0546060B6
:1006FB001A9000E4E01424FD400302093124FB248A
:10070B00FD4003020931800002092B9000E4E0B4A4
:10071B000B004003020929900729F82828730209C6
:10072B000C0208550209290208960209290208221F
:10073B0002074A02092902082D02084A02093190D0
:10074B000003E024FE601E24E060302421706B90D7
:10075B0000F174FFF0A37419F0A374DAF09000F5B4
:10076B007412F0805B9000F174FFF0A37419F0A386
:10077B0074ECF09000F5743BF08045900004E0FFC2
:10078B0070169000F174FFF0A3741AF0A37427F0A5
:10079B009000F5743EF08028EFB4011C9000F174CA
:1007AB00FFF0A3741AF0A37465F09000F57434F0A5
:1007BB009000F47401F0800880009000F574FFF055
:1007CB009000F5E0FF9000E3E0D39F4002EFF09044
:1007DB0000E3E0FFC3940840047F0880009000F51D
:1007EB00EFF07E0078007C007D019000F1E0FBA330
:1007FB00E0FAA3E0F912013E9000E3E0FF9000F570
:10080B00E0FEC3EF9E9000E3F0EEFF9000F2E48F6A
:10081B00F0120266020931900002E09000E3F00250
:10082B0009319000E0E0900000F09000E3E0C39409
:10083B000150030209319000F57401F00209319067
:10084B000002E09000E0F0020931900000E0541F3C
:10085B00FF6402702D900004E014601B2480600D77
:10086B00147019E5D454BC4402F5D48015E5D25468
:10087B00BC4402F5D2800B53D27380069000F57402
:10088B00FFF0EF700302093102092B900000E054D6
:10089B001FFD701B900003E0FE900002E0FBEB6479
:1008AB00014E70099019F39320E57B80738071EDF5
:1008BB006402704B900003E0FE900002E0FDED4EF1
:1008CB00703B900005E0FE900004E0FDEDFFEE7044
:1008DB002AEF24FE60112481601714701EE5D45496
:1008EB00BF4403F5D4803FE5D4547F440CF5D4804A
:1008FB0035E5D254BF4403F5D2802B802380218071
:10090B001F900000E4F0A3F09000E3E0FFC394021B
:10091B009000F540057402F0800CEFF08008800029
:10092B009000F574FFF09000F5E0FFB4FF0C900021
:10093B00E474FFF075DCCF0209CEEF6004F5DD80C7
:10094B000375DD0075DCC0807A9000E4E024FB6069
:10095B005314705E9000E3E0FFC3940840047F08DB
:10096B0080009000F5EFF07E0078007C007D019018
:10097B0000F1E0FBA3E0FAA3E0F912013E9000E3E3
:10098B00E0FF9000F5E0FEC3EF9E9000E3F0EEFF7A
:10099B009000F2E48FF01202669000F5E0F5DD6353
:1009AB00DC40801FE5E35480FF9000E3E04FF5E36C
:1009BB00800375DD0075DC0280099000F5E5DBF046
:1009CB0063DC80C2D930D81275DC0275D21075D4B5
:1009DB001275E300C2DAC2D9C2D830DA09C2DAE53D
:1009EB00DA30E205800375D8FFD0D0D082D083D027
:1009FB00F0D0E0329000FCEBF0A3EAF0A3E9F0902A
:100A0B00002B12051512059E9000FFEFF09000FCD5
:100A1B00E0FBA3E0FAA3E0F9120164FF6003020A12
:100A2B00E09000FFE0FE64026008EE6403600302E6
:100A3B000D03900029E41201EF90002AE41201EF5C
:100A4B0090002712017DFD7C00E92401F9E43AFABC
:100A5B00E92DF9EC3AFA12016425E01201DD900060
:100A6B00FFE0FEB40202802DEE9000FCB40335E0F3
:100A7B00FBA3E0FAA3E0F990002712017DFD7C00B7
:100A8B00E92401F9E43AFAE92DF9EC3AFA12016496
:100A9B0044011201DD9000FCE0FBA3E0FAA3E0F9B6
:100AAB007405800AE0FBA3E0FAA3E0F974061201D7
:100ABB00DD9000FCE0FBA3E0FAA3E0F990002874C2
:100ACB00011201AA90002812017DD3940750030252
:100ADB000D03020CBDEF640570489000FCE0FBA316
:100AEB00E0FAA3E0F990002974011201AA90002901
:100AFB0012017DD3947F400F9000FCE0FBA3E0FA42
:100B0B00A3E0F9740680189000FFE0640460030210
:100B1B000D039000FCE0FBA3E0FAA3E0F9740402E0
:100B2B0001DD9000FCE0FBA3E0FAA3E0F912016405
:100B3B00FF64046003020CD790002A041201AA90F0
:100B4B00002A12017DFED394FE5003020BF9900094
:100B5B00FCE0FBA3E0FAA3E0F974061201DD9000C0
:100B6B00FCE0FBA3E0FAA3E0F99000217401120171
:100B7B00EF90002712017D75F008A4FD900028125C
:100B8B00017D2D9000221201EF90002712017DFDB7
:100B9B007C00E92401F9E43AFAE92DF9EC3AFAC0C0
:100BAB0003C002C001120164FD9000FCE0FBA3E056
:100BBB00FAA3E0F990002812017DFCC374089CFC99
:100BCB00EDA804088002C333D8FCD001D002D003B7
:100BDB001201DD9000FCE0FBA3E0FAA3E0F990002A
:100BEB002912017DFD900023E48DF0020314900087
:100BFB00FFE0FD64026008ED64036003020D0390E7
:100C0B0000FCE0FBA3E0FAA3E0F9EEFD900025E485
:100C1B008DF0120314900029E41201EF90002AE4E6
:100C2B001201EF90002712017DFD7C00E92401F9F0
:100C3B00E43AFAE92DF9EC3AFA12016425E01201D3
:100C4B00DD9000FFE0FEB40202802DEE9000FCB4BC
:100C5B000335E0FBA3E0FAA3E0F990002712017D36
:100C6B00FD7C00E92401F9E43AFAE92DF9EC3AFAB2
:100C7B0012016444011201DD9000FCE0FBA3E0FAD9
:100C8B00A3E0F97405800AE0FBA3E0FAA3E0F97492
:100C9B00061201DD9000FCE0FBA3E0FAA3E0F99063
:100CAB00002874011201AA90002812017DD3940729
:100CBB0040469000FCE0FBA3E0FAA3E0F99000288B
:100CCB00E41201EF90002774010201AAEFB4062889
:100CDB009000FCE0FBA3E0FAA3E0F9E41201DD9045
:100CEB0000FCE0FBA3E0FAA3E0F9900027E412017B
:100CFB00EF900028E41201EF22E49000F8F0A3F04B
:100D0B009000F604F0A3F0C2A9E4F5FF7842E67078
:100D1B000AFB7A0079211209FF80EE9000F9E0902E
:100D2B0000F8F09000F7E09000F6F07843E65407F7
:100D3B006402705E9000FA7402F09000FAE02407EF
:100D4B00FFE433FE7843E6FDC3EF9D7480F86E98A5
:100D5B00503E7B007A007922E0FD2407900100F0E1
:100D6B00120E309000FBEFF09000FF7401F0A374B3
:100D7B0000F0A374F6F09000FBE0900102F07B0111
:100D8B007A0079F81213C69000FAE02408F080AAD2
:100D9B0080757843E65407D39400401D7B007A009E
:100DAB007922E6131313541F04FDE65407FFC37493
:100DBB00089F900100F01211629000FA7401F090FC
:100DCB0000FAE0C3784396503E7B007A007922E02C
:100DDB00FD2407900100F0120E309000FBEFF09015
:100DEB0000FF7401F0A37400F0A374F6F09000FB05
:100DFB00E0900102F07B017A0079F81213C69000A3
:100E0B00FAE02408F080B89000FF7401F0A374009E
:100E1B00F0A374F6F07B017A0079F91217F7E478F6
:100E2B0042F6020D149000FCEBF0A3EAF0A3E9F0FC
:100E3B00AB059001011204CA00000000900100E014
:100E4B00C39B04900107F0EB131313541FA3F0EB98
:100E5B005407FF700D90010604F0900108E014F0A8
:100E6B008012EF14FF7480A807088002C313D8FC0C
:100E7B00900106F0E4900105F0900107E0FF90016E
:100E8B0005E0C39F506E900101E0FCA3E0FDA3E0E1
:100E9B00FEA3E0FF78011204719001011204BE90D1
:100EAB000106E070097480F0900108E004F09000F6
:100EBB00FCE0FBA3E0FAA3E0F9900108E0F58275F2
:100ECB00830012017DFF900106E0FB5F601790012C
:100EDB0001E0FCA3E0FDA3E0FEA3E04401FFEC90E6
:100EEB0001011204BEEBC313900106F0900105E063
:100EFB0004F08085900101E0FCA3E0FDA3E0FEA3DC
:100F0B00E0FF227B017A0079F69000FE7402F0E498
:100F1B00FF1215A7E49000F9F09000F8F09000F89C
:100F2B00E0FFC39406501CA3E0FEC0061218B69057
:100F3B0000F8E02FFFC3D0E09FA3F09000F8E0048F
:100F4B00F080DA9000F6E0FFB4670C9000F9E0FE59
:100F5B009000F7E06E607BEF646670599000F9E0EB
:100F6B00FF9000F7E06F704D9000F67467F07B0117
:100F7B007A0079F69000FE7402F0E4FF12143AE462
:100F8B009000F8F09000F8E0FFC394985044EF7590
:100F9B00F002A424C0FFE5F03426FE7B017A007931
:100FAB00F69000FF7402F0120FDEE4F5FF9000F8EC
:100FBB00E004F080CF90002EE4740193FA74029356
:100FCB00F912059E12191AC28E7F147E0012132A73
:100FDB0080F7229000FAEEF0A3EFF0A3EBF0A3EA78
:100FEB00F0A3E9F0A3E030E00204F09000FBE03066
:100FFB00E00A04F070069000FAE004F075A1557554
:10100B00A1AA43B108E4F5A1900100F09000FFE024
:10101B00C313FFA3E0FEC39F5076EE75F002A4FF4F
:10102B009000FBE02FFF9000FAE035F0F5858F8400
:10103B009000FCE0FBA3E0FAA3E0F9900100E0FDD7
:10104B0075F002A42401F582E435F0F58312017DDD
:10105B00FE9000FCA3A375F002EDA4F58285F0834E
:10106B0012017D7C002400FFEC3EF58F8F8EE58610
:10107B0030E60575869A80037F0022E5866440D3AF
:10108B00940040037F0022900100E004F00210174F
:10109B0075A15575A1AA53B1F7E4F5A17F01227A89
:1010AB0001790274017B01900107F0E4FF900103C9
:1010BB00EFF0A3EBF0A3EAF0A3E9F0E4900108F062
:1010CB00900107E0FFA3E0FEC39F4003021161E420
:1010DB00F5FF900103E07055A3E0FBA3E0FAA3E05A
:1010EB00F98E8275830012017DC4540FFFC3940ADD
:1010FB00500674302FFF800474572FFF1216779011
:10110B000104E0FBA3E0FAA3E0F9900108E0F5820B
:10111B0075830012017D540FFFC3940A500674307F
:10112B002FFF800474572FFF121677802090010435
:10113B00E0FBA3E0FAA3E0F9120164FF60181216BA
:10114B0077900105E475F00112026680E0900108CA
:10115B00E004F00210CB229000FCEBF0A3EAF0A32A
:10116B00E9F0ED24FFFFE434FFFEE92FF9EA3EFA44
:10117B00120164FF900100E0FEEFA806088002C395
:10118B0013D8FC1201DDED24FEFFD3EF6480947FB6
:10119B0040779000FCE0FBA3E0FAA3E0F9EFFD330E
:1011AB0095E08D82F58312017DFE900100E0FDC379
:1011BB0074089DFDEEA805088002C333D8FCFEEF32
:1011CB00FD3395E0FCED2401FDE43CFCE92DF9EA4F
:1011DB003CFA1201644E1201DD9000FCE0FBA3E02F
:1011EB00FAA3E0F9EFFD3395E0FCE92DF9EA3CFABF
:1011FB00120164FD900100E0FCEDA804088002C31D
:10120B0013D8FC1201DD1F808122787FE4F6D8FD14
:10121B009000007FFF7E03E4F0A3DFFCDEFA758114
:10122B008902126A0217DAE493A3F8E493A340034A
:10123B00F68001F208DFF48029E493A3F854072425
:10124B000CC8C333C4540F4420C8834004F45680E5
:10125B000146F6DFE4800B01020408102040809069
:10126B00174AE47E019360BCA3FF543F30E5095459
:10127B001FFEE493A360010ECF54C025E060A8408D
:10128B00B8E493A3FAE493A3F8E493A3C8C582C884
:10129B00CAC583CAF0A3C8C582C8CAC583CADFE959
:1012AB00DEE780BED2957F0A7E0012132AC2957F9D
:1012BB000A7E0012132AD2957F0A7E0012132AC2CD
:1012CB00957F0A7E0012132AD2957F0A7E00121395
:1012DB002AC2957F0A7E0012132AD2957F0A7E00BE
:1012EB0012132AC2957F0A7E0012132AD2957F0A07
:1012FB007E0012132AC2957F0A7E0012132AD29502
:10130B007F0A7E0012132AC2957F0A7E0012132ACF
:10131B00D2957F0A7E0012132AC2957F0A7E00ADFA
:10132B0007AC06ED4C600FE4F5FF7F641218C5EDBA
:10133B001D70F01C80ED229000F6EBF0A3EAF0A3F9
:10134B00E9F09000F6E0FBA3E0FAA3E0F9E4120168
:10135B00DD9000F6E0FBA3E0FAA3E0F9900021E4B6
:10136B001201EF900027E41201EF900028E4120124
:10137B00EF900029E41201EF90002AE41201EF90A4
:10138B000022E41201EF900023E4F5F01203149015
:10139B000025E4F5F01203149000F9E0FBA3E0FA4A
:1013AB00A3E0F9C003C002C0019000F6E0FBA3E08C
:1013BB00FAA3E0F990002B120545229000FCEBF00C
:1013CB00A3EAF0A3E9F09000FCE0FBA3E0FAA3E0B2
:1013DB00F912016464017053900102E0FF70012265
:1013EB00EF54F07024900102E0540FF0E0C3940A24
:1013FB005006E02430F08007900102E02457F09073
:10140B000102E0FF12167780031210AA9000FCE095
:10141B00FBA3E0FAA3E0F9E41201DD9000FFE0FB8F
:10142B00A3E0FAA3E0F974010201DD1210AA2290E5
:10143B0000FBEBF0A3EAF0A3E9F075A15575A1AAA7
:10144B0043B104E4F5A17585C0EF25E0FFE4FE9000
:10145B0000FEE0FDEEC39D5037EE25E02FF58490A6
:10146B0000FBE0FBA3E0FAA3E0F98E827583001288
:10147B00017DF58EE58630E60575869A80037F0043
:10148B0022E5866440D3940040037F00220E80BF88
:10149B0075A15575A1AA53B1FBE4F5A17F0122EF0C
:1014AB00702CEB7007EDF45292529322EBB40106C1
:1014BB00EDF452928014EBB40208ED4292EDF4522B
:1014CB009322EB64037036ED4292ED429322EF646C
:1014DB0001702AEB7007EDF45296529722EBB40190
:1014EB0006EDF452968013EBB40208ED4296EDF440
:1014FB00529722EBB40306ED4296ED4297229001F0
:10150B0023E07032A3E07010120016120F0E1216A9
:10151B00EA9001247401F022900124E0B4010474D8
:10152B0002F022900124E06402702590012304F064
:10153B00E4900125F022900123E0B40113900125E2
:10154B00E0700304F022900125E0B40103120D04B6
:10155B00227813E67811F6E6FF6040540F18F66018
:10156B0008E6901A9993F6800F7811E6FFC4540F92
:10157B00901A9993240418F612191A7810E6901AF7
:10158B00A993781356F61218E07810E624FE60053E
:10159B0014600580060218F7121509229000FBEB68
:1015AB00F0A3EAF0A3E9F07585C0EF25E0FFE4FEB8
:1015BB009000FEE0FDEEC39D5029EE25E02FF58453
:1015CB0075868EE58630E1037F00229000FBE0FB01
:1015DB00A3E0FAA3E0F98E82758300E58E1201EF8A
:1015EB000E80CD7F0122C2EAE4F5E275E50075E4D9
:1015FB0050E5EB54FE4404F5EB75D41275ED007514
:10160B00EC0053EAF375DC0275EF0075EE0AE5EAC0
:10161B0054EF4440F5EA75D212E4F5E375D18075C9
:10162B00E22943D10175D8FF75E107D2EA22C0E068
:10163B00C083C082C0D075D000C000758CD8758AAD
:10164B00F0781406E6D39401400876007813E6444C
:10165B0004F6900122E0600914F0E0700490011A86
:10166B00F0D000D0D0D082D083D0E032E4FEF5FFB2
:10167B00FDED9019AA93B507047E0180050DEDB41D
:10168B0030EFEE6021E49000E2F0ED90197A9312C6
:10169B0017BC9000E2E060FAE49000E2F01217BC95
:1016AB009000E2E060FA22C0E0C083C082C0D07537
:1016BB00D000C000781406E6D39401400876007879
:1016CB0013E64404F6900122E0600914F0E0700484
:1016DB0090011AF0D000D0D0D082D083D0E032E489
:1016EB009000F6F01215F1D2AFE4F5D3F5D59000DA
:1016FB00E2F09000F4F07F647E0012132A9000F663
:10170B00E0FF04F0EFD3940550079000F4E060E69F
:10171B0022229000FBEBF0A3EAF0A3E9F0E4FF90A8
:10172B0000FAE0FEEFC39E5015A3E0FBA3E0FAA383
:10173B00E0F98F82758300ED1201EF0F80E12244F7
:10174B0000ED000000004800D80000000000000081
:10175B000048010AFFFFFFFFFFFFFFFF48011201D7
:10176B0023456789ABCDEF00A2B09200A2B19201E5
:10177B003000062001037F03222000063001037F87
:10178B0002223000063001037F04227F0122C0E0D9
:10179B00C083C08230980EC298900109E599F090F1
:1017AB0001227403F0309902C299D082D083D0E029
:1017BB00329000DAF0780A7C007D017B017A0079A7
:1017CB00D87E007F0812013E75D30853D2FC22C28B
:1017DB00AF7812760112186F12002A121909E478E9
:1017EB0012F6D2AFE4F5FF12155C80F8120164B467
:1017FB0001159000FFE0FBA3E0FAA3E0F9120164EE
:10180B0070057F30121677227B017A0179279000C1
:10181B00FA7401F0E4FD12171D9001277496F02263
:10182B00C28CC28D53C9EF5389F0438901758CD893
:10183B00758AF0D2A9D28C229000F974FFF0A374B0
:10184B0017F0A37473F07B007A0079210213429096
:10185B000127E0600E14F0E070097405F07813E6D0
:10186B004408F6221218827F057E0012132A1219E1
:10187B00001218D30218A575A15575A1AAE5B95484
:10188B00F84406F5B9E4F5A1227B017A017926909B
:10189B0000FA7401F0E4FD02171D75A15575A1AA9C
:1018AB0043B101C2EFE4F5A1F5FF22EF24FAFFE407
:1018BB00343F8F82F583E493FF22EF600AE4FE0E40
:1018CB00EEB412FB1F80F32212182BE490011AF0D6
:1018DB00900122F0227812E6600616E67002D2AF73
:1018EB002230C002C2C030C102C2C13212185A1219
:1018FB0000120200197B037D037F010214AA120060
:10190B0006121920021912E4900123F0A3F022C24F
:10191B00AF781206221218130218940A6865782DF4
:10192B006469737020202020000A636861722D6443
:10193B006973702020202000303031313232333344
:10194B0034343535363637373838393920616162BA
:10195B0062636364646565666667676869676B6C19
:10196B006D6E6F707172737475767778797A0028F3
:10197B002C34362D3738271E1F20212223242526D1
:10198B00332E2F30350405060708090A0B0C0D0EF4
:10199B000F101112131415161718191A1B1C1D0AE8
:1019AB0020272C2D2E2F3031323334353637383922
:1019BB003B3D5B5D606162636465666768696A6B2A
:1019CB006C6D6E6F707172737475767778797A123D
:1019DB00011001000000083D41072100000000003C
:1019EB000109023B00020100A032090400000103BF
:1019FB00010100092111010001223E0007058103AD
:101A0B0008000A0904010001030102000921100169
:101A1B0000012234000705820304000A05010906B0
:101A2B00A101050719E029E71500250175019508A6
:101A3B00810295017508810195037501050819014E
:101A4B00290391029505750191019506750826FFED
:101A5B00000507190029918100C005010902A101A8
:101A6B000901A100050919012903150025017501BB
:101A7B009503810275059501810105010930093135
:101A8B0009381581257F750895038106C0C00000B4
:101A9B000100020001000300010002000100FEFD35
:061AAB00FBF7EFDFBF7F37
:00000001FF
