:1000000002157902001AE47813F622021A36439D8B
:10001000103222020021021C402232021AAFC2CF4B
:10002000323232021B96323232322202001E002657
:01003000C00F
:03003300020026A2
:03003B0002002997
:030043000206644E
:03004B0002002789
:03005300021CE9A3
:03005B0002000E92
:0300630002002870
:10006B00020022E709F608DFFA8046E709F208DF0B
:10007B00FA803E88828C83E709F0A3DFFA8032E3B3
:10008B0009F608DFFA8078E309F208DFFA80708856
:10009B00828C83E309F0A3DFFA806489828A83E090
:1000AB00A3F608DFFA805889828A83E0A3F208DF7F
:1000BB00FA804C80D280FA80C680D4806980F2802E
:1000CB0033801080A680EA809A80A880DA80E28054
:1000DB00CA803389828A83ECFAE493A3C8C582C8A9
:1000EB00CCC583CCF0A3C8C582C8CCC583CCDFE913
:1000FB00DEE7800D89828A83E493A3F608DFF9ECAF
:10010B00FAA9F0EDFB2289828A83ECFAE0A3C8C539
:10011B0082C8CCC583CCF0A3C8C582C8CCC583CC60
:10012B00DFEADEE880DB89828A83E493A3F208DFCF
:10013B00F980CC88F0EF60010E4E60C388F0ED249F
:10014B0002B4040050B9F582EB2402B4040050AFA2
:10015B0023234582239000BE73BB010689828A83C9
:10016B00E0225002E722BBFE02E32289828A83E46B
:10017B009322BB010CE58229F582E5833AF583E0F6
:10018B00225006E92582F8E622BBFE06E92582F815
:10019B00E222E58229F582E5833AF583E49322BBDB
:1001AB00010FF8E58229F582E5833AF583E028F023
:1001BB00225009C58229F8E58226F622BBFE09C525
:1001CB008229F8E22582F222F8EA2583F583E99366
:1001DB002822BB010689828A83F0225002F722BBB8
:1001EB00FE01F322F8BB010DE58229F582E5833A86
:1001FB00F583E8F0225006E92582C8F622BBFE05FE
:10020B00E92582C8F222BC000BBE0029EF8DF084D9
:10021B00FFADF022E4CCF875F008EF2FFFEE33FEC4
:10022B00EC33FCEE9DEC984005FCEE9DFE0FD5F0FB
:10023B00E9E4CEFD22EDF8F5F0EE8420D21CFEAD04
:10024B00F075F008EF2FFFED33FD4007985006D502
:10025B00F0F222C398FD0FD5F0EA22C5F0F8A3E027
:10026B0028F0C5F0F8E582158270021583E038F0AE
:10027B0022A3F8E0C5F025F0F0E582158270021597
:10028B0083E0C838F0E822BB010A89828A83E0F553
:10029B00F0A3E022500687F009E71922BBFE07E323
:1002AB00F5F009E3192289828A83E493F5F074014E
:1002BB009322BB0110E58229F582E5833AF583E0B1
:1002CB00F5F0A3E0225009E92582F886F008E62232
:1002DB00BBFE0AE92582F8E2F5F008E222E5832A63
:1002EB00F583E993F5F0A3E99322BB010A89828A8E
:1002FB0083F0E5F0A3F0225006F709A7F01922BB13
:10030B00FE06F3E5F009F31922F8BB0111E582298A
:10031B00F582E5833AF583E8F0E5F0A3F022500986
:10032B00E92582C8F608A6F022BBFE09E92582C89A
:10033B00F2E5F008F222E88FF0A4CC8BF0A42CFCB1
:10034B00E98EF0A42CFC8AF0EDA42CFCEA8EF0A430
:10035B00CDA8F08BF0A42DCC3825F0FDE98FF0A4BF
:10036B002CCD35F0FCEB8EF0A4FEA9F0EB8FF0A4B6
:10037B00CFC5F02ECD39FEE43CFCEAA42DCE35F0F2
:10038B00FDE43CFC2275F008758200EF2FFFEE3385
:10039B00FECD33CDCC33CCC58233C5829BED9AECED
:1003AB0099E58298400CF582EE9BFEED9AFDEC9957
:1003BB00FC0FD5F0D6E4CEFBE4CDFAE4CCF9A88261
:1003CB0022B800C1B90059BA002DEC8BF084CFCE06
:1003DB00CDFCE5F0CBF97818EF2FFFEE33FEED33C4
:1003EB00FDEC33FCEB33FB10D703994004EB99FB8B
:1003FB000FD8E5E4F9FA227818EF2FFFEE33FEED74
:10040B0033FDEC33FCC933C910D7059BE99A400780
:10041B00EC9BFCE99AF90FD8E0E4C9FAE4CCFB2297
:10042B0075F010EF2FFFEE33FEED33FDCC33CCC860
:10043B0033C810D7079BEC9AE899400AED9BFDEC6B
:10044B009AFCE899F80FD5F0DAE4CDFBE4CCFAE4AA
:10045B00C8F922E8600FECC313FCED13FDEE13FE9D
:10046B00EF13FFD8F122E8600FEFC333FFEE33FE3B
:10047B00ED33FDEC33FCD8F122BB010789828A8373
:10048B000205B05005E9F80205A4BBFE05E9F80228
:10049B0005BC89828A830205C8BB010789828A83CE
:1004AB000204BE5005E9F80205D8BBFE05E9F802C7
:1004BB0005E422ECF0A3EDF0A3EEF0A3EFF022A8FD
:1004CB00828583F0D083D0821204E11204E11204FE
:1004DB00E11204E1E473E493A3C583C5F0C583C8BB
:1004EB00C582C8F0A3C583C5F0C583C8C582C82221
:1004FB00BB010789828A830204CA5005E9F8020509
:10050B00F0BBFE05E9F802060922BB010DE58229C5
:10051B00F582E5833AF5830206345007E92582F824
:10052B00020622BBFE07E92582F8020646E5822970
:10053B00F582E5833AF583020658BB0120E5822953
:10054B00F582E5833AF583D0F0D0E0F8D0E0F9D02E
:10055B00E0FAD0E0FBE8C0E0C0F002063D5018E93D
:10056B002582F8D083D082D0E0F9D0E0FAD0E0FB3E
:10057B00C082C08302062BBBFE18E92582F8D0830C
:10058B00D082D0E0F9D0E0FAD0E0FBC082C0830289
:10059B00064F228A838982E473E6FC08E6FD08E6AF
:1005AB00FE08E6FF22E0FCA3E0FDA3E0FEA3E0FFD4
:1005BB0022E2FC08E2FD08E2FE08E2FF22E493FCE3
:1005CB00740193FD740293FE740393FF22ECF608FF
:1005DB00EDF608EEF608EFF622ECF208EDF208EE77
:1005EB00F208EFF222D083D082E493F608740193E1
:1005FB00F608740293F608740393F6740473D083AD
:10060B00D082E493F208740193F208740293F20817
:10061B00740393F2740473E6FB08E6FA08E6F92216
:10062B00EBF608EAF608E9F622E0FBA3E0FAA3E012
:10063B00F922EBF0A3EAF0A3E9F022E2FB08E2FADD
:10064B0008E2F922EBF208EAF208E9F222E493FB62
:10065B00740193FA740293F922C0E0C0F0C083C016
:10066B0082C0D075D0089000D8E4F020D9030209DD
:10067B00D0E5D9543F70030209C524E07003020989
:10068B005414601924F16029240E60030209CE75FD
:10069B00D500E5D454FC4402F5D40209CE75D30041
:1006AB00E5D254FC4402F5D29001027401F0020928
:1006BB00CE9000D8E5DBF0E06408600302092B90D4
:1006CB000006E0900103F0900007E0700990010331
:1006DB00E0D3947F4006900103747FF09000D8E440
:1006EB00F0900001E0900104F0900000E054606095
:1006FB001A900104E01424FD400302093124FB2469
:10070B00FD4003020931800002092B900104E0B483
:10071B000B004003020929900729F82828730209C6
:10072B000C0208550209290208960209290208221F
:10073B0002074A02092902082D02084A02093190D0
:10074B000003E024FE601E24E060302421706B90D7
:10075B00011174FFF0A3741DF0A374D7F09000D8AF
:10076B007412F0805B90011174FFF0A3741DF0A361
:10077B0074E9F09000D8743BF08045900004E0FFE2
:10078B00701690011174FFF0A3741EF0A37424F083
:10079B009000D8743EF08028EFB4011C90011174C6
:1007AB00FFF0A3741EF0A37462F09000D87434F0C1
:1007BB009001147401F0800880009000D874FFF051
:1007CB009000D8E0FF900103E0D39F4002EFF09040
:1007DB000103E0FFC3940840047F0880009000D819
:1007EB00EFF07E0078007C007D01900111E0FBA30F
:1007FB00E0FAA3E0F912013E900103E0FF9000D86C
:10080B00E0FEC3EF9E900103F0EEFF900112E48F28
:10081B00F0120266020931900002E0900103F0022F
:10082B000931900100E0900000F0900103E0C394C7
:10083B000150030209319000D87401F00209319084
:10084B000002E0900100F0020931900000E0541F1B
:10085B00FF6402702D900004E014601B2480600D77
:10086B00147019E5D454BC4402F5D48015E5D25468
:10087B00BC4402F5D2800B53D27380069000D8741F
:10088B00FFF0EF700302093102092B900000E054D6
:10089B001FFD701B900003E0FE900002E0FBEB6479
:1008AB00014E7009901DF09320E57B80738071EDF4
:1008BB006402704B900003E0FE900002E0FDED4EF1
:1008CB00703B900005E0FE900004E0FDEDFFEE7044
:1008DB002AEF24FE60112481601714701EE5D45496
:1008EB00BF4403F5D4803FE5D4547F440CF5D4804A
:1008FB0035E5D254BF4403F5D2802B802380218071
:10090B001F900000E4F0A3F0900103E0FFC39402FA
:10091B009000D840057402F0800CEFF08008800046
:10092B009000D874FFF09000D8E0FFB4FF0C90015A
:10093B000474FFF075DCCF0209CEEF6004F5DD80A7
:10094B000375DD0075DCC0807A900104E024FB6048
:10095B005314705E900103E0FFC3940840047F08BA
:10096B0080009000D8EFF07E0078007C007D019035
:10097B000111E0FBA3E0FAA3E0F912013E900103A1
:10098B00E0FF9000D8E0FEC3EF9E900103F0EEFF76
:10099B00900112E48FF01202669000D8E0F5DD634F
:1009AB00DC40801FE5E35480FF900103E04FF5E34B
:1009BB00800375DD0075DC0280099000D8E5DBF063
:1009CB0063DC80C2D930D81275DC0275D21075D4B5
:1009DB001275E300C2DAC2D9C2D830DA09C2DAE53D
:1009EB00DA30E205800375D8FFD0D0D082D083D027
:1009FB00F0D0E0329000E2EBF0A3EAF0A3E9F09044
:100A0B00002B12051512059E9000E5EFF09000E209
:100A1B00E0FBA3E0FAA3E0F9120164FF6003020A12
:100A2B00E09000E5E0FE64026008EE640360030200
:100A3B000D03900029E41201EF90002AE41201EF5C
:100A4B0090002712017DFD7C00E92401F9E43AFABC
:100A5B00E92DF9EC3AFA12016425E01201DD900060
:100A6B00E5E0FEB40202802DEE9000E2B40335E027
:100A7B00FBA3E0FAA3E0F990002712017DFD7C00B7
:100A8B00E92401F9E43AFAE92DF9EC3AFA12016496
:100A9B0044011201DD9000E2E0FBA3E0FAA3E0F9D0
:100AAB007405800AE0FBA3E0FAA3E0F974061201D7
:100ABB00DD9000E2E0FBA3E0FAA3E0F990002874DC
:100ACB00011201AA90002812017DD3940750030252
:100ADB000D03020CBDEF640570489000E2E0FBA330
:100AEB00E0FAA3E0F990002974011201AA90002901
:100AFB0012017DD3947F400F9000E2E0FBA3E0FA5C
:100B0B00A3E0F9740680189000E5E064046003022A
:100B1B000D039000E2E0FBA3E0FAA3E0F9740402FA
:100B2B0001DD9000E2E0FBA3E0FAA3E0F91201641F
:100B3B00FF64046003020CD790002A041201AA90F0
:100B4B00002A12017DFED394FE5003020BF9900094
:100B5B00E2E0FBA3E0FAA3E0F974061201DD9000DA
:100B6B00E2E0FBA3E0FAA3E0F9900021740112018B
:100B7B00EF90002712017D75F008A4FD900028125C
:100B8B00017D2D9000221201EF90002712017DFDB7
:100B9B007C00E92401F9E43AFAE92DF9EC3AFAC0C0
:100BAB0003C002C001120164FD9000E2E0FBA3E070
:100BBB00FAA3E0F990002812017DFCC374089CFC99
:100BCB00EDA804088002C333D8FCD001D002D003B7
:100BDB001201DD9000E2E0FBA3E0FAA3E0F9900044
:100BEB002912017DFD900023E48DF0020314900087
:100BFB00E5E0FD64026008ED64036003020D039001
:100C0B0000E2E0FBA3E0FAA3E0F9EEFD900025E49F
:100C1B008DF0120314900029E41201EF90002AE4E6
:100C2B001201EF90002712017DFD7C00E92401F9F0
:100C3B00E43AFAE92DF9EC3AFA12016425E01201D3
:100C4B00DD9000E5E0FEB40202802DEE9000E2B4F0
:100C5B000335E0FBA3E0FAA3E0F990002712017D36
:100C6B00FD7C00E92401F9E43AFAE92DF9EC3AFAB2
:100C7B0012016444011201DD9000E2E0FBA3E0FAF3
:100C8B00A3E0F97405800AE0FBA3E0FAA3E0F97492
:100C9B00061201DD9000E2E0FBA3E0FAA3E0F9907D
:100CAB00002874011201AA90002812017DD3940729
:100CBB0040469000E2E0FBA3E0FAA3E0F9900028A5
:100CCB00E41201EF90002774010201AAEFB4062889
:100CDB009000E2E0FBA3E0FAA3E0F9E41201DD905F
:100CEB0000E2E0FBA3E0FAA3E0F9900027E4120195
:100CFB00EF900028E41201EF22E49000DBF0A3F068
:100D0B009000D904F0A3F0C2A9E4F5FF7842E67095
:100D1B000AFB7A0079211209FF80EE9000DCE0904B
:100D2B0000DBF09000DAE09000D9F07843E654074E
:100D3B0064026003020E0EE69000E1F07BFF7A1E68
:100D4B0079AE9000ED7401F0FF12141C9000E67464
:100D5B0001F0A37400F0A374DFF0A37401F0A3748B
:100D6B0000F0A374DDF07B017A0079E17D01120FB5
:100D7B0020E49000DDF07B019000E504F0A374000B
:100D8B00F0A374D9F09000E0E09000E8F07A0079DD
:100D9B00DD1217C37BFF7A1E79B19000ED7401F061
:100DAB00FF12141C9000DD7402F09000DDE02407AC
:100DBB00FFE433FE7843E6FDC3EF9D7480F86E9835
:100DCB004003020EF27B007A007922E0FD240790AB
:100DDB0000E6F01210BF9000DEEFF09000E574011A
:100DEB00F0A37400F0A374D9F09000DEE09000E85B
:100DFB00F07B017A0079DB1217C39000DDE0240849
:100E0B00F080A77843E65407D39400401D7B007A0B
:100E1B00007922E6131313541F04FDE65407FFC396
:100E2B0074089F9000E6F01214C67843E69000E138
:100E3B00F07BFF7A1E79AE9000ED7401F0FF121477
:100E4B001C9000E67401F0A37400F0A374DFF0A310
:100E5B007401F0A37400F0A374DDF07B017A0079C8
:100E6B00E17D01120F20E49000DDF07B019000E5A5
:100E7B0004F0A37400F0A374D9F09000E0E09000AC
:100E8B00E8F07A0079DD1217C37BFF7A1E79B190F7
:100E9B0000ED7401F0FF12141C9000DD7401F09052
:100EAB0000DDE0C3784396503E7B007A007922E068
:100EBB00FD24079000E6F01210BF9000DEEFF090DB
:100ECB0000E57401F0A37400F0A374D9F09000DE78
:100EDB00E09000E8F07B017A0079DB1217C39000F9
:100EEB00DDE02408F080B89000E57401F0A37400F5
:100EFB00F0A374D9F07B017A0079DC121BF47BFF31
:100F0B007A1E79B69000ED7401F0FF12141CE47890
:100F1B0042F6020D149000E2EBF0A3EAF0A3E9F025
:100F2B00A3EDF0E0FC24FFFFE434FFFEEF7802CEEC
:100F3B00C313CE13D8F92C04FF9000EEF09000E908
:100F4B00E0FBA3E0FAA3E0F9EF1201DDED75F00889
:100F5B00A49000EFF0E49000ECF09000EEE0FF9036
:100F6B0000ECE0FEC39F501C9000E6E0FBA3E0FA10
:100F7B00A3E0F98E82758300E41201EF9000ECE0A0
:100F8B0004F080D6E49000ECF09000EFE0FF9000CE
:100F9B00ECE0C39F40030210AC9000E2E0FBA3E047
:100FAB00FAA3E0F91201645480FFE4FE9000EEE036
:100FBB00FDEEC39D400302108CEF60089000ED74B2
:100FCB0001F08005E49000EDF0E4FF9000E6E0FB1B
:100FDB00A3E0FAA3E0F98E8275830012017DD3940E
:100FEB007F400B0F8E8275830074301201AA900024
:100FFB00E6E0FBA3E0FAA3E0F98E82758300120111
:10100B007D540FD39407400A8E82758300740312AC
:10101B0001AA9000E6E0FBA3E0FAA3E0F98E82754B
:10102B00830012017D25E0FD9000EDE02D8E827591
:10103B0083001201EF8E8275830012017D540FD352
:10104B00940940159000E6E0FBA3E0FAA3E0F98ECB
:10105B008275830074061201AA9000E6E0FBA3E000
:10106B00FAA3E0F98E8275830012017DD3949F4021
:10107B000C8E8275830074601201AA7F010E020F21
:10108B00B79000E2E0FBA3E0FAA3E0F9A3E0FD9048
:10109B0000F47401F012119D9000ECE004F0020FCB
:1010AB00949000E6E0FBA3E0FAA3E0F99000EEE0F9
:1010BB00FD0216139000E2EBF0A3EAF0A3E9F0AB0C
:1010CB00059000E71204CA000000009000E6E0C3A0
:1010DB009B049000EDF0EB131313541FA3F0EB5490
:1010EB0007FF700D9000EC04F09000EEE014F08020
:1010FB0012EF14FF7480A807088002C313D8FC906A
:10110B0000ECF0E49000EBF09000EDE0FF9000EBD2
:10111B00E0C39F506E9000E7E0FCA3E0FDA3E0FE70
:10112B00A3E0FF78011204719000E71204BE900057
:10113B00ECE070097480F09000EEE004F09000E2B7
:10114B00E0FBA3E0FAA3E0F99000EEE0F5827583F3
:10115B000012017DFF9000ECE0FB5F60179000E751
:10116B00E0FCA3E0FDA3E0FEA3E04401FFEC900054
:10117B00E71204BEEBC3139000ECF09000EBE0041D
:10118B00F080859000E7E0FCA3E0FDA3E0FEA3E088
:10119B00FF229000F0EBF0A3EAF0A3E9F012016458
:1011AB00FF9000F4E0FEC374089EFEEFA8060880D3
:1011BB0002C313D8FC9000F5F09000F4E0FEEFA80A
:1011CB0006088002C333D8FC1201DD7F01EFC39DFB
:1011DB0050729000F0E0FBA3E0FAA3E0F98F827568
:1011EB00830012017DFE9000F4E0FCC374089CFCAC
:1011FB00EEA804088002C313D8FC9000F6F0EF248D
:10120B00FFF582E434FFF583E92582F9EA3583FAA9
:10121B00120164FE9000F6E04E1201DD9000F0E04A
:10122B00FBA3E0FAA3E02FF9E43AFA120164FE9073
:10123B0000F4E0FCEEA804088002C333D8FC1201D2
:10124B00DD0F8089EF24FFFFE434FFFE9000F0E018
:10125B00FBA3E0FAA3E02FF9EA3EFA120164FF9038
:10126B0000F5E04F0201DD7B017A0079D99000E1B6
:10127B007402F0E4FF1219A4E49000DCF09000DBA0
:10128B00F09000DBE0FFC39406501CA3E0FEC00609
:10129B00121CB39000DBE02FFFC3D0E09FA3F090B4
:1012AB0000DBE004F080DA9000D9E0FFB4670C902B
:1012BB0000DCE0FE9000DAE06E607BEF6466705954
:1012CB009000DCE0FF9000DAE06F704D9000D97475
:1012DB0067F07B017A0079D99000E17402F0E4FFAA
:1012EB00121837E49000DBF09000DBE0FFC394981A
:1012FB005044EF75F002A424C0FFE5F03426FE7BCA
:10130B00017A0079D99000E27402F0121342E4F5ED
:10131B00FF9000DBE004F080CF90002EE47401938B
:10132B00FA740293F912059E121D17C28E7F147E5A
:10133B000012172780F7229000DDEEF0A3EFF0A349
:10134B00EBF0A3EAF0A3E9F0A3E030E00204F090A5
:10135B0000DEE030E00A04F070069000DDE004F0FF
:10136B0075A15575A1AA43B108E4F5A19000E3F06E
:10137B009000E2E0C313FFA3E0FEC39F5076EE752F
:10138B00F002A4FF9000DEE02FFF9000DDE035F0CF
:10139B00F5858F849000DFE0FBA3E0FAA3E0F990E2
:1013AB0000E3E0FD75F002A42401F582E435F0F5CD
:1013BB008312017DFE9000DFA3A375F002EDA4F56F
:1013CB008285F08312017D7C002400FFEC3EF58FBB
:1013DB008F8EE58630E60575869A80037F0022E5C1
:1013EB00866440D3940040037F00229000E3E00426
:1013FB00F002137B75A15575A1AA53B1F7E4F5A1C2
:10140B007F01227A0079E874017B019000EDF0E412
:10141B00FF9000E9EFF0A3EBF0A3EAF0A3E9F0E40F
:10142B009000EEF09000EDE0FFA3E0FEC39F4003C1
:10143B000214C5E4F5FF9000E9E07055A3E0FBA3AF
:10144B00E0FAA3E0F98E8275830012017DC4540F7C
:10145B00FFC3940A500674302FFF800474572FFF7C
:10146B00121A749000EAE0FBA3E0FAA3E0F99000F3
:10147B00EEE0F58275830012017D540FFFC3940AD1
:10148B00500674302FFF800474572FFF121A74808C
:10149B00209000EAE0FBA3E0FAA3E0F9120164FF5D
:1014AB006018121A749000EBE475F001120266805A
:1014BB00E09000EEE004F002142F229000E2EBF03B
:1014CB00A3EAF0A3E9F0ED24FFFFE434FFFEE92FDC
:1014DB00F9EA3EFA120164FF9000E6E0FEEFA8067F
:1014EB00088002C313D8FC1201DDED24FEFFD3EFFD
:1014FB006480947F40779000E2E0FBA3E0FAA3E0E6
:10150B00F9EFFD3395E08D82F58312017DFE90009E
:10151B00E6E0FDC374089DFDEEA805088002C33309
:10152B00D8FCFEEFFD3395E0FCED2401FDE43CFC23
:10153B00E92DF9EA3CFA1201644E1201DD9000E24A
:10154B00E0FBA3E0FAA3E0F9EFFD3395E0FCE92D16
:10155B00F9EA3CFA120164FD9000E6E0FCEDA80408
:10156B00088002C313D8FC1201DD1F808122787F13
:10157B00E4F6D8FD9000007FFF7E03E4F0A3DFFCD0
:10158B00DEFA7581890215CE021BD7E493A3F8E42A
:10159B0093A34003F68001F208DFF48029E493A3C0
:1015AB00F85407240CC8C333C4540F4420C88340D9
:1015BB0004F456800146F6DFE4800B0102040810A8
:1015CB00204080901B47E47E019360BCA3FF543FF7
:1015DB0030E509541FFEE493A360010ECF54C025E0
:1015EB00E060A840B8E493A3FAE493A3F8E493A3D0
:1015FB00C8C582C8CAC583CAF0A3C8C582C8CAC534
:10160B0083CADFE9DEE780BE9000F0EBF0A3EAF0DF
:10161B00A3E9F0A3EDF0E4A3F09000F3E0FFC31314
:10162B00FEA3E0C39E50799000F0E0FBA3E0FAA389
:10163B00E0F99000F4E0FEF58275830012017D90D5
:10164B0000F5F0EF24FFFDE434FFFCEEFFC3ED9F4C
:10165B00FFEC94008F82F58312017DFF9000F4E084
:10166B00F582758300EF1201EF9000F5E0FF90001B
:10167B00F3E024FFFDE434FFFCA3E0FBC3ED9BFD93
:10168B00EC9400FC9000F0E0FBA3E0FAA3E0F98DF2
:10169B00828C83EF1201EF9000F4E004F002162429
:1016AB0022D2957F0A7E00121727C2957F0A7E00F1
:1016BB00121727D2957F0A7E00121727C2957F0A31
:1016CB007E00121727D2957F0A7E00121727C2952C
:1016DB007F0A7E00121727D2957F0A7E00121727EA
:1016EB00C2957F0A7E00121727D2957F0A7E0012C1
:1016FB001727C2957F0A7E00121727D2957F0A7E85
:10170B0000121727C2957F0A7E00121727D2957FEA
:10171B000A7E00121727C2957F0A7E00AD07AC0622
:10172B00ED4C600FE4F5FF7F64121CC2ED1D70F0F1
:10173B001C80ED229000D9EBF0A3EAF0A3E9F09026
:10174B0000D9E0FBA3E0FAA3E0F9E41201DD90007D
:10175B00D9E0FBA3E0FAA3E0F9900021E41201EF3A
:10176B00900027E41201EF900028E41201EF9000A3
:10177B0029E41201EF90002AE41201EF900022E419
:10178B001201EF900023E4F5F0120314900025E40E
:10179B00F5F01203149000DCE0FBA3E0FAA3E0F9F0
:1017AB00C003C002C0019000D9E0FBA3E0FAA3E0A4
:1017BB00F990002B120545229000E2EBF0A3EAF022
:1017CB00A3E9F09000E2E0FBA3E0FAA3E0F9120139
:1017DB0064640170539000E8E0FF700122EF54F055
:1017EB0070249000E8E0540FF0E0C3940A5006E038
:1017FB002430F080079000E8E02457F09000E8E0F8
:10180B00FF121A74800312140E9000E2E0FBA3E0A7
:10181B00FAA3E0F9E41201DD9000E5E0FBA3E0FAA6
:10182B00A3E0F974010201DD12140E229000DEEB2D
:10183B00F0A3EAF0A3E9F075A15575A1AA43B10491
:10184B00E4F5A17585C0EF25E0FFE4FE9000E1E033
:10185B00FDEEC39D5037EE25E02FF5849000DEE0C2
:10186B00FBA3E0FAA3E0F98E8275830012017DF5EC
:10187B008EE58630E60575869A80037F0022E58625
:10188B006440D3940040037F00220E80BF75A155A6
:10189B0075A1AA53B1FBE4F5A17F0122EF702CEBEC
:1018AB007007EDF45292529322EBB40106EDF45211
:1018BB00928014EBB40208ED4292EDF4529322EBBA
:1018CB0064037036ED4292ED429322EF6401702A6D
:1018DB00EB7007EDF45296529722EBB40106EDF440
:1018EB0052968013EBB40208ED4296EDF452972218
:1018FB00EBB40306ED4296ED42972290012EE07079
:10190B0032A3E07010120016121272121AE7900135
:10191B002F7401F02290012FE0B401047402F02225
:10192B0090012FE06402702590012E04F0E49001E9
:10193B0030F02290012EE0B40113900130E07003DF
:10194B0004F022900130E0B40103120D042278134D
:10195B00E67811F6E6FF6040540F18F66008E69043
:10196B001E9693F6800F7811E6FFC4540F901E96C7
:10197B0093240418F6121D177810E6901EA6937880
:10198B001356F6121CDD7810E624FE600514600574
:10199B008006021CF4121906229000DEEBF0A3EA7B
:1019AB00F0A3E9F07585C0EF25E0FFE4FE9000E1C0
:1019BB00E0FDEEC39D5029EE25E02FF58475868E54
:1019CB00E58630E1037F00229000DEE0FBA3E0FA26
:1019DB00A3E0F98E82758300E58E1201EF0E80CDA8
:1019EB007F0122C2EAE4F5E275E50075E450E5EB10
:1019FB0054FE4404F5EB75D41275ED0075EC0053F1
:101A0B00EAF375DC0275EF0075EE0AE5EA54EF4474
:101A1B0040F5EA75D212E4F5E375D18075E22943FE
:101A2B00D10175D8FF75E107D2EA22C0E0C083C0AF
:101A3B0082C0D075D000C000758CD8758AF0781430
:101A4B0006E6D39401400876007813E64404F6903A
:101A5B00012DE0600914F0E07004900125F0D00036
:101A6B00D0D0D082D083D0E032E4FEF5FFFDED90F4
:101A7B001DA793B507047E0180050DEDB430EFEE85
:101A8B006021E4900102F0ED901D7793121BB99049
:101A9B000102E060FAE4900102F0121BB99001021E
:101AAB00E060FA22C0E0C083C082C0D075D000C015
:101ABB0000781406E6D39401400876007813E644C8
:101ACB0004F690012DE0600914F0E07004900125FC
:101ADB00F0D000D0D0D082D083D0E032E49000D9C7
:101AEB00F01219EED2AFE4F5D3F5D5900102F090D8
:101AFB000114F07F647E001217279000D9E0FF04D9
:101B0B00F0EFD394055007900114E060E622229089
:101B1B0000DEEBF0A3EAF0A3E9F0E4FF9000DDE0D8
:101B2B00FEEFC39E5015A3E0FBA3E0FAA3E0F98FF1
:101B3B0082758300ED1201EF0F80E12244010D004D
:101B4B000000004800F80000000000000000480101
:101B5B0015FFFFFFFFFFFFFFFF48011D0123456737
:101B6B0089ABCDEF00A2B09200A2B192013000067A
:101B7B002001037F03222000063001037F02223065
:101B8B0000063001037F04227F0122C0E0C083C026
:101B9B008230980EC2989000F7E599F090012D7461
:101BAB0003F0309902C299D082D083D0E0329000FA
:101BBB00FAF0780A7C007D017B017A0079F87E00CF
:101BCB007F0812013E75D30853D2FC22C2AF7812A4
:101BDB007601121C6C12002A121D06E47812F6D242
:101BEB00AFE4F5FF12195980F8120164B401159096
:101BFB0000E5E0FBA3E0FAA3E0F912016470057FB6
:101C0B0030121A74227B017A0179329000DD740153
:101C1B00F0E4FD121B1A9001327496F022C28CC2B2
:101C2B008D53C9EF5389F0438901758CD8758AF0B0
:101C3B00D2A9D28C229000DC74FFF0A3741BF0A30A
:101C4B007470F07B007A00792102173F900132E02B
:101C5B00600E14F0E070097405F07813E64408F692
:101C6B0022121C7F7F057E00121727121CFD121CEF
:101C7B00D0021CA275A15575A1AAE5B954F844066A
:101C8B00F5B9E4F5A1227B017A0179319000DD747D
:101C9B0001F0E4FD021B1A75A15575A1AA43B10110
:101CAB00C2EFE4F5A1F5FF22EF24FAFFE4343F8FF6
:101CBB0082F583E493FF22EF600AE4FE0EEEB4128A
:101CCB00FB1F80F322121C28E4900125F090012DBC
:101CDB00F0227812E6600616E67002D2AF2230C010
:101CEB0002C2C030C102C2C132121C571200120212
:101CFB0000197B037D037F010218A7120006121D3A
:101D0B001D021D0FE490012EF0A3F022C2AF78123A
:101D1B000622121C10021C910A6865782D646973E7
:101D2B007020202020000A636861722D6469737033
:101D3B0020202020003030313132323333343435EF
:101D4B00353636373738383939206161626263632B
:101D5B0064646565666667676869676B6C6D6E6FF3
:101D6B00707172737475767778797A00282C3436A3
:101D7B002D3738271E1F20212223242526332E2FD3
:101D8B0030350405060708090A0B0C0D0E0F101150
:101D9B0012131415161718191A1B1C1D0A20272CA1
:101DAB002D2E2F303132333435363738393B3D5BBE
:101DBB005D606162636465666768696A6B6C6D6EB2
:101DCB006F707172737475767778797A120110016E
:101DDB00000000083D41072100000000000109023E
:101DEB003B00020100A032090400000103010100C5
:101DFB00092111010001223E000705810308000A99
:101E0B000904010001030102000921100100012254
:101E1B0034000705820304000A05010906A1010528
:101E2B000719E029E7150025017501950881029531
:101E3B0001750881019503750105081901290391A5
:101E4B00029505750191019506750826FF0005079A
:101E5B00190029918100C005010902A1010901A105
:101E6B000005091901290315002501750195038149
:101E7B0002750595018101050109300931093815F4
:101E8B0081257F750895038106C0C0000001000203
:101E9B000001000300010002000100FEFDFBF7EF53
:0D1EAB00DFBF7F77670020202020000A00A5
:00000001FF
