:1000000002155302001AE47813F622021A10439DD7
:10001000103222020021021C1A2232021A89C2CF97
:10002000323232021B70323232322202001E00267D
:01003000C00F
:03003300020026A2
:03003B0002002997
:030043000206644E
:03004B0002002789
:03005300021CC3C9
:03005B0002000E92
:0300630002002870
:10006B00020022E709F608DFFA8046E709F208DF0B
:10007B00FA803E88828C83E709F0A3DFFA8032E3B3
:10008B0009F608DFFA8078E309F208DFFA80708856
:10009B00828C83E309F0A3DFFA806489828A83E090
:1000AB00A3F608DFFA805889828A83E0A3F208DF7F
:1000BB00FA804C80D280FA80C680D4806980F2802E
:1000CB0033801080A680EA809A80A880DA80E28054
:1000DB00CA803389828A83ECFAE493A3C8C582C8A9
:1000EB00CCC583CCF0A3C8C582C8CCC583CCDFE913
:1000FB00DEE7800D89828A83E493A3F608DFF9ECAF
:10010B00FAA9F0EDFB2289828A83ECFAE0A3C8C539
:10011B0082C8CCC583CCF0A3C8C582C8CCC583CC60
:10012B00DFEADEE880DB89828A83E493A3F208DFCF
:10013B00F980CC88F0EF60010E4E60C388F0ED249F
:10014B0002B4040050B9F582EB2402B4040050AFA2
:10015B0023234582239000BE73BB010689828A83C9
:10016B00E0225002E722BBFE02E32289828A83E46B
:10017B009322BB010CE58229F582E5833AF583E0F6
:10018B00225006E92582F8E622BBFE06E92582F815
:10019B00E222E58229F582E5833AF583E49322BBDB
:1001AB00010FF8E58229F582E5833AF583E028F023
:1001BB00225009C58229F8E58226F622BBFE09C525
:1001CB008229F8E22582F222F8EA2583F583E99366
:1001DB002822BB010689828A83F0225002F722BBB8
:1001EB00FE01F322F8BB010DE58229F582E5833A86
:1001FB00F583E8F0225006E92582C8F622BBFE05FE
:10020B00E92582C8F222BC000BBE0029EF8DF084D9
:10021B00FFADF022E4CCF875F008EF2FFFEE33FEC4
:10022B00EC33FCEE9DEC984005FCEE9DFE0FD5F0FB
:10023B00E9E4CEFD22EDF8F5F0EE8420D21CFEAD04
:10024B00F075F008EF2FFFED33FD4007985006D502
:10025B00F0F222C398FD0FD5F0EA22C5F0F8A3E027
:10026B0028F0C5F0F8E582158270021583E038F0AE
:10027B0022A3F8E0C5F025F0F0E582158270021597
:10028B0083E0C838F0E822BB010A89828A83E0F553
:10029B00F0A3E022500687F009E71922BBFE07E323
:1002AB00F5F009E3192289828A83E493F5F074014E
:1002BB009322BB0110E58229F582E5833AF583E0B1
:1002CB00F5F0A3E0225009E92582F886F008E62232
:1002DB00BBFE0AE92582F8E2F5F008E222E5832A63
:1002EB00F583E993F5F0A3E99322BB010A89828A8E
:1002FB0083F0E5F0A3F0225006F709A7F01922BB13
:10030B00FE06F3E5F009F31922F8BB0111E582298A
:10031B00F582E5833AF583E8F0E5F0A3F022500986
:10032B00E92582C8F608A6F022BBFE09E92582C89A
:10033B00F2E5F008F222E88FF0A4CC8BF0A42CFCB1
:10034B00E98EF0A42CFC8AF0EDA42CFCEA8EF0A430
:10035B00CDA8F08BF0A42DCC3825F0FDE98FF0A4BF
:10036B002CCD35F0FCEB8EF0A4FEA9F0EB8FF0A4B6
:10037B00CFC5F02ECD39FEE43CFCEAA42DCE35F0F2
:10038B00FDE43CFC2275F008758200EF2FFFEE3385
:10039B00FECD33CDCC33CCC58233C5829BED9AECED
:1003AB0099E58298400CF582EE9BFEED9AFDEC9957
:1003BB00FC0FD5F0D6E4CEFBE4CDFAE4CCF9A88261
:1003CB0022B800C1B90059BA002DEC8BF084CFCE06
:1003DB00CDFCE5F0CBF97818EF2FFFEE33FEED33C4
:1003EB00FDEC33FCEB33FB10D703994004EB99FB8B
:1003FB000FD8E5E4F9FA227818EF2FFFEE33FEED74
:10040B0033FDEC33FCC933C910D7059BE99A400780
:10041B00EC9BFCE99AF90FD8E0E4C9FAE4CCFB2297
:10042B0075F010EF2FFFEE33FEED33FDCC33CCC860
:10043B0033C810D7079BEC9AE899400AED9BFDEC6B
:10044B009AFCE899F80FD5F0DAE4CDFBE4CCFAE4AA
:10045B00C8F922E8600FECC313FCED13FDEE13FE9D
:10046B00EF13FFD8F122E8600FEFC333FFEE33FE3B
:10047B00ED33FDEC33FCD8F122BB010789828A8373
:10048B000205B05005E9F80205A4BBFE05E9F80228
:10049B0005BC89828A830205C8BB010789828A83CE
:1004AB000204BE5005E9F80205D8BBFE05E9F802C7
:1004BB0005E422ECF0A3EDF0A3EEF0A3EFF022A8FD
:1004CB00828583F0D083D0821204E11204E11204FE
:1004DB00E11204E1E473E493A3C583C5F0C583C8BB
:1004EB00C582C8F0A3C583C5F0C583C8C582C82221
:1004FB00BB010789828A830204CA5005E9F8020509
:10050B00F0BBFE05E9F802060922BB010DE58229C5
:10051B00F582E5833AF5830206345007E92582F824
:10052B00020622BBFE07E92582F8020646E5822970
:10053B00F582E5833AF583020658BB0120E5822953
:10054B00F582E5833AF583D0F0D0E0F8D0E0F9D02E
:10055B00E0FAD0E0FBE8C0E0C0F002063D5018E93D
:10056B002582F8D083D082D0E0F9D0E0FAD0E0FB3E
:10057B00C082C08302062BBBFE18E92582F8D0830C
:10058B00D082D0E0F9D0E0FAD0E0FBC082C0830289
:10059B00064F228A838982E473E6FC08E6FD08E6AF
:1005AB00FE08E6FF22E0FCA3E0FDA3E0FEA3E0FFD4
:1005BB0022E2FC08E2FD08E2FE08E2FF22E493FCE3
:1005CB00740193FD740293FE740393FF22ECF608FF
:1005DB00EDF608EEF608EFF622ECF208EDF208EE77
:1005EB00F208EFF222D083D082E493F608740193E1
:1005FB00F608740293F608740393F6740473D083AD
:10060B00D082E493F208740193F208740293F20817
:10061B00740393F2740473E6FB08E6FA08E6F92216
:10062B00EBF608EAF608E9F622E0FBA3E0FAA3E012
:10063B00F922EBF0A3EAF0A3E9F022E2FB08E2FADD
:10064B0008E2F922EBF208EAF208E9F222E493FB62
:10065B00740193FA740293F922C0E0C0F0C083C016
:10066B0082C0D075D0089000D8E4F020D9030209DD
:10067B00D0E5D9543F70030209C524E07003020989
:10068B005414601924F16029240E60030209CE75FD
:10069B00D500E5D454FC4402F5D40209CE75D30041
:1006AB00E5D254FC4402F5D29001177401F0020913
:1006BB00CE9000D8E5DBF0E06408600302092B90D4
:1006CB000006E0900118F0900007E0700990011807
:1006DB00E0D3947F4006900118747FF09000D8E42B
:1006EB00F0900001E0900119F0900000E054606080
:1006FB001A900119E01424FD400302093124FB2454
:10070B00FD4003020931800002092B900119E0B46E
:10071B000B004003020929900729F82828730209C6
:10072B000C0208550209290208960209290208221F
:10073B0002074A02092902082D02084A02093190D0
:10074B000003E024FE601E24E060302421706B90D7
:10075B00012674FFF0A3741DF0A374B1F09000D8C0
:10076B007412F0805B90012674FFF0A3741DF0A34C
:10077B0074C3F09000D8743BF08045900004E0FF08
:10078B00701690012674FFF0A3741DF0A374FEF095
:10079B009000D8743EF08028EFB4011C90012674B1
:1007AB00FFF0A3741EF0A3743CF09000D87434F0E7
:1007BB009001297401F0800880009000D874FFF03C
:1007CB009000D8E0FF900118E0D39F4002EFF0902B
:1007DB000118E0FFC3940840047F0880009000D804
:1007EB00EFF07E0078007C007D01900126E0FBA3FA
:1007FB00E0FAA3E0F912013E900118E0FF9000D857
:10080B00E0FEC3EF9E900118F0EEFF900127E48FFE
:10081B00F0120266020931900002E0900118F0021A
:10082B000931900115E0900000F0900118E0C3949D
:10083B000150030209319000D87401F00209319084
:10084B000002E0900115F0020931900000E0541F06
:10085B00FF6402702D900004E014601B2480600D77
:10086B00147019E5D454BC4402F5D48015E5D25468
:10087B00BC4402F5D2800B53D27380069000D8741F
:10088B00FFF0EF700302093102092B900000E054D6
:10089B001FFD701B900003E0FE900002E0FBEB6479
:1008AB00014E7009901DCA9320E57B80738071ED1A
:1008BB006402704B900003E0FE900002E0FDED4EF1
:1008CB00703B900005E0FE900004E0FDEDFFEE7044
:1008DB002AEF24FE60112481601714701EE5D45496
:1008EB00BF4403F5D4803FE5D4547F440CF5D4804A
:1008FB0035E5D254BF4403F5D2802B802380218071
:10090B001F900000E4F0A3F0900118E0FFC39402E5
:10091B009000D840057402F0800CEFF08008800046
:10092B009000D874FFF09000D8E0FFB4FF0C90015A
:10093B001974FFF075DCCF0209CEEF6004F5DD8092
:10094B000375DD0075DCC0807A900119E024FB6033
:10095B005314705E900118E0FFC3940840047F08A5
:10096B0080009000D8EFF07E0078007C007D019035
:10097B000126E0FBA3E0FAA3E0F912013E90011877
:10098B00E0FF9000D8E0FEC3EF9E900118F0EEFF61
:10099B00900127E48FF01202669000D8E0F5DD633A
:1009AB00DC40801FE5E35480FF900118E04FF5E336
:1009BB00800375DD0075DC0280099000D8E5DBF063
:1009CB0063DC80C2D930D81275DC0275D21075D4B5
:1009DB001275E300C2DAC2D9C2D830DA09C2DAE53D
:1009EB00DA30E205800375D8FFD0D0D082D083D027
:1009FB00F0D0E0329000F7EBF0A3EAF0A3E9F0902F
:100A0B00002B12051512059E9000FAEFF09000F7DF
:100A1B00E0FBA3E0FAA3E0F9120164FF6003020A12
:100A2B00E09000FAE0FE64026008EE6403600302EB
:100A3B000D03900029E41201EF90002AE41201EF5C
:100A4B0090002712017DFD7C00E92401F9E43AFABC
:100A5B00E92DF9EC3AFA12016425E01201DD900060
:100A6B00FAE0FEB40202802DEE9000F7B40335E0FD
:100A7B00FBA3E0FAA3E0F990002712017DFD7C00B7
:100A8B00E92401F9E43AFAE92DF9EC3AFA12016496
:100A9B0044011201DD9000F7E0FBA3E0FAA3E0F9BB
:100AAB007405800AE0FBA3E0FAA3E0F974061201D7
:100ABB00DD9000F7E0FBA3E0FAA3E0F990002874C7
:100ACB00011201AA90002812017DD3940750030252
:100ADB000D03020CBDEF640570489000F7E0FBA31B
:100AEB00E0FAA3E0F990002974011201AA90002901
:100AFB0012017DD3947F400F9000F7E0FBA3E0FA47
:100B0B00A3E0F9740680189000FAE0640460030215
:100B1B000D039000F7E0FBA3E0FAA3E0F9740402E5
:100B2B0001DD9000F7E0FBA3E0FAA3E0F91201640A
:100B3B00FF64046003020CD790002A041201AA90F0
:100B4B00002A12017DFED394FE5003020BF9900094
:100B5B00F7E0FBA3E0FAA3E0F974061201DD9000C5
:100B6B00F7E0FBA3E0FAA3E0F99000217401120176
:100B7B00EF90002712017D75F008A4FD900028125C
:100B8B00017D2D9000221201EF90002712017DFDB7
:100B9B007C00E92401F9E43AFAE92DF9EC3AFAC0C0
:100BAB0003C002C001120164FD9000F7E0FBA3E05B
:100BBB00FAA3E0F990002812017DFCC374089CFC99
:100BCB00EDA804088002C333D8FCD001D002D003B7
:100BDB001201DD9000F7E0FBA3E0FAA3E0F990002F
:100BEB002912017DFD900023E48DF0020314900087
:100BFB00FAE0FD64026008ED64036003020D0390EC
:100C0B0000F7E0FBA3E0FAA3E0F9EEFD900025E48A
:100C1B008DF0120314900029E41201EF90002AE4E6
:100C2B001201EF90002712017DFD7C00E92401F9F0
:100C3B00E43AFAE92DF9EC3AFA12016425E01201D3
:100C4B00DD9000FAE0FEB40202802DEE9000F7B4C6
:100C5B000335E0FBA3E0FAA3E0F990002712017D36
:100C6B00FD7C00E92401F9E43AFAE92DF9EC3AFAB2
:100C7B0012016444011201DD9000F7E0FBA3E0FADE
:100C8B00A3E0F97405800AE0FBA3E0FAA3E0F97492
:100C9B00061201DD9000F7E0FBA3E0FAA3E0F99068
:100CAB00002874011201AA90002812017DD3940729
:100CBB0040469000F7E0FBA3E0FAA3E0F990002890
:100CCB00E41201EF90002774010201AAEFB4062889
:100CDB009000F7E0FBA3E0FAA3E0F9E41201DD904A
:100CEB0000F7E0FBA3E0FAA3E0F9900027E4120180
:100CFB00EF900028E41201EF22E49000DBF0A3F068
:100D0B009000D904F0A3F0C2A9E4F5FF7842E67095
:100D1B000AFB7A0079211209FF80EE9000DCE0904B
:100D2B0000DBF09000DAE09000D9F07843E654074E
:100D3B0064026003020E049000DD7402F0E4900084
:100D4B00E9F09000DDE02407FFE433FE7843E6FD95
:100D5B00C3EF9D7480F86E98502F7B007A00792238
:100D6B00E0FD24079000FBF01210999000E9E024BD
:100D7B00DFF582E43400F583EFF09000DDE024082A
:100D8B00F09000E9E004F080B99000E9E0FD9000FC
:100D9B00FB7401F0A37400F0A374EAF0A37401F0E8
:100DAB00A37400F0A374F6F07B017A0079DF120EC6
:100DBB00FAE49000DDF09000F6E0FF9000DDE0FE3D
:100DCB00C39F4003020EDC74EA2EF582E43400F577
:100DDB0083E0FF9000DEF09000FA7401F0A3740042
:100DEB00F0A374D9F0A3EFF07B017A0079DB121733
:100DFB009D9000DDE004F080BD7843E65407D3946A
:100E0B0000401D7B007A007922E6131313541F0454
:100E1B00FDE65407FFC374089F9000FBF01214A06B
:100E2B009000DD7401F0E49000E9F09000DDE0C388
:100E3B00784396502F7B007A007922E0FD240790AF
:100E4B0000FBF01210999000E9E024DFF582E43406
:100E5B0000F583EFF09000DDE02408F09000E9E06E
:100E6B0004F080C79000E9E0FD9000FB7401F0A353
:100E7B007400F0A374EAF0A37401F0A37400F0A360
:100E8B0074F6F07B017A0079DF120EFAE49000DD44
:100E9B00F09000F6E0FF9000DDE0FEC39F5032744F
:100EAB00EA2EF582E43400F583E0FF9000DEF0904B
:100EBB0000FA7401F0A37400F0A374D9F0A3EFF05F
:100ECB007B017A0079DB12179D9000DDE004F08046
:100EDB00C09000FA7401F0A37400F0A374D9F07BF6
:100EEB00017A0079DC121BCEE47842F6020D1490E5
:100EFB0000F7EBF0A3EAF0A3E9F0A3EDF0E0FC249C
:100F0B00FFFFE434FFFEEF7802CEC313CE13D8F904
:100F1B002C04FF900103F09000FEE0FBA3E0FAA38A
:100F2B00E0F9EF1201DDED75F008A4900104F0E497
:100F3B00900101F0900103E0FF900101E0FEC39FDF
:100F4B00501C9000FBE0FBA3E0FAA3E0F98E827546
:100F5B008300E41201EF900101E004F080D6E490ED
:100F6B000101F0900104E0FF900101E0C39F4003F9
:100F7B000210869000F7E0FBA3E0FAA3E0F9120160
:100F8B00645480FFE4FE900103E0FDEEC39D40033B
:100F9B00021066EF60089001027401F08005E49086
:100FAB000102F0E4FF9000FBE0FBA3E0FAA3E0F901
:100FBB008E8275830012017DD3947F400B0F8E823E
:100FCB0075830074301201AA9000FBE0FBA3E0FADA
:100FDB00A3E0F98E8275830012017D540FD3940721
:100FEB00400A8E8275830074031201AA9000FBE005
:100FFB00FBA3E0FAA3E0F98E8275830012017D2535
:10100B00E0FD900102E02D8E827583001201EF8EC0
:10101B008275830012017D540FD394094015900003
:10102B00FBE0FBA3E0FAA3E0F98E82758300740664
:10103B001201AA9000FBE0FBA3E0FAA3E0F98E8279
:10104B0075830012017DD3949F400C8E82758300B3
:10105B0074601201AA7F010E020F919000F7E0FB62
:10106B00A3E0FAA3E0F9A3E0FD9001097401F012EB
:10107B001177900101E004F0020F6E9000FBE0FB92
:10108B00A3E0FAA3E0F9900103E0FD0215ED900057
:10109B00F7EBF0A3EAF0A3E9F0AB059000FC120428
:1010AB00CA000000009000FBE0C39B04900102F01B
:1010BB00EB131313541FA3F0EB5407FF700D9001A8
:1010CB000104F0900103E014F08012EF14FF748020
:1010DB00A807088002C313D8FC900101F0E490012B
:1010EB0000F0900102E0FF900100E0C39F506E9072
:1010FB0000FCE0FCA3E0FDA3E0FEA3E0FF780112FF
:10110B0004719000FC1204BE900101E07009748020
:10111B00F0900103E004F09000F7E0FBA3E0FAA3EA
:10112B00E0F9900103E0F58275830012017DFF90D9
:10113B000101E0FB5F60179000FCE0FCA3E0FDA366
:10114B00E0FEA3E04401FFEC9000FC1204BEEBC3F5
:10115B0013900101F0900100E004F080859000FCF9
:10116B00E0FCA3E0FDA3E0FEA3E0FF22900105EB72
:10117B00F0A3EAF0A3E9F0120164FF900109E0FE8D
:10118B00C374089EFEEFA806088002C313D8FC9018
:10119B00010AF0900109E0FEEFA806088002C333B4
:1011AB00D8FC1201DD7F01EFC39D5072900105E069
:1011BB00FBA3E0FAA3E0F98F8275830012017DFE99
:1011CB00900109E0FCC374089CFCEEA804088002A3
:1011DB00C313D8FC90010BF0EF24FFF582E434FF2E
:1011EB00F583E92582F9EA3583FA120164FE900151
:1011FB000BE04E1201DD900105E0FBA3E0FAA3E04A
:10120B002FF9E43AFA120164FE900109E0FCEEA812
:10121B0004088002C333D8FC1201DD0F8089EF2450
:10122B00FFFFE434FFFE900105E0FBA3E0FAA3E02F
:10123B002FF9EA3EFA120164FF90010AE04F020116
:10124B00DD7B017A0079D99000E17402F0E4FF12A2
:10125B00197EE49000DCF09000DBF09000DBE0FF07
:10126B00C39406501CA3E0FEC006121C8D9000DB3D
:10127B00E02FFFC3D0E09FA3F09000DBE004F080F1
:10128B00DA9000D9E0FFB4670C9000DCE0FE900030
:10129B00DAE06E607BEF646670599000DCE0FF90E3
:1012AB0000DAE06F704D9000D97467F07B017A0023
:1012BB0079D99000E17402F0E4FF121811E4900068
:1012CB00DBF09000DBE0FFC394985044EF75F00225
:1012DB00A424C0FFE5F03426FE7B017A0079D99077
:1012EB0000E27402F012131CE4F5FF9000DBE00443
:1012FB00F080CF90002EE4740193FA740293F912EC
:10130B00059E121CF1C28E7F147E0012170180F70E
:10131B00229000DDEEF0A3EFF0A3EBF0A3EAF0A335
:10132B00E9F0A3E030E00204F09000DEE030E00AE8
:10133B0004F070069000DDE004F075A15575A1AACC
:10134B0043B108E4F5A19000E3F09000E2E0C31391
:10135B00FFA3E0FEC39F5076EE75F002A4FF900052
:10136B00DEE02FFF9000DDE035F0F5858F849000F7
:10137B00DFE0FBA3E0FAA3E0F99000E3E0FD75F0FA
:10138B0002A42401F582E435F0F58312017DFE9071
:10139B0000DFA3A375F002EDA4F58285F0831201A3
:1013AB007D7C002400FFEC3EF58F8F8EE58630E6CA
:1013BB000575869A80037F0022E5866440D39400EE
:1013CB0040037F00229000E3E004F002135575A167
:1013DB005575A1AA53B1F7E4F5A17F01227A0079E3
:1013EB00FD74017B01900102F0E4FF9000FEEFF031
:1013FB00A3EBF0A3EAF0A3E9F0E4900103F0900172
:10140B0002E0FFA3E0FEC39F400302149FE4F5FF3D
:10141B009000FEE07055A3E0FBA3E0FAA3E0F98E89
:10142B008275830012017DC4540FFFC3940A5006CA
:10143B0074302FFF800474572FFF121A4E9000FF49
:10144B00E0FBA3E0FAA3E0F9900103E0F5827583DA
:10145B000012017D540FFFC3940A500674302FFF06
:10146B00800474572FFF121A4E80209000FFE0FB70
:10147B00A3E0FAA3E0F9120164FF6018121A4E9070
:10148B000100E475F00112026680E0900103E004B4
:10149B00F0021409229000F7EBF0A3EAF0A3E9F0B5
:1014AB00ED24FFFFE434FFFEE92FF9EA3EFA1201C7
:1014BB0064FF9000FBE0FEEFA806088002C313D880
:1014CB00FC1201DDED24FEFFD3EF6480947F4077A7
:1014DB009000F7E0FBA3E0FAA3E0F9EFFD3395E012
:1014EB008D82F58312017DFE9000FBE0FDC3740835
:1014FB009DFDEEA805088002C333D8FCFEEFFD333B
:10150B0095E0FCED2401FDE43CFCE92DF9EA3CFA05
:10151B001201644E1201DD9000F7E0FBA3E0FAA389
:10152B00E0F9EFFD3395E0FCE92DF9EA3CFA120105
:10153B0064FD9000FBE0FCEDA804088002C313D807
:10154B00FC1201DD1F808122787FE4F6D8FD90002C
:10155B00007FFF7E03E4F0A3DFFCDEFA75818902D6
:10156B0015A8021BB1E493A3F8E493A34003F68000
:10157B0001F208DFF48029E493A3F85407240CC884
:10158B00C333C4540F4420C8834004F4568001462F
:10159B00F6DFE4800B0102040810204080901B2131
:1015AB00E47E019360BCA3FF543F30E509541FFE5A
:1015BB00E493A360010ECF54C025E060A840B8E4CB
:1015CB0093A3FAE493A3F8E493A3C8C582C8CAC54E
:1015DB0083CAF0A3C8C582C8CAC583CADFE9DEE7E0
:1015EB0080BE900105EBF0A3EAF0A3E9F0A3EDF0C8
:1015FB00E4A3F0900108E0FFC313FEA3E0C39E50E9
:10160B0079900105E0FBA3E0FAA3E0F9900109E072
:10161B00FEF58275830012017D90010AF0EF24FF25
:10162B00FDE434FFFCEEFFC3ED9FFFEC94008F82D3
:10163B00F58312017DFF900109E0F582758300EFC0
:10164B001201EF90010AE0FF900108E024FFFDE496
:10165B0034FFFCA3E0FBC3ED9BFDEC9400FC90017D
:10166B0005E0FBA3E0FAA3E0F98D828C83EF120176
:10167B00EF900109E004F00215FE22D2957F0A7E5D
:10168B0000121701C2957F0A7E00121701D2957FB7
:10169B000A7E00121701C2957F0A7E00121701D233
:1016AB00957F0A7E00121701C2957F0A7E001217E2
:1016BB0001D2957F0A7E00121701C2957F0A7E0028
:1016CB00121701D2957F0A7E00121701C2957F0A6D
:1016DB007E00121701D2957F0A7E00121701C29568
:1016EB007F0A7E00121701D2957F0A7E0012170126
:1016FB00C2957F0A7E00AD07AC06ED4C600FE4F59A
:10170B00FF7F64121C9CED1D70F01C80ED2290007D
:10171B00D9EBF0A3EAF0A3E9F09000D9E0FBA3E04A
:10172B00FAA3E0F9E41201DD9000D9E0FBA3E0FAA3
:10173B00A3E0F9900021E41201EF900027E41201DD
:10174B00EF900028E41201EF900029E41201EF90D2
:10175B00002AE41201EF900022E41201EF90002323
:10176B00E4F5F0120314900025E4F5F01203149045
:10177B0000DCE0FBA3E0FAA3E0F9C003C002C00168
:10178B009000D9E0FBA3E0FAA3E0F990002B12053F
:10179B0045229000F7EBF0A3EAF0A3E9F09000F7F5
:1017AB00E0FBA3E0FAA3E0F912016464017053902B
:1017BB0000FDE0FF700122EF54F070249000FDE07B
:1017CB00540FF0E0C3940A5006E02430F0800790E9
:1017DB0000FDE02457F09000FDE0FF121A4E80034D
:1017EB001213E89000F7E0FBA3E0FAA3E0F9E41290
:1017FB0001DD9000FAE0FBA3E0FAA3E0F97401022B
:10180B0001DD1213E8229000DEEBF0A3EAF0A3E96E
:10181B00F075A15575A1AA43B104E4F5A17585C076
:10182B00EF25E0FFE4FE9000E1E0FDEEC39D5037B5
:10183B00EE25E02FF5849000DEE0FBA3E0FAA3E0B9
:10184B00F98E8275830012017DF58EE58630E605F3
:10185B0075869A80037F0022E5866440D39400400E
:10186B00037F00220E80BF75A15575A1AA53B1FB52
:10187B00E4F5A17F0122EF702CEB7007EDF452928F
:10188B00529322EBB40106EDF452928014EBB402A6
:10189B0008ED4292EDF4529322EB64037036ED4265
:1018AB0092ED429322EF6401702AEB7007EDF45234
:1018BB0096529722EBB40106EDF452968013EBB4DB
:1018CB000208ED4296EDF4529722EBB40306ED427B
:1018DB0096ED429722900143E07032A3E070101214
:1018EB00001612124C121AC19001447401F022908E
:1018FB000144E0B401047402F022900144E064025C
:10190B00702590014304F0E4900145F022900143CF
:10191B00E0B40113900145E0700304F022900145FF
:10192B00E0B40103120D04227813E67811F6E6FFFA
:10193B006040540F18F66008E6901E7093F6800F07
:10194B007811E6FFC4540F901E7093240418F612FE
:10195B001CF17810E6901E8093781356F6121CB784
:10196B007810E624FE60051460058006021CCE127A
:10197B0018E0229000DEEBF0A3EAF0A3E9F0758506
:10198B00C0EF25E0FFE4FE9000E1E0FDEEC39D50CB
:10199B0029EE25E02FF58475868EE58630E1037FF1
:1019AB0000229000DEE0FBA3E0FAA3E0F98E827543
:1019BB008300E58E1201EF0E80CD7F0122C2EAE497
:1019CB00F5E275E50075E450E5EB54FE4404F5EBE8
:1019DB0075D41275ED0075EC0053EAF375DC0275E6
:1019EB00EF0075EE0AE5EA54EF4440F5EA75D212C2
:1019FB00E4F5E375D18075E22943D10175D8FF7504
:101A0B00E107D2EA22C0E0C083C082C0D075D0000B
:101A1B00C000758CD8758AF0781406E6D394014013
:101A2B000876007813E64404F6900142E06009144E
:101A3B00F0E0700490013AF0D000D0D0D082D08387
:101A4B00D0E032E4FEF5FFFDED901D8193B5070468
:101A5B007E0180050DEDB430EFEE6021E4900117AF
:101A6B00F0ED901D5193121B93900117E060FAE477
:101A7B00900117F0121B93900117E060FA22C0E05F
:101A8B00C083C082C0D075D000C000781406E6D3E6
:101A9B009401400876007813E64404F6900142E086
:101AAB00600914F0E0700490013AF0D000D0D0D06F
:101ABB0082D083D0E032E49000D9F01219C8D2AFB3
:101ACB00E4F5D3F5D5900117F0900129F07F647EF2
:101ADB00001217019000D9E0FF04F0EFD3940550EA
:101AEB0007900129E060E622229000DEEBF0A3EAEA
:101AFB00F0A3E9F0E4FF9000DDE0FEEFC39E50158C
:101B0B00A3E0FBA3E0FAA3E0F98F82758300ED124B
:101B1B0001EF0F80E1224401220000000048010D7B
:101B2B00000000000000000048012AFFFFFFFFFF3C
:101B3B00FFFFFF4801320123456789ABCDEF00A2C0
:101B4B00B09200A2B192013000062001037F032264
:101B5B002000063001037F02223000063001037F94
:101B6B0004227F0122C0E0C083C08230980EC2984D
:101B7B0090010CE599F09001427403F0309902C288
:101B8B0099D082D083D0E03290010FF0780A7C009C
:101B9B007D017B017A01790D7E007F0812013E7574
:101BAB00D30853D2FC22C2AF78127601121C461214
:101BBB00002A121CE0E47812F6D2AFE4F5FF1219FA
:101BCB003380F8120164B401159000FAE0FBA3E036
:101BDB00FAA3E0F912016470057F30121A4E227BD2
:101BEB00017A0179479000DD7401F0E4FD121AF4DB
:101BFB009001477496F022C28CC28D53C9EF538962
:101C0B00F0438901758CD8758AF0D2A9D28C2290B9
:101C1B0000DC74FFF0A3741BF0A3744AF07B007A12
:101C2B00007921021719900147E0600E14F0E07063
:101C3B00097405F07813E64408F622121C597F0547
:101C4B007E00121701121CD7121CAA021C7C75A154
:101C5B005575A1AAE5B954F84406F5B9E4F5A122E6
:101C6B007B017A0179469000DD7401F0E4FD021AE4
:101C7B00F475A15575A1AA43B101C2EFE4F5A1F525
:101C8B00FF22EF24FAFFE4343F8F82F583E493FFC6
:101C9B0022EF600AE4FE0EEEB412FB1F80F3221259
:101CAB001C02E490013AF0900142F0227812E660B7
:101CBB000616E67002D2AF2230C002C2C030C1029B
:101CCB00C2C132121C311200120200197B037D03B8
:101CDB007F01021881120006121CF7021CE9E49026
:101CEB000143F0A3F022C2AF78120622121BEA02C4
:101CFB001C6B0A6865782D646973702020202000A6
:101D0B000A636861722D6469737020202020003093
:101D1B003031313232333334343535363637373878
:101D2B003839392061616262636364646565666634
:101D3B0067676869676B6C6D6E6F707172737475C2
:101D4B00767778797A00282C34362D3738271E1F72
:101D5B0020212223242526332E2F30350405060778
:101D6B0008090A0B0C0D0E0F101112131415161770
:101D7B0018191A1B1C1D0A20272C2D2E2F3031321F
:101D8B00333435363738393B3D5B5D6061626364B4
:101D9B0065666768696A6B6C6D6E6F707172737470
:101DAB0075767778797A12011001000000083D41B1
:101DBB00072100000000000109023B00020100A006
:101DCB003209040000010301010009211101000186
:101DDB00223E000705810308000A090401000103E4
:101DEB0001020009211001000122340007058203C2
:101DFB0004000A05010906A101050719E029E715E9
:101E0B0000250175019508810295017508810195E1
:101E1B0003750105081901290391029505750191B7
:101E2B00019506750826FF00050719002991810009
:101E3B00C005010902A1010901A100050919012928
:101E4B000315002501750195038102750595018127
:101E5B000105010930093109381581257F75089570
:101E6B00038106C0C0000001000200010003000155
:0D1E7B000002000100FEFDFBF7EFDFBF7F5E
:00000001FF
