:1000000002122602001AE47813F62202164A439DD1
:1000100010322202002102185422320216C3C2CF2B
:100020003232320217AA323232322202001E002647
:06003000C00A00020026D8
:03003B0002002997
:030043000206644E
:03004B0002002789
:030053000218FD93
:03005B0002000E92
:0300630002002870
:10006B00020022E709F608DFFA8046E709F208DF0B
:10007B00FA803E88828C83E709F0A3DFFA8032E3B3
:10008B0009F608DFFA8078E309F208DFFA80708856
:10009B00828C83E309F0A3DFFA806489828A83E090
:1000AB00A3F608DFFA805889828A83E0A3F208DF7F
:1000BB00FA804C80D280FA80C680D4806980F2802E
:1000CB0033801080A680EA809A80A880DA80E28054
:1000DB00CA803389828A83ECFAE493A3C8C582C8A9
:1000EB00CCC583CCF0A3C8C582C8CCC583CCDFE913
:1000FB00DEE7800D89828A83E493A3F608DFF9ECAF
:10010B00FAA9F0EDFB2289828A83ECFAE0A3C8C539
:10011B0082C8CCC583CCF0A3C8C582C8CCC583CC60
:10012B00DFEADEE880DB89828A83E493A3F208DFCF
:10013B00F980CC88F0EF60010E4E60C388F0ED249F
:10014B0002B4040050B9F582EB2402B4040050AFA2
:10015B0023234582239000BE73BB010689828A83C9
:10016B00E0225002E722BBFE02E32289828A83E46B
:10017B009322BB010CE58229F582E5833AF583E0F6
:10018B00225006E92582F8E622BBFE06E92582F815
:10019B00E222E58229F582E5833AF583E49322BBDB
:1001AB00010FF8E58229F582E5833AF583E028F023
:1001BB00225009C58229F8E58226F622BBFE09C525
:1001CB008229F8E22582F222F8EA2583F583E99366
:1001DB002822BB010689828A83F0225002F722BBB8
:1001EB00FE01F322F8BB010DE58229F582E5833A86
:1001FB00F583E8F0225006E92582C8F622BBFE05FE
:10020B00E92582C8F222BC000BBE0029EF8DF084D9
:10021B00FFADF022E4CCF875F008EF2FFFEE33FEC4
:10022B00EC33FCEE9DEC984005FCEE9DFE0FD5F0FB
:10023B00E9E4CEFD22EDF8F5F0EE8420D21CFEAD04
:10024B00F075F008EF2FFFED33FD4007985006D502
:10025B00F0F222C398FD0FD5F0EA22C5F0F8A3E027
:10026B0028F0C5F0F8E582158270021583E038F0AE
:10027B0022A3F8E0C5F025F0F0E582158270021597
:10028B0083E0C838F0E822BB010A89828A83E0F553
:10029B00F0A3E022500687F009E71922BBFE07E323
:1002AB00F5F009E3192289828A83E493F5F074014E
:1002BB009322BB0110E58229F582E5833AF583E0B1
:1002CB00F5F0A3E0225009E92582F886F008E62232
:1002DB00BBFE0AE92582F8E2F5F008E222E5832A63
:1002EB00F583E993F5F0A3E99322BB010A89828A8E
:1002FB0083F0E5F0A3F0225006F709A7F01922BB13
:10030B00FE06F3E5F009F31922F8BB0111E582298A
:10031B00F582E5833AF583E8F0E5F0A3F022500986
:10032B00E92582C8F608A6F022BBFE09E92582C89A
:10033B00F2E5F008F222E88FF0A4CC8BF0A42CFCB1
:10034B00E98EF0A42CFC8AF0EDA42CFCEA8EF0A430
:10035B00CDA8F08BF0A42DCC3825F0FDE98FF0A4BF
:10036B002CCD35F0FCEB8EF0A4FEA9F0EB8FF0A4B6
:10037B00CFC5F02ECD39FEE43CFCEAA42DCE35F0F2
:10038B00FDE43CFC2275F008758200EF2FFFEE3385
:10039B00FECD33CDCC33CCC58233C5829BED9AECED
:1003AB0099E58298400CF582EE9BFEED9AFDEC9957
:1003BB00FC0FD5F0D6E4CEFBE4CDFAE4CCF9A88261
:1003CB0022B800C1B90059BA002DEC8BF084CFCE06
:1003DB00CDFCE5F0CBF97818EF2FFFEE33FEED33C4
:1003EB00FDEC33FCEB33FB10D703994004EB99FB8B
:1003FB000FD8E5E4F9FA227818EF2FFFEE33FEED74
:10040B0033FDEC33FCC933C910D7059BE99A400780
:10041B00EC9BFCE99AF90FD8E0E4C9FAE4CCFB2297
:10042B0075F010EF2FFFEE33FEED33FDCC33CCC860
:10043B0033C810D7079BEC9AE899400AED9BFDEC6B
:10044B009AFCE899F80FD5F0DAE4CDFBE4CCFAE4AA
:10045B00C8F922E8600FECC313FCED13FDEE13FE9D
:10046B00EF13FFD8F122E8600FEFC333FFEE33FE3B
:10047B00ED33FDEC33FCD8F122BB010789828A8373
:10048B000205B05005E9F80205A4BBFE05E9F80228
:10049B0005BC89828A830205C8BB010789828A83CE
:1004AB000204BE5005E9F80205D8BBFE05E9F802C7
:1004BB0005E422ECF0A3EDF0A3EEF0A3EFF022A8FD
:1004CB00828583F0D083D0821204E11204E11204FE
:1004DB00E11204E1E473E493A3C583C5F0C583C8BB
:1004EB00C582C8F0A3C583C5F0C583C8C582C82221
:1004FB00BB010789828A830204CA5005E9F8020509
:10050B00F0BBFE05E9F802060922BB010DE58229C5
:10051B00F582E5833AF5830206345007E92582F824
:10052B00020622BBFE07E92582F8020646E5822970
:10053B00F582E5833AF583020658BB0120E5822953
:10054B00F582E5833AF583D0F0D0E0F8D0E0F9D02E
:10055B00E0FAD0E0FBE8C0E0C0F002063D5018E93D
:10056B002582F8D083D082D0E0F9D0E0FAD0E0FB3E
:10057B00C082C08302062BBBFE18E92582F8D0830C
:10058B00D082D0E0F9D0E0FAD0E0FBC082C0830289
:10059B00064F228A838982E473E6FC08E6FD08E6AF
:1005AB00FE08E6FF22E0FCA3E0FDA3E0FEA3E0FFD4
:1005BB0022E2FC08E2FD08E2FE08E2FF22E493FCE3
:1005CB00740193FD740293FE740393FF22ECF608FF
:1005DB00EDF608EEF608EFF622ECF208EDF208EE77
:1005EB00F208EFF222D083D082E493F608740193E1
:1005FB00F608740293F608740393F6740473D083AD
:10060B00D082E493F208740193F208740293F20817
:10061B00740393F2740473E6FB08E6FA08E6F92216
:10062B00EBF608EAF608E9F622E0FBA3E0FAA3E012
:10063B00F922EBF0A3EAF0A3E9F022E2FB08E2FADD
:10064B0008E2F922EBF208EAF208E9F222E493FB62
:10065B00740193FA740293F922C0E0C0F0C083C016
:10066B0082C0D075D0089000F5E4F020D9030209C0
:10067B00D0E5D9543F70030209C524E07003020989
:10068B005414601924F16029240E60030209CE75FD
:10069B00D500E5D454FC4402F5D40209CE75D30041
:1006AB00E5D254FC4402F5D29000E27401F0020949
:1006BB00CE9000F5E5DBF0E06408600302092B90B7
:1006CB000006E09000E3F0900007E070099000E373
:1006DB00E0D3947F40069000E3747FF09000F5E444
:1006EB00F0900001E09000E4F0900000E0546060B6
:1006FB001A9000E4E01424FD400302093124FB248A
:10070B00FD4003020931800002092B9000E4E0B4A4
:10071B000B004003020929900729F82828730209C6
:10072B000C0208550209290208960209290208221F
:10073B0002074A02092902082D02084A02093190D0
:10074B000003E024FE601E24E060302421706B90D7
:10075B0000F174FFF0A37419F0A374EBF09000F5A3
:10076B007412F0805B9000F174FFF0A37419F0A386
:10077B0074FDF09000F5743BF08045900004E0FFB1
:10078B0070169000F174FFF0A3741AF0A37438F094
:10079B009000F5743EF08028EFB4011C9000F174CA
:1007AB00FFF0A3741AF0A37476F09000F57434F094
:1007BB009000F47401F0800880009000F574FFF055
:1007CB009000F5E0FF9000E3E0D39F4002EFF09044
:1007DB0000E3E0FFC3940840047F0880009000F51D
:1007EB00EFF07E0078007C007D019000F1E0FBA330
:1007FB00E0FAA3E0F912013E9000E3E0FF9000F570
:10080B00E0FEC3EF9E9000E3F0EEFF9000F2E48F6A
:10081B00F0120266020931900002E09000E3F00250
:10082B0009319000E0E0900000F09000E3E0C39409
:10083B000150030209319000F57401F00209319067
:10084B000002E09000E0F0020931900000E0541F3C
:10085B00FF6402702D900004E014601B2480600D77
:10086B00147019E5D454BC4402F5D48015E5D25468
:10087B00BC4402F5D2800B53D27380069000F57402
:10088B00FFF0EF700302093102092B900000E054D6
:10089B001FFD701B900003E0FE900002E0FBEB6479
:1008AB00014E7009901A049320E57B80738071EDE3
:1008BB006402704B900003E0FE900002E0FDED4EF1
:1008CB00703B900005E0FE900004E0FDEDFFEE7044
:1008DB002AEF24FE60112481601714701EE5D45496
:1008EB00BF4403F5D4803FE5D4547F440CF5D4804A
:1008FB0035E5D254BF4403F5D2802B802380218071
:10090B001F900000E4F0A3F09000E3E0FFC394021B
:10091B009000F540057402F0800CEFF08008800029
:10092B009000F574FFF09000F5E0FFB4FF0C900021
:10093B00E474FFF075DCCF0209CEEF6004F5DD80C7
:10094B000375DD0075DCC0807A9000E4E024FB6069
:10095B005314705E9000E3E0FFC3940840047F08DB
:10096B0080009000F5EFF07E0078007C007D019018
:10097B0000F1E0FBA3E0FAA3E0F912013E9000E3E3
:10098B00E0FF9000F5E0FEC3EF9E9000E3F0EEFF7A
:10099B009000F2E48FF01202669000F5E0F5DD6353
:1009AB00DC40801FE5E35480FF9000E3E04FF5E36C
:1009BB00800375DD0075DC0280099000F5E5DBF046
:1009CB0063DC80C2D930D81275DC0275D21075D4B5
:1009DB001275E300C2DAC2D9C2D830DA09C2DAE53D
:1009EB00DA30E205800375D8FFD0D0D082D083D027
:1009FB00F0D0E0329000FCEBF0A3EAF0A3E9F0902A
:100A0B00002B12051512059E9000FFEFF09000FCD5
:100A1B00E0FBA3E0FAA3E0F9120164FF6003020A12
:100A2B00E09000FFE0FE64026008EE6403600302E6
:100A3B000D03900029E41201EF90002AE41201EF5C
:100A4B0090002712017DFD7C00E92401F9E43AFABC
:100A5B00E92DF9EC3AFA12016425E01201DD900060
:100A6B00FFE0FEB40202802DEE9000FCB40335E0F3
:100A7B00FBA3E0FAA3E0F990002712017DFD7C00B7
:100A8B00E92401F9E43AFAE92DF9EC3AFA12016496
:100A9B0044011201DD9000FCE0FBA3E0FAA3E0F9B6
:100AAB007405800AE0FBA3E0FAA3E0F974061201D7
:100ABB00DD9000FCE0FBA3E0FAA3E0F990002874C2
:100ACB00011201AA90002812017DD3940750030252
:100ADB000D03020CBDEF640570489000FCE0FBA316
:100AEB00E0FAA3E0F990002974011201AA90002901
:100AFB0012017DD3947F400F9000FCE0FBA3E0FA42
:100B0B00A3E0F9740680189000FFE0640460030210
:100B1B000D039000FCE0FBA3E0FAA3E0F9740402E0
:100B2B0001DD9000FCE0FBA3E0FAA3E0F912016405
:100B3B00FF64046003020CD790002A041201AA90F0
:100B4B00002A12017DFED394FE5003020BF9900094
:100B5B00FCE0FBA3E0FAA3E0F974061201DD9000C0
:100B6B00FCE0FBA3E0FAA3E0F99000217401120171
:100B7B00EF90002712017D75F008A4FD900028125C
:100B8B00017D2D9000221201EF90002712017DFDB7
:100B9B007C00E92401F9E43AFAE92DF9EC3AFAC0C0
:100BAB0003C002C001120164FD9000FCE0FBA3E056
:100BBB00FAA3E0F990002812017DFCC374089CFC99
:100BCB00EDA804088002C333D8FCD001D002D003B7
:100BDB001201DD9000FCE0FBA3E0FAA3E0F990002A
:100BEB002912017DFD900023E48DF0020314900087
:100BFB00FFE0FD64026008ED64036003020D0390E7
:100C0B0000FCE0FBA3E0FAA3E0F9EEFD900025E485
:100C1B008DF0120314900029E41201EF90002AE4E6
:100C2B001201EF90002712017DFD7C00E92401F9F0
:100C3B00E43AFAE92DF9EC3AFA12016425E01201D3
:100C4B00DD9000FFE0FEB40202802DEE9000FCB4BC
:100C5B000335E0FBA3E0FAA3E0F990002712017D36
:100C6B00FD7C00E92401F9E43AFAE92DF9EC3AFAB2
:100C7B0012016444011201DD9000FCE0FBA3E0FAD9
:100C8B00A3E0F97405800AE0FBA3E0FAA3E0F97492
:100C9B00061201DD9000FCE0FBA3E0FAA3E0F99063
:100CAB00002874011201AA90002812017DD3940729
:100CBB0040469000FCE0FBA3E0FAA3E0F99000288B
:100CCB00E41201EF90002774010201AAEFB4062889
:100CDB009000FCE0FBA3E0FAA3E0F9E41201DD9045
:100CEB0000FCE0FBA3E0FAA3E0F9900027E412017B
:100CFB00EF900028E41201EF229000F87401F0A3AA
:100D0B00F0E49000F6F0A3F0C2A9E4F5FF7842E618
:100D1B00700AFB7A0079211209FF80EE9000F9E04E
:100D2B009000F8F09000F7E09000F6F07843E6546E
:100D3B00076402705E9000FA7402F09000FAE024EF
:100D4B0007FFE433FE7843E6FDC3EF9D7480F86E36
:100D5B0098503E7B007A007922E0FD240790010039
:100D6B00F0120E419000FBEFF09000FF7401F0A326
:100D7B007400F0A374F6F09000FBE0900102F07B9E
:100D8B00017A0079F81213D79000FAE02408F0806A
:100D9B00AA80757843E65407D39400401D7B007AF4
:100DAB00007922E6131313541F04FDE65407FFC307
:100DBB0074089F900100F01211739000FA7401F007
:100DCB009000FAE0C3784396503E7B007A0079227C
:100DDB00E0FD2407900100F0120E419000FBEFF0B4
:100DEB009000FF7401F0A37400F0A374F6F0900070
:100DFB00FBE0900102F07B017A0079F81213D79097
:100E0B0000FAE02408F080B89000FF7401F0A3749E
:100E1B0000F0A374F6F07B017A0079F91218087BC5
:100E2B00FF7A0079319001077401F0FF1210C9E4C9
:100E3B007842F6020D159000FCEBF0A3EAF0A3E963
:100E4B00F0AB059001011204CA00000000900100F4
:100E5B00E0C39B04900107F0EB131313541FA3F093
:100E6B00EB5407FF700D90010604F0900108E0149D
:100E7B00F08012EF14FF7480A807088002C313D808
:100E8B00FC900106F0E4900105F0900107E0FF9063
:100E9B000105E0C39F506E900101E0FCA3E0FDA3B0
:100EAB00E0FEA3E0FF78011204719001011204BE71
:100EBB00900106E070097480F0900108E004F09056
:100ECB0000FCE0FBA3E0FAA3E0F9900108E0F58257
:100EDB0075830012017DFF900106E0FB5F601790A8
:100EEB000101E0FCA3E0FDA3E0FEA3E04401FFEC65
:100EFB009001011204BEEBC313900106F0900105A3
:100F0B00E004F08085900101E0FCA3E0FDA3E0FE8E
:100F1B00A3E0FF227B017A0079F69000FE7402F0C9
:100F2B00E4FF1215B8E49000F9F09000F8F090008F
:100F3B00F8E0FFC39406501CA3E0FEC0061218C7CE
:100F4B009000F8E02FFFC3D0E09FA3F09000F8E0F3
:100F5B0004F080DA9000F6E0FFB4670C9000F9E043
:100F6B00FE9000F7E06E607BEF646670599000F9BD
:100F7B00E0FF9000F7E06F704D9000F67467F07B28
:100F8B00017A0079F69000FE7402F0E4FF12144B24
:100F9B00E49000F8F09000F8E0FFC394985044EF11
:100FAB0075F002A424C0FFE5F03426FE7B017A0025
:100FBB0079F69000FF7402F0120FEFE4F5FF90004A
:100FCB00F8E004F080CF90002EE4740193FA7402E1
:100FDB0093F912059E12192BC28E7F147E001213E9
:100FEB003B80F7229000FAEEF0A3EFF0A3EBF0A317
:100FFB00EAF0A3E9F0A3E030E00204F09000FBE09C
:10100B0030E00A04F070069000FAE004F075A15588
:10101B0075A1AA43B108E4F5A1900100F09000FF7F
:10102B00E0C313FFA3E0FEC39F5076EE75F002A45E
:10103B00FF9000FBE02FFF9000FAE035F0F5858F75
:10104B00849000FCE0FBA3E0FAA3E0F9900100E040
:10105B00FD75F002A42401F582E435F0F58312014D
:10106B007DFE9000FCA3A375F002EDA4F58285F044
:10107B008312017D7C002400FFEC3EF58F8F8EE503
:10108B008630E60575869A80037F0022E5866440EC
:10109B00D3940040037F0022900100E004F0021083
:1010AB002875A15575A1AA53B1F7E4F5A17F0122CB
:1010BB007A01790274017B01900107F0E4FF900142
:1010CB0003EFF0A3EBF0A3EAF0A3E9F0E49001083F
:1010DB00F0900107E0FFA3E0FEC39F4003021172F3
:1010EB00E4F5FF900103E07055A3E0FBA3E0FAA346
:1010FB00E0F98E8275830012017DC4540FFFC394F7
:10110B000A500674302FFF800474572FFF12168875
:10111B00900104E0FBA3E0FAA3E0F9900108E0F5ED
:10112B008275830012017D540FFFC3940A5006741D
:10113B00302FFF800474572FFF12168880209001E8
:10114B0004E0FBA3E0FAA3E0F9120164FF601812BC
:10115B001688900105E475F00112026680E090019B
:10116B0008E004F00210DC229000FCEBF0A3EAF0A4
:10117B00A3E9F0ED24FFFFE434FFFEE92FF9EA3E8B
:10118B00FA120164FF900100E0FEEFA8060880024E
:10119B00C313D8FC1201DDED24FEFFD3EF64809462
:1011AB007F40779000FCE0FBA3E0FAA3E0F9EFFDB2
:1011BB003395E08D82F58312017DFE900100E0FDF9
:1011CB00C374089DFDEEA805088002C333D8FCFE4E
:1011DB00EFFD3395E0FCED2401FDE43CFCE92DF93A
:1011EB00EA3CFA1201644E1201DD9000FCE0FBA315
:1011FB00E0FAA3E0F9EFFD3395E0FCE92DF9EA3CC9
:10120B00FA120164FD900100E0FCEDA804088002D5
:10121B00C313D8FC1201DD1F808122787FE4F6D83E
:10122B00FD9000007FFF7E03E4F0A3DFFCDEFA7588
:10123B00818902127B0217EBE493A3F8E493A3409A
:10124B0003F68001F208DFF48029E493A3F8540736
:10125B00240CC8C333C4540F4420C8834004F45631
:10126B00800146F6DFE4800B010204081020408069
:10127B0090175BE47E019360BCA3FF543F30E509FC
:10128B00541FFEE493A360010ECF54C025E060A869
:10129B0040B8E493A3FAE493A3F8E493A3C8C582FC
:1012AB00C8CAC583CAF0A3C8C582C8CAC583CADF6A
:1012BB00E9DEE780BED2957F0A7E0012133BC29512
:1012CB007F0A7E0012133BD2957F0A7E0012133BDE
:1012DB00C2957F0A7E0012133BD2957F0A7E0012C5
:1012EB00133BC2957F0A7E0012133BD2957F0A7E79
:1012FB000012133BC2957F0A7E0012133BD2957FDF
:10130B000A7E0012133BC2957F0A7E0012133BD25A
:10131B00957F0A7E0012133BC2957F0A7E00121343
:10132B003BD2957F0A7E0012133BC2957F0A7E004B
:10133B00AD07AC06ED4C600FE4F5FF7F641218D6D9
:10134B00ED1D70F01C80ED229000F6EBF0A3EAF09F
:10135B00A3E9F09000F6E0FBA3E0FAA3E0F9E412B6
:10136B0001DD9000F6E0FBA3E0FAA3E0F990002189
:10137B00E41201EF900027E41201EF900028E41231
:10138B0001EF900029E41201EF90002AE41201EF23
:10139B00900022E41201EF900023E4F5F012031405
:1013AB00900025E4F5F01203149000F9E0FBA3E0A4
:1013BB00FAA3E0F9C003C002C0019000F6E0FBA362
:1013CB00E0FAA3E0F990002B120545229000FCEB0C
:1013DB00F0A3EAF0A3E9F09000FCE0FBA3E0FAA392
:1013EB00E0F912016464017053900102E0FF700197
:1013FB0022EF54F07024900102E0540FF0E0C394FC
:10140B000A5006E02430F08007900102E02457F0E8
:10141B00900102E0FF12168880031210BB9000FCB3
:10142B00E0FBA3E0FAA3E0F9E41201DD9000FFE09A
:10143B00FBA3E0FAA3E0F974010201DD1210BB2259
:10144B009000FBEBF0A3EAF0A3E9F075A15575A1B1
:10145B00AA43B104E4F5A17585C0EF25E0FFE4FED6
:10146B009000FEE0FDEEC39D5037EE25E02FF58496
:10147B009000FBE0FBA3E0FAA3E0F98E82758300FA
:10148B0012017DF58EE58630E60575869A80037F21
:10149B000022E5866440D3940040037F00220E8037
:1014AB00BF75A15575A1AA53B1FBE4F5A17F01222C
:1014BB00EF702CEB7007EDF45292529322EBB401C8
:1014CB0006EDF452928014EBB40208ED4292EDF467
:1014DB00529322EB64037036ED4292ED429322EF6E
:1014EB006401702AEB7007EDF45296529722EBB41D
:1014FB000106EDF452968013EBB40208ED4296ED23
:10150B00F4529722EBB40306ED4296ED42972290EC
:10151B000123E07032A3E07010120016120F1F129D
:10152B0016FB9001247401F022900124E0B4010415
:10153B007402F022900124E06402702590012304D0
:10154B00F0E4900125F022900123E0B40113900107
:10155B0025E0700304F022900125E0B40103120D85
:10156B0004227813E67811F6E6FF6040540F18F664
:10157B006008E6901AAA93F6800F7811E6FFC45420
:10158B000F901AAA93240418F612192B7810E690D0
:10159B001ABA93781356F61218F17810E624FE60F7
:1015AB0005146005800602190812151A229000FB1B
:1015BB00EBF0A3EAF0A3E9F07585C0EF25E0FFE4BB
:1015CB00FE9000FEE0FDEEC39D5029EE25E02FF5C9
:1015DB008475868EE58630E1037F00229000FBE068
:1015EB00FBA3E0FAA3E0F98E82758300E58E12016E
:1015FB00EF0E80CD7F0122C2EAE4F5E275E50075BE
:10160B00E450E5EB54FE4404F5EB75D41275ED0094
:10161B0075EC0053EAF375DC0275EF0075EE0AE525
:10162B00EA54EF4440F5EA75D212E4F5E375D18044
:10163B0075E22943D10175D8FF75E107D2EA22C0C3
:10164B00E0C083C082C0D075D000C000758CD87547
:10165B008AF0781406E6D39401400876007813E6F6
:10166B004404F6900122E0600914F0E0700490014C
:10167B001AF0D000D0D0D082D083D0E032E4FEF587
:10168B00FFFDED9019BB93B507047E0180050DEDB1
:10169B00B430EFEE6021E49000E2F0ED90198B9303
:1016AB001217CD9000E2E060FAE49000E2F012171E
:1016BB00CD9000E2E060FA22C0E0C083C082C0D0CF
:1016CB0075D000C000781406E6D39401400876006C
:1016DB007813E64404F6900122E0600914F0E07000
:1016EB000490011AF0D000D0D0D082D083D0E03259
:1016FB00E49000F6F0121602D2AFE4F5D3F5D590D4
:10170B0000E2F09000F4F07F647E0012133B900037
:10171B00F6E0FF04F0EFD3940550079000F4E0607F
:10172B00E622229000FBEBF0A3EAF0A3E9F0E4FF42
:10173B009000FAE0FEEFC39E5015A3E0FBA3E0FA86
:10174B00A3E0F98F82758300ED1201EF0F80E12288
:10175B004400ED000000004800D80000000000002D
:10176B00000048010AFFFFFFFFFFFFFFFF480112C8
:10177B000123456789ABCDEF00A2B09200A2B192D5
:10178B00013000062001037F0322200006300103F5
:10179B007F02223000063001037F04227F0122C02A
:1017AB00E0C083C08230980EC298900109E599F091
:1017BB009001227403F0309902C299D082D083D069
:1017CB00E0329000DAF0780A7C007D017B017A0030
:1017DB0079D87E007F0812013E75D30853D2FC22C4
:1017EB00C2AF7812760112188012002A12191AE46D
:1017FB007812F6D2AFE4F5FF12156D80F812016482
:10180B00B401159000FFE0FBA3E0FAA3E0F912018D
:10181B006470057F30121688227B017A017927903C
:10182B0000FA7401F0E4FD12172E9001277496F064
:10183B0022C28CC28D53C9EF5389F0438901758C39
:10184B00D8758AF0D2A9D28C229000F974FFF0A33C
:10185B007417F0A37484F07B007A00792102135380
:10186B00900127E0600E14F0E070097405F0781316
:10187B00E64408F6221218937F057E0012133B12E2
:10188B0019111218E40218B675A15575A1AAE5B97C
:10189B0054F84406F5B9E4F5A1227B017A017926C7
:1018AB009000FA7401F0E4FD02172E75A15575A195
:1018BB00AA43B101C2EFE4F5A1F5FF22EF24FAFF31
:1018CB00E4343F8F82F583E493FF22EF600AE4FE5A
:1018DB000EEEB412FB1F80F32212183CE490011A97
:1018EB00F0900122F0227812E6600616E67002D222
:1018FB00AF2230C002C2C030C102C2C13212186B5B
:10190B001200120200197B037D037F010214BB122C
:10191B000006121931021923E4900123F0A3F022DF
:10192B00C2AF781206221218240218A50A6865782D
:10193B002D6469737020202020000A636861722D6A
:10194B006469737020202020003030313132323303
:10195B0033343435353636373738383939206161D9
:10196B006262636364646565666667676869676B13
:10197B006C6D6E6F707172737475767778797A009F
:10198B00282C34362D3738271E1F202122232425BF
:10199B0026332E2F30350405060708090A0B0C0DCC
:1019AB000E0F101112131415161718191A1B1C1DD4
:1019BB000A20272C2D2E2F30313233343536373841
:1019CB00393B3D5B5D606162636465666768696A4C
:1019DB006B6C6D6E6F707172737475767778797AD4
:1019EB0012011001000000083D410721000000001A
:1019FB00000109023B00020100A0320904000001B2
:101A0B0003010100092111010001223E000705819C
:101A1B000308000A09040100010301020009211057
:101A2B000100012234000705820304000A050109A5
:101A3B0006A101050719E029E71500250175019598
:101A4B000881029501750881019503750105081937
:101A5B0001290391029505750191019506750826DB
:101A6B00FF000507190029918100C005010902A19A
:101A7B00010901A1000509190129031500250175AB
:101A8B000195038102750595018101050109300955
:101A9B003109381581257F750895038106C0C00073
:101AAB00000100020001000300010002000100FE22
:071ABB00FDFBF7EFDFBF7F29
:00000001FF
