:1000000002142902001AE47813F622021902439D11
:10001000103222020021021AA62232021940C2CF57
:10002000323232021A19323232322202001E0026D5
:01003000C00F
:03003300020026A2
:03003B0002002997
:030043000206644E
:03004B0002002789
:03005300021B4F3E
:03005B0002000E92
:0300630002002870
:10006B00020022E709F608DFFA8046E709F208DF0B
:10007B00FA803E88828C83E709F0A3DFFA8032E3B3
:10008B0009F608DFFA8078E309F208DFFA80708856
:10009B00828C83E309F0A3DFFA806489828A83E090
:1000AB00A3F608DFFA805889828A83E0A3F208DF7F
:1000BB00FA804C80D280FA80C680D4806980F2802E
:1000CB0033801080A680EA809A80A880DA80E28054
:1000DB00CA803389828A83ECFAE493A3C8C582C8A9
:1000EB00CCC583CCF0A3C8C582C8CCC583CCDFE913
:1000FB00DEE7800D89828A83E493A3F608DFF9ECAF
:10010B00FAA9F0EDFB2289828A83ECFAE0A3C8C539
:10011B0082C8CCC583CCF0A3C8C582C8CCC583CC60
:10012B00DFEADEE880DB89828A83E493A3F208DFCF
:10013B00F980CC88F0EF60010E4E60C388F0ED249F
:10014B0002B4040050B9F582EB2402B4040050AFA2
:10015B0023234582239000BE73BB010689828A83C9
:10016B00E0225002E722BBFE02E32289828A83E46B
:10017B009322BB010CE58229F582E5833AF583E0F6
:10018B00225006E92582F8E622BBFE06E92582F815
:10019B00E222E58229F582E5833AF583E49322BBDB
:1001AB00010FF8E58229F582E5833AF583E028F023
:1001BB00225009C58229F8E58226F622BBFE09C525
:1001CB008229F8E22582F222F8EA2583F583E99366
:1001DB002822BB010689828A83F0225002F722BBB8
:1001EB00FE01F322F8BB010DE58229F582E5833A86
:1001FB00F583E8F0225006E92582C8F622BBFE05FE
:10020B00E92582C8F222BC000BBE0029EF8DF084D9
:10021B00FFADF022E4CCF875F008EF2FFFEE33FEC4
:10022B00EC33FCEE9DEC984005FCEE9DFE0FD5F0FB
:10023B00E9E4CEFD22EDF8F5F0EE8420D21CFEAD04
:10024B00F075F008EF2FFFED33FD4007985006D502
:10025B00F0F222C398FD0FD5F0EA22C5F0F8A3E027
:10026B0028F0C5F0F8E582158270021583E038F0AE
:10027B0022A3F8E0C5F025F0F0E582158270021597
:10028B0083E0C838F0E822BB010A89828A83E0F553
:10029B00F0A3E022500687F009E71922BBFE07E323
:1002AB00F5F009E3192289828A83E493F5F074014E
:1002BB009322BB0110E58229F582E5833AF583E0B1
:1002CB00F5F0A3E0225009E92582F886F008E62232
:1002DB00BBFE0AE92582F8E2F5F008E222E5832A63
:1002EB00F583E993F5F0A3E99322BB010A89828A8E
:1002FB0083F0E5F0A3F0225006F709A7F01922BB13
:10030B00FE06F3E5F009F31922F8BB0111E582298A
:10031B00F582E5833AF583E8F0E5F0A3F022500986
:10032B00E92582C8F608A6F022BBFE09E92582C89A
:10033B00F2E5F008F222E88FF0A4CC8BF0A42CFCB1
:10034B00E98EF0A42CFC8AF0EDA42CFCEA8EF0A430
:10035B00CDA8F08BF0A42DCC3825F0FDE98FF0A4BF
:10036B002CCD35F0FCEB8EF0A4FEA9F0EB8FF0A4B6
:10037B00CFC5F02ECD39FEE43CFCEAA42DCE35F0F2
:10038B00FDE43CFC2275F008758200EF2FFFEE3385
:10039B00FECD33CDCC33CCC58233C5829BED9AECED
:1003AB0099E58298400CF582EE9BFEED9AFDEC9957
:1003BB00FC0FD5F0D6E4CEFBE4CDFAE4CCF9A88261
:1003CB0022B800C1B90059BA002DEC8BF084CFCE06
:1003DB00CDFCE5F0CBF97818EF2FFFEE33FEED33C4
:1003EB00FDEC33FCEB33FB10D703994004EB99FB8B
:1003FB000FD8E5E4F9FA227818EF2FFFEE33FEED74
:10040B0033FDEC33FCC933C910D7059BE99A400780
:10041B00EC9BFCE99AF90FD8E0E4C9FAE4CCFB2297
:10042B0075F010EF2FFFEE33FEED33FDCC33CCC860
:10043B0033C810D7079BEC9AE899400AED9BFDEC6B
:10044B009AFCE899F80FD5F0DAE4CDFBE4CCFAE4AA
:10045B00C8F922E8600FECC313FCED13FDEE13FE9D
:10046B00EF13FFD8F122E8600FEFC333FFEE33FE3B
:10047B00ED33FDEC33FCD8F122BB010789828A8373
:10048B000205B05005E9F80205A4BBFE05E9F80228
:10049B0005BC89828A830205C8BB010789828A83CE
:1004AB000204BE5005E9F80205D8BBFE05E9F802C7
:1004BB0005E422ECF0A3EDF0A3EEF0A3EFF022A8FD
:1004CB00828583F0D083D0821204E11204E11204FE
:1004DB00E11204E1E473E493A3C583C5F0C583C8BB
:1004EB00C582C8F0A3C583C5F0C583C8C582C82221
:1004FB00BB010789828A830204CA5005E9F8020509
:10050B00F0BBFE05E9F802060922BB010DE58229C5
:10051B00F582E5833AF5830206345007E92582F824
:10052B00020622BBFE07E92582F8020646E5822970
:10053B00F582E5833AF583020658BB0120E5822953
:10054B00F582E5833AF583D0F0D0E0F8D0E0F9D02E
:10055B00E0FAD0E0FBE8C0E0C0F002063D5018E93D
:10056B002582F8D083D082D0E0F9D0E0FAD0E0FB3E
:10057B00C082C08302062BBBFE18E92582F8D0830C
:10058B00D082D0E0F9D0E0FAD0E0FBC082C0830289
:10059B00064F228A838982E473E6FC08E6FD08E6AF
:1005AB00FE08E6FF22E0FCA3E0FDA3E0FEA3E0FFD4
:1005BB0022E2FC08E2FD08E2FE08E2FF22E493FCE3
:1005CB00740193FD740293FE740393FF22ECF608FF
:1005DB00EDF608EEF608EFF622ECF208EDF208EE77
:1005EB00F208EFF222D083D082E493F608740193E1
:1005FB00F608740293F608740393F6740473D083AD
:10060B00D082E493F208740193F208740293F20817
:10061B00740393F2740473E6FB08E6FA08E6F92216
:10062B00EBF608EAF608E9F622E0FBA3E0FAA3E012
:10063B00F922EBF0A3EAF0A3E9F022E2FB08E2FADD
:10064B0008E2F922EBF208EAF208E9F222E493FB62
:10065B00740193FA740293F922C0E0C0F0C083C016
:10066B0082C0D075D00820D9030209E9E5D9543FDF
:10067B0070030209DB24FE603824E2700302096A6E
:10068B0024FE601924F26034240F60030209E7751D
:10069B00D300E5D254FC4402F5D20209E79001D411
:1006AB007401F075D500E5D454FC4402F5D402096D
:1006BB00E71216D69000CFEFF00209E79000CEE5D7
:1006CB00DBF0E06408600302093E900006E0900155
:1006DB00D0F0900007E070099001D0E0D3947F40F8
:1006EB00069001D0747FF09000CEE4F0900001E012
:1006FB009001D1F0900000E05460606D9001D1E06A
:10070B0024C060362480703A9001D5E0FF24C2F9F2
:10071B00E4341BFA9001DE74FFF0A3EAF0A3E9F0D6
:10072B009000CE7402F0EFC394189001D55006E000
:10073B002402F080137418F0800E9000CE7409F030
:10074B0080069000CE74FFF09000CEE0FF9001D0B9
:10075B00E0D39F4002EFF09001D0E0FFC39408403C
:10076B00057F080208020208029001D1E0B40B00D9
:10077B00400302093C900787F828287302091F02DF
:10078B00087102093C0208A902093C02083C020755
:10079B00A802093C020847020860020944900003C2
:1007AB00E024FE601904702C9001DE74FFF0A3743A
:1007BB001BF0A37489F09000CE7412F0801C900192
:1007CB00DE74FFF0A3741BF0A3749BF09000CE7447
:1007DB0027F080069000CE74FFF09000CEE0FF90E3
:1007EB0001D0E0D39F4002EFF09001D0E0FFC39423
:1007FB000840047F0880009000CEEFF07E00780068
:10080B007C007D019001DEE0FBA3E0FAA3E0F9128E
:10081B00013E9001D0E0FF9000CEE0FEC3EF9E9032
:10082B0001D0F0EEFF9001DFE48FF01202660209B7
:10083B0044900002E09001D0F0020944900188E05E
:10084B00900000F09001D0E0C394015003020944E2
:10085B009000CE800B900002E0900188F09001E1B7
:10086B007401F0020944900000E0541F6402702BE5
:10087B00900004E024FE601D2481600E147041E59D
:10088B00D454BC4402F5D4020944E5D254BC44020E
:10089B00F5D202094453D47302094402093E900075
:1008AB0000E0541FFD701B900003E0FE900002E07F
:1008BB00FBEB64014E7009901BA29320E57B8073C8
:1008CB008071ED6402704B900003E0FE900002E03B
:1008DB00FDED4E703B900005E0FE900004E0FDED59
:1008EB00FFEE702AEF24FE60112481601714701E36
:1008FB00E5D454BF4403F5D4803FE5D4547F440C76
:10090B00F5D48035E5D254BF4403F5D2802B802338
:10091B008021801F900000E4F0A3F09001D0E0FF55
:10092B00C394029000CE40057402F0800CEFF0806F
:10093B000880009000CE74FFF09000CEE0FFB4FF73
:10094B000C9001D174FFF075DCCF0209E7EFD39463
:10095B000850048FDD800375DD0075DCC0807D9051
:10096B0001D1E024FB605314705E9001D0E0FFC313
:10097B00940840047F0880009000CEEFF07E007852
:10098B00007C007D019001DEE0FBA3E0FAA3E0F91F
:10099B0012013E9001D0E0FF9000CEE0FEC3EF9E2F
:1009AB009001D0F0EEFF9001DFE48FF01202669021
:1009BB0000CEE0F5DD63DC408022E5E35480FF9060
:1009CB0001D0E04FF5E3800375DD0075DC02800C90
:1009DB009000CEE5DBF075DD0075DC00C2D930D8B8
:1009EB001275DC0275D21075D41275E300C2DAC22F
:1009FB00D9C2D830DA04C2DA800375D8FFD0D0D090
:100A0B0082D083D0F0D0E0329000D4EBF0A3EAF0A8
:100A1B00A3E9F090002B12051512059E9000D7EF5D
:100A2B00F09000D4E0FBA3E0FAA3E0F9120164FF1D
:100A3B006003020AF49000D7E0FE64026008EE64E3
:100A4B00036003020D17900029E41201EF90002AB6
:100A5B00E41201EF90002712017DFD7C00E92401D7
:100A6B00F9E43AFAE92DF9EC3AFA12016425E012AD
:100A7B0001DD9000D7E0FEB40202802DEE9000D491
:100A8B00B40335E0FBA3E0FAA3E0F99000271201D1
:100A9B007DFD7C00E92401F9E43AFAE92DF9EC3A01
:100AAB00FA12016444011201DD9000D4E0FBA3E0D3
:100ABB00FAA3E0F97405800AE0FBA3E0FAA3E0F9DE
:100ACB0074061201DD9000D4E0FBA3E0FAA3E0F979
:100ADB0090002874011201AA90002812017DD39472
:100AEB00075003020D17020CD1EF640570489000FC
:100AFB00D4E0FBA3E0FAA3E0F99000297401120102
:100B0B00AA90002912017DD3947F400F9000D4E06E
:100B1B00FBA3E0FAA3E0F9740680189000D7E06419
:100B2B00046003020D179000D4E0FBA3E0FAA3E0EE
:100B3B00F974040201DD9000D4E0FBA3E0FAA3E01A
:100B4B00F9120164FF64046003020CEB90002A04A9
:100B5B001201AA90002A12017DFED394FE500302CB
:100B6B000C0D9000D4E0FBA3E0FAA3E0F97406129D
:100B7B0001DD9000D4E0FBA3E0FAA3E0F9900021A3
:100B8B0074011201EF90002712017D75F008A4FD8E
:100B9B0090002812017D2D9000221201EF9000276A
:100BAB0012017DFD7C00E92401F9E43AFAE92DF903
:100BBB00EC3AFAC003C002C001120164FD9000D4EC
:100BCB00E0FBA3E0FAA3E0F990002812017DFCC33F
:100BDB0074089CFCEDA804088002C333D8FCD00138
:100BEB00D002D0031201DD9000D4E0FBA3E0FAA306
:100BFB00E0F990002912017DFD900023E48DF002B5
:100C0B0003149000D7E0FD64026008ED64036003F9
:100C1B00020D179000D4E0FBA3E0FAA3E0F9EEFD80
:100C2B00900025E48DF0120314900029E41201EFDB
:100C3B0090002AE41201EF90002712017DFD7C0049
:100C4B00E92401F9E43AFAE92DF9EC3AFA120164D4
:100C5B0025E01201DD9000D7E0FEB40202802DEEFC
:100C6B009000D4B40335E0FBA3E0FAA3E0F99000C5
:100C7B002712017DFD7C00E92401F9E43AFAE92D04
:100C8B00F9EC3AFA12016444011201DD9000D4E050
:100C9B00FBA3E0FAA3E0F97405800AE0FBA3E0FAFA
:100CAB00A3E0F974061201DD9000D4E0FBA3E0FA97
:100CBB00A3E0F990002874011201AA9000281201F8
:100CCB007DD3940740469000D4E0FBA3E0FAA3E069
:100CDB00F9900028E41201EF90002774010201AA99
:100CEB00EFB406289000D4E0FBA3E0FAA3E0F9E40C
:100CFB001201DD9000D4E0FBA3E0FAA3E0F9900031
:100D0B0027E41201EF900028E41201EF229000D6A5
:100D1B00EBF0A3EAF0A3E9F0AD07A3E06003020E4A
:100D2B0021ED24FEFBE434FFFAEBAE027803CEC3D5
:100D3B0013CE13D8F99000DAF0EAC313EB13FCA32C
:100D4B007480F0E49000DEF09000DCF09000DCE0CA
:100D5B00FFC39C5042EF131313541FA3F09000D604
:100D6B00E0FBA3E0FAA3E0F99000DDE0F5827583E8
:100D7B000012017DFF9000DBE0FE5F60069000DE5D
:100D8B00E004F0EEC3139000DBF070037480F0907E
:100D9B0000DCE004F080B59000DEE05401F0900040
:100DAB00DB7401F0E49000DFF09000DCF09000DCED
:100DBB00E0FFC39C504DEF131313541FFFA3F09090
:100DCB0000DAE014C39F9000DDF09000D6E0FBA3A7
:100DDB00E0FAA3E0F99000DDE0F5827583001201E3
:100DEB007DFF9000DBE0FE5F60069000DFE004F02B
:100DFB00EE25E09000DBF0700204F09000DCE004E4
:100E0B00F080AA9000DFE030E004E4F08014900062
:100E1B00DF7401F0800CAF05EF131313541F900018
:100E2B00DAF0121B7D9000D9E070089000DEE0FF35
:100E3B00121A40E49000DCF09000DAE0FF9000DC46
:100E4B00E0C39F50449000DB7480F0E49000DDF031
:100E5B009000D6E0FBA3E0FAA3E0F99000DCE0F50C
:100E6B008275830012017D9000DB121A3C9000DB2F
:100E7B00E0FFC313F09000DDE004F0E0C394084002
:100E8B00CF9000DCE004F080AF9000D9E0700890C8
:100E9B0000DFE0FF121A40021B439000D4EBF0A3DB
:100EAB00EAF0A3E9F0A3EDF0E0FB24FFFEE434FF4E
:100EBB00A3F0A3CEF0EB75F002A424FFFEE5F03413
:100ECB00FFA3F0A3CEF09000D8E0FEA3E0FFC3EEAB
:100EDB0064809480405D9000D4E0FBA3E0FAA3E033
:100EEB00F98F828E8312017D540FFF9000DA74FF0D
:100EFB00F5F012027C85F082F583EF1201EF900082
:100F0B00D8E0FEA3E0F5828E8312017DC4540FFF5F
:100F1B009000DA74FFF5F012027C85F082F583EF16
:100F2B001201EF9000D9E024FFF09000D8E034FFDD
:100F3B00F08093E49000D8F0A3F09000D7E075F028
:100F4B0002A4FFA3E0FCA3E0FDC39FE5F06480F8DF
:100F5B00EC64809850779000D4E0FBA3E0FAA3E018
:100F6B00F98D828C8312017DFFD394095010900070
:100F7B00D8A3E0F5828C8374301201AA803EEFD3A4
:100F8B00940F50319000D8E0FEA3E0FFF5828E83E2
:100F9B0012017DC3940A401D9000D4E0FBA3E0FA3C
:100FAB00A3E0F98F828E8312017D24378F828E838B
:100FBB001201EF80079000D8A3E0FF229000D9E048
:100FCB0004F070069000D8E004F0020F459000D7B3
:100FDB00E025E0FF22C2A9E4F5FF7842E670159008
:100FEB0001D3E0B4AA031219A57B007A0079211270
:100FFB000A1380E37843E65407640270589000D2DA
:10100B00F09000D17402F09000D1E02407FFE4339C
:10101B00FE7843E6FDC3EF9D7480F86E9850347BE9
:10102B00007A007922E0FD24079000D8F01210FC22
:10103B009000D3EFF0E0FF9000D2E02489F582E43A
:10104B003401F583EFF09000D1E02408F0A3E00425
:10105B00F080B4806F7843E65407D39400401D7B37
:10106B00007A007922E6131313541F04FDE654078C
:10107B00FFC374089F9000D8F0121376E49000D24F
:10108B00F09000D104F09000D1E0C3784396503437
:10109B007B007A007922E0FD24079000D8F0121033
:1010AB00FC9000D3EFF0E0FF9000D2E02489F582B2
:1010BB00E43401F583EFF09000D1E02408F0A3E0D5
:1010CB0004F080C29000D2E09001CFF07B017A0156
:1010DB0079899001CFE0FD120EA59001CFE025E0BC
:1010EB00F09001D474AAF0121556E47842F6020F70
:1010FB00E29000D4EBF0A3EAF0A3E9F0AB0590008B
:10110B00D91204CA000000009000D8E0C39B0490E1
:10111B0000DFF0EB131313541FA3F0EB5407FF7016
:10112B000D9000DE04F09000E0E014F08012EF145C
:10113B00FF7480A807088002C313D8FC9000DEF070
:10114B00E49000DDF09000DFE0FF9000DDE0C39F56
:10115B00506E9000D9E0FCA3E0FDA3E0FEA3E0FFFE
:10116B0078011204719000D91204BE9000DEE07079
:10117B00097480F09000E0E004F09000D4E0FBA351
:10118B00E0FAA3E0F99000E0E0F58275830012012C
:10119B007DFF9000DEE0FB5F60179000D9E0FCA3C1
:1011AB00E0FDA3E0FEA3E04401FFEC9000D91204A4
:1011BB00BEEBC3139000DEF09000DDE004F0808501
:1011CB009000D9E0FCA3E0FDA3E0FEA3E0FF227BAF
:1011DB00017A0079D19000D97402F0E4FF1218382B
:1011EB00E49000D4F09000D3F09000D3E0FFC394D0
:1011FB0006501CA3E0FEC006121B199000D3E02F73
:10120B00FFC3D0E09FA3F09000D3E004F080DA900E
:10121B0000D1E0FFB4670C9000D4E0FE9000D2E068
:10122B006E607BEF646670599000D4E0FF9000D243
:10123B00E06F704D9000D17467F07B017A0079D12B
:10124B009000D97402F0E4FF121666E49000D3F01C
:10125B009000D3E0FFC394985044EF75F002A424A0
:10126B00C0FFE5F03426FE7B017A0079D19000DADD
:10127B007402F01212AAE4F5FF9000D3E004F080A0
:10128B00CF90002EE4740193FA740293F912059E29
:10129B00121B7DC28E7F147E0012153E80F72290AA
:1012AB0000D5EEF0A3EFF0A3EBF0A3EAF0A3E9F087
:1012BB00A3E030E00204F09000D6E030E00A04F046
:1012CB0070069000D5E004F075A15575A1AA43B145
:1012DB0008E4F5A19000DBF09000DAE0C313FFA364
:1012EB00E0FEC39F5076EE75F002A4FF9000D6E0AF
:1012FB002FFF9000D5E035F0F5858F849000D7E077
:10130B00FBA3E0FAA3E0F99000DBE0FD75F002A48B
:10131B002401F582E435F0F58312017DFE9000D7B0
:10132B00A3A375F002EDA4F58285F08312017D7CF9
:10133B00002400FFEC3EF58F8F8EE58630E60575B9
:10134B00869A80037F0022E5866440D39400400395
:10135B007F00229000DBE004F00212E375A15575CB
:10136B00A1AA53B1F7E4F5A17F01229000D4EBF0D1
:10137B00A3EAF0A3E9F0ED24FFFFE434FFFEE92F2D
:10138B00F9EA3EFA120164FF9000D8E0FEEFA806DE
:10139B00088002C313D8FC1201DDED24FEFFD3EF4E
:1013AB006480947F40779000D4E0FBA3E0FAA3E045
:1013BB00F9EFFD3395E08D82F58312017DFE9000F0
:1013CB00D8E0FDC374089DFDEEA805088002C33369
:1013DB00D8FCFEEFFD3395E0FCED2401FDE43CFC75
:1013EB00E92DF9EA3CFA1201644E1201DD9000D4AA
:1013FB00E0FBA3E0FAA3E0F9EFFD3395E0FCE92D68
:10140B00F9EA3CFA120164FD9000D8E0FCEDA80467
:10141B00088002C313D8FC1201DD1F808122787F64
:10142B00E4F6D8FD9000007FFF7E03E4F0A3DFFC21
:10143B00DEFA75818902147E021A59E493A3F8E44B
:10144B0093A34003F68001F208DFF48029E493A311
:10145B00F85407240CC8C333C4540F4420C883402A
:10146B0004F456800146F6DFE4800B0102040810F9
:10147B002040809019F6E47E019360BCA3FF543F9B
:10148B0030E509541FFEE493A360010ECF54C02531
:10149B00E060A840B8E493A3FAE493A3F8E493A321
:1014AB00C8C582C8CAC583CAF0A3C8C582C8CAC585
:1014BB0083CADFE9DEE780BED2957F0A7E00121574
:1014CB003EC2957F0A7E0012153ED2957F0A7E00A2
:1014DB0012153EC2957F0A7E0012153ED2957F0AE9
:1014EB007E0012153EC2957F0A7E0012153ED295E4
:1014FB007F0A7E0012153EC2957F0A7E0012153EB2
:10150B00D2957F0A7E0012153EC2957F0A7E00128D
:10151B00153ED2957F0A7E0012153EC2957F0A7E3C
:10152B000012153ED2957F0A7E0012153EC2957FA2
:10153B000A7E00AD07AC06ED4C600FE4F5FF7F644F
:10154B00121B28ED1D70F01C80ED229000D674014B
:10155B00F0A37401F0A37489F09001D4E0C394AAB2
:10156B0040729001CFE0944640037FFF229001CF61
:10157B00E0FF6057C394209000D440057420F080A6
:10158B0002EFF09000D4E0FEC3EF9E9001CFF0EE9F
:10159B00FF7E0078487C007D019000D6E0FBA3E045
:1015AB00FAA3E0F912013E9000D4E0F5D553D4FC38
:1015BB00E49001D4F09001D4E060FA9000D4E0FF05
:1015CB009000D7E48FF012026680A2E49001D4F071
:1015DB009001CFF07F00229000D1EBF0A3EAF0A3B3
:1015EB00E9F09000D1E0FBA3E0FAA3E0F9E41201EB
:1015FB00DD9000D1E0FBA3E0FAA3E0F9900021E439
:10160B001201EF900027E41201EF900028E4120181
:10161B00EF900029E41201EF90002AE41201EF9001
:10162B000022E41201EF900023E4F5F01203149072
:10163B000025E4F5F01203149000D4E0FBA3E0FACC
:10164B00A3E0F9C003C002C0019000D1E0FBA3E00E
:10165B00FAA3E0F990002B120545229000D6EBF08F
:10166B00A3EAF0A3E9F075A15575A1AA43B104E46F
:10167B00F5A17585C0EF25E0FFE4FE9000D9E0FDF4
:10168B00EEC39D5037EE25E02FF5849000D6E0FB9E
:10169B00A3E0FAA3E0F98E8275830012017DF58E2B
:1016AB00E58630E60575869A80037F0022E5866421
:1016BB0040D3940040037F00220E80BF75A1557567
:1016CB00A1AA53B1FBE4F5A17F012230DE5F9000AC
:1016DB00D0E5DBF0E0FF7E009001D2E02442F9E49C
:1016EB003401C8E9C8FC7D017B017A00790812013D
:1016FB003E9000D0E0FF9001D2E02FF0EFC394209A
:10170B004005E094464023E5D454F34408F5D490C7
:10171B0001D2E0D39446400AE4A3F09001D2F07FCB
:10172B00FF229001D374AAF0800353D4F37F0022DD
:10173B00EF702CEB7007EDF45292529322EBB40145
:10174B0006EDF452928014EBB40208ED4292EDF4E4
:10175B00529322EB64037036ED4292ED429322EFEB
:10176B006401702AEB7007EDF45296529722EBB49A
:10177B000106EDF452968013EBB40208ED4296EDA0
:10178B00F4529722EBB40306ED4296ED429722906A
:10179B0001E2E07032A3E070101200161211DA129F
:1017AB0018C39001E37401F0229001E3E0B401044B
:1017BB007402F0229001E3E0640270259001E204D0
:1017CB00F0E49001E4F0229001E2E0B40113900107
:1017DB00E4E0700304F0229001E4E0B40103120F83
:1017EB00E0227813E67811F6E6FF6040540F18F606
:1017FB006008E6901BDC93F6800F7811E6FFC4546B
:10180B000F901BDC93240418F6121B7D7810E690C6
:10181B001BEC93781356F6121B437810E624FE60EC
:10182B00051460058006021B5A12179A229000D6E7
:10183B00EBF0A3EAF0A3E9F07585C0EF25E0FFE438
:10184B00FE9000D9E0FDEEC39D5029EE25E02FF56B
:10185B008475868EE58630E1037F00229000D6E00A
:10186B00FBA3E0FAA3E0F98E82758300E58E1201EB
:10187B00EF0E80CD7F0122C2EAE4F5E2F5EA43EAFE
:10188B004043EB0C53EBFE75ED0075EC0075EF016F
:10189B0075EE0075E50075E40875DC0275D21275FE
:1018AB00D412F5E375D18075E22943D10175D8FFC8
:1018BB0075E107D2EAD2AF22E49000D1F012188280
:1018CB00E4F5DDF5D3F5D59001D2F09001D4F0908D
:1018DB0001CFF09001D3F09001E1F07F647E001214
:1018EB00153E9000D1E0FF04F0EFD3940550079024
:1018FB0001E1E060E62222C0E0C083C082C0D07567
:10190B00D000C000758CD8758AF0781406E6D39495
:10191B0001400876007813E64404F69000FAE06084
:10192B000914F0E070049000F2F0D000D0D0D08217
:10193B00D083D0E032C0E0C083C082C0D075D0006D
:10194B00C000781406E6D39401400876007813E6BD
:10195B004404F69000FAE0600914F0E07004900083
:10196B00F2F0D000D0D0D082D083D0E0329000D62D
:10197B00EBF0A3EAF0A3E9F0E4FF9000D5E0FEEF73
:10198B00C39E5015A3E0FBA3E0FAA3E0F98F827589
:10199B008300ED1201EF0F80E1229001D3E0B4AA96
:1019AB00239001D2E075F008A42402FF7B017A0199
:1019BB007942E49000D9F0120D18E49001D2F0A313
:1019CB00F053D4F322A2B09200A2B19201300006E0
:1019DB002001037F03222000063001037F02223007
:1019EB0000063001037F04227F01224101D5004113
:1019FB00014000410141004800E2FFFFFFFFFFFFF4
:101A0B00FFFF4800EA0123456789ABCDEF00C0E03B
:101A1B00C083C08230980EC2989000E1E599F09097
:101A2B0000FA7403F0309902C299D082D083D0E0CF
:101A3B0032FFE05FFFEF6004C2B18002C2B07F28CB
:101A4B00121B28D2B1D2B07F027E0002153EC2AF6C
:101A5B0078127601121AD212002A121B6CE4781239
:101A6B00F6D2AFE4F5FF1217ED80F87B017A01791E
:101A7B00E69000D57401F0E4FD1219789001E6743C
:101A8B0096F022C28CC28D53C9EF5389F043890162
:101A9B00758CD8758AF0D2A9D28C229000D474FFA1
:101AAB00F0A37419F0A374D0F07B007A00792102B3
:101ABB0015E29001E6E0600E14F0E070097405F099
:101ACB007813E64408F622121AE57F057E001215FC
:101ADB003E121B63121B36021B0875A15575A1AA7A
:101AEB00E5B954F84406F5B9E4F5A1227B017A0176
:101AFB0079E59000D57401F0E4FD02197875A155D4
:101B0B0075A1AA43B101C2EFE4F5A1F5FF22EF24C1
:101B1B00FAFFE4343F8F82F583E493FF22EF600AF0
:101B2B00E4FE0EEEB412FB1F80F322121A8EE49029
:101B3B0000F2F09000FAF0227812E6600616E670DA
:101B4B0002D2AF2230C002C2C030C102C2C13212B7
:101B5B001ABD1200120200197B037D037F010217CD
:101B6B003B120006121B83021B75E49001E2F0A3EB
:101B7B00F022C2AF78120622121A76021AF712015D
:101B8B001001FF000208861A235504030000000110
:101B9B000902270001010080F00904000003FF0186
:101BAB000200070582022000000705020220000048
:101BBB00070581030800013000C300FFEC9FECFF19
:101BCB00ECDFECDFECDFEC9FEC9FEC9FEC9FECFF92
:101BDB00EC00000100020001000300010002000103
:091BEB0000FEFDFBF7EFDFBF7FF8
:00000001FF
