:1000000002156402001AE47813F622021A21439DB5
:10001000103222020021021C2B2232021A9AC2CF75
:10002000323232021B81323232322202001E00266C
:06003000C00A00020026D8
:03003B0002002997
:030043000206644E
:03004B0002002789
:03005300021CD4B8
:03005B0002000E92
:0300630002002870
:10006B00020022E709F608DFFA8046E709F208DF0B
:10007B00FA803E88828C83E709F0A3DFFA8032E3B3
:10008B0009F608DFFA8078E309F208DFFA80708856
:10009B00828C83E309F0A3DFFA806489828A83E090
:1000AB00A3F608DFFA805889828A83E0A3F208DF7F
:1000BB00FA804C80D280FA80C680D4806980F2802E
:1000CB0033801080A680EA809A80A880DA80E28054
:1000DB00CA803389828A83ECFAE493A3C8C582C8A9
:1000EB00CCC583CCF0A3C8C582C8CCC583CCDFE913
:1000FB00DEE7800D89828A83E493A3F608DFF9ECAF
:10010B00FAA9F0EDFB2289828A83ECFAE0A3C8C539
:10011B0082C8CCC583CCF0A3C8C582C8CCC583CC60
:10012B00DFEADEE880DB89828A83E493A3F208DFCF
:10013B00F980CC88F0EF60010E4E60C388F0ED249F
:10014B0002B4040050B9F582EB2402B4040050AFA2
:10015B0023234582239000BE73BB010689828A83C9
:10016B00E0225002E722BBFE02E32289828A83E46B
:10017B009322BB010CE58229F582E5833AF583E0F6
:10018B00225006E92582F8E622BBFE06E92582F815
:10019B00E222E58229F582E5833AF583E49322BBDB
:1001AB00010FF8E58229F582E5833AF583E028F023
:1001BB00225009C58229F8E58226F622BBFE09C525
:1001CB008229F8E22582F222F8EA2583F583E99366
:1001DB002822BB010689828A83F0225002F722BBB8
:1001EB00FE01F322F8BB010DE58229F582E5833A86
:1001FB00F583E8F0225006E92582C8F622BBFE05FE
:10020B00E92582C8F222BC000BBE0029EF8DF084D9
:10021B00FFADF022E4CCF875F008EF2FFFEE33FEC4
:10022B00EC33FCEE9DEC984005FCEE9DFE0FD5F0FB
:10023B00E9E4CEFD22EDF8F5F0EE8420D21CFEAD04
:10024B00F075F008EF2FFFED33FD4007985006D502
:10025B00F0F222C398FD0FD5F0EA22C5F0F8A3E027
:10026B0028F0C5F0F8E582158270021583E038F0AE
:10027B0022A3F8E0C5F025F0F0E582158270021597
:10028B0083E0C838F0E822BB010A89828A83E0F553
:10029B00F0A3E022500687F009E71922BBFE07E323
:1002AB00F5F009E3192289828A83E493F5F074014E
:1002BB009322BB0110E58229F582E5833AF583E0B1
:1002CB00F5F0A3E0225009E92582F886F008E62232
:1002DB00BBFE0AE92582F8E2F5F008E222E5832A63
:1002EB00F583E993F5F0A3E99322BB010A89828A8E
:1002FB0083F0E5F0A3F0225006F709A7F01922BB13
:10030B00FE06F3E5F009F31922F8BB0111E582298A
:10031B00F582E5833AF583E8F0E5F0A3F022500986
:10032B00E92582C8F608A6F022BBFE09E92582C89A
:10033B00F2E5F008F222E88FF0A4CC8BF0A42CFCB1
:10034B00E98EF0A42CFC8AF0EDA42CFCEA8EF0A430
:10035B00CDA8F08BF0A42DCC3825F0FDE98FF0A4BF
:10036B002CCD35F0FCEB8EF0A4FEA9F0EB8FF0A4B6
:10037B00CFC5F02ECD39FEE43CFCEAA42DCE35F0F2
:10038B00FDE43CFC2275F008758200EF2FFFEE3385
:10039B00FECD33CDCC33CCC58233C5829BED9AECED
:1003AB0099E58298400CF582EE9BFEED9AFDEC9957
:1003BB00FC0FD5F0D6E4CEFBE4CDFAE4CCF9A88261
:1003CB0022B800C1B90059BA002DEC8BF084CFCE06
:1003DB00CDFCE5F0CBF97818EF2FFFEE33FEED33C4
:1003EB00FDEC33FCEB33FB10D703994004EB99FB8B
:1003FB000FD8E5E4F9FA227818EF2FFFEE33FEED74
:10040B0033FDEC33FCC933C910D7059BE99A400780
:10041B00EC9BFCE99AF90FD8E0E4C9FAE4CCFB2297
:10042B0075F010EF2FFFEE33FEED33FDCC33CCC860
:10043B0033C810D7079BEC9AE899400AED9BFDEC6B
:10044B009AFCE899F80FD5F0DAE4CDFBE4CCFAE4AA
:10045B00C8F922E8600FECC313FCED13FDEE13FE9D
:10046B00EF13FFD8F122E8600FEFC333FFEE33FE3B
:10047B00ED33FDEC33FCD8F122BB010789828A8373
:10048B000205B05005E9F80205A4BBFE05E9F80228
:10049B0005BC89828A830205C8BB010789828A83CE
:1004AB000204BE5005E9F80205D8BBFE05E9F802C7
:1004BB0005E422ECF0A3EDF0A3EEF0A3EFF022A8FD
:1004CB00828583F0D083D0821204E11204E11204FE
:1004DB00E11204E1E473E493A3C583C5F0C583C8BB
:1004EB00C582C8F0A3C583C5F0C583C8C582C82221
:1004FB00BB010789828A830204CA5005E9F8020509
:10050B00F0BBFE05E9F802060922BB010DE58229C5
:10051B00F582E5833AF5830206345007E92582F824
:10052B00020622BBFE07E92582F8020646E5822970
:10053B00F582E5833AF583020658BB0120E5822953
:10054B00F582E5833AF583D0F0D0E0F8D0E0F9D02E
:10055B00E0FAD0E0FBE8C0E0C0F002063D5018E93D
:10056B002582F8D083D082D0E0F9D0E0FAD0E0FB3E
:10057B00C082C08302062BBBFE18E92582F8D0830C
:10058B00D082D0E0F9D0E0FAD0E0FBC082C0830289
:10059B00064F228A838982E473E6FC08E6FD08E6AF
:1005AB00FE08E6FF22E0FCA3E0FDA3E0FEA3E0FFD4
:1005BB0022E2FC08E2FD08E2FE08E2FF22E493FCE3
:1005CB00740193FD740293FE740393FF22ECF608FF
:1005DB00EDF608EEF608EFF622ECF208EDF208EE77
:1005EB00F208EFF222D083D082E493F608740193E1
:1005FB00F608740293F608740393F6740473D083AD
:10060B00D082E493F208740193F208740293F20817
:10061B00740393F2740473E6FB08E6FA08E6F92216
:10062B00EBF608EAF608E9F622E0FBA3E0FAA3E012
:10063B00F922EBF0A3EAF0A3E9F022E2FB08E2FADD
:10064B0008E2F922EBF208EAF208E9F222E493FB62
:10065B00740193FA740293F922C0E0C0F0C083C016
:10066B0082C0D075D0089000D8E4F020D9030209DD
:10067B00D0E5D9543F70030209C524E07003020989
:10068B005414601924F16029240E60030209CE75FD
:10069B00D500E5D454FC4402F5D40209CE75D30041
:1006AB00E5D254FC4402F5D29001177401F0020913
:1006BB00CE9000D8E5DBF0E06408600302092B90D4
:1006CB000006E0900118F0900007E0700990011807
:1006DB00E0D3947F4006900118747FF09000D8E42B
:1006EB00F0900001E0900119F0900000E054606080
:1006FB001A900119E01424FD400302093124FB2454
:10070B00FD4003020931800002092B900119E0B46E
:10071B000B004003020929900729F82828730209C6
:10072B000C0208550209290208960209290208221F
:10073B0002074A02092902082D02084A02093190D0
:10074B000003E024FE601E24E060302421706B90D7
:10075B00012674FFF0A3741DF0A374C2F09000D8AF
:10076B007412F0805B90012674FFF0A3741DF0A34C
:10077B0074D4F09000D8743BF08045900004E0FFF7
:10078B00701690012674FFF0A3741EF0A3740FF083
:10079B009000D8743EF08028EFB4011C90012674B1
:1007AB00FFF0A3741EF0A3744DF09000D87434F0D6
:1007BB009001297401F0800880009000D874FFF03C
:1007CB009000D8E0FF900118E0D39F4002EFF0902B
:1007DB000118E0FFC3940840047F0880009000D804
:1007EB00EFF07E0078007C007D01900126E0FBA3FA
:1007FB00E0FAA3E0F912013E900118E0FF9000D857
:10080B00E0FEC3EF9E900118F0EEFF900127E48FFE
:10081B00F0120266020931900002E0900118F0021A
:10082B000931900115E0900000F0900118E0C3949D
:10083B000150030209319000D87401F00209319084
:10084B000002E0900115F0020931900000E0541F06
:10085B00FF6402702D900004E014601B2480600D77
:10086B00147019E5D454BC4402F5D48015E5D25468
:10087B00BC4402F5D2800B53D27380069000D8741F
:10088B00FFF0EF700302093102092B900000E054D6
:10089B001FFD701B900003E0FE900002E0FBEB6479
:1008AB00014E7009901DDB9320E57B80738071ED09
:1008BB006402704B900003E0FE900002E0FDED4EF1
:1008CB00703B900005E0FE900004E0FDEDFFEE7044
:1008DB002AEF24FE60112481601714701EE5D45496
:1008EB00BF4403F5D4803FE5D4547F440CF5D4804A
:1008FB0035E5D254BF4403F5D2802B802380218071
:10090B001F900000E4F0A3F0900118E0FFC39402E5
:10091B009000D840057402F0800CEFF08008800046
:10092B009000D874FFF09000D8E0FFB4FF0C90015A
:10093B001974FFF075DCCF0209CEEF6004F5DD8092
:10094B000375DD0075DCC0807A900119E024FB6033
:10095B005314705E900118E0FFC3940840047F08A5
:10096B0080009000D8EFF07E0078007C007D019035
:10097B000126E0FBA3E0FAA3E0F912013E90011877
:10098B00E0FF9000D8E0FEC3EF9E900118F0EEFF61
:10099B00900127E48FF01202669000D8E0F5DD633A
:1009AB00DC40801FE5E35480FF900118E04FF5E336
:1009BB00800375DD0075DC0280099000D8E5DBF063
:1009CB0063DC80C2D930D81275DC0275D21075D4B5
:1009DB001275E300C2DAC2D9C2D830DA09C2DAE53D
:1009EB00DA30E205800375D8FFD0D0D082D083D027
:1009FB00F0D0E0329000F7EBF0A3EAF0A3E9F0902F
:100A0B00002B12051512059E9000FAEFF09000F7DF
:100A1B00E0FBA3E0FAA3E0F9120164FF6003020A12
:100A2B00E09000FAE0FE64026008EE6403600302EB
:100A3B000D03900029E41201EF90002AE41201EF5C
:100A4B0090002712017DFD7C00E92401F9E43AFABC
:100A5B00E92DF9EC3AFA12016425E01201DD900060
:100A6B00FAE0FEB40202802DEE9000F7B40335E0FD
:100A7B00FBA3E0FAA3E0F990002712017DFD7C00B7
:100A8B00E92401F9E43AFAE92DF9EC3AFA12016496
:100A9B0044011201DD9000F7E0FBA3E0FAA3E0F9BB
:100AAB007405800AE0FBA3E0FAA3E0F974061201D7
:100ABB00DD9000F7E0FBA3E0FAA3E0F990002874C7
:100ACB00011201AA90002812017DD3940750030252
:100ADB000D03020CBDEF640570489000F7E0FBA31B
:100AEB00E0FAA3E0F990002974011201AA90002901
:100AFB0012017DD3947F400F9000F7E0FBA3E0FA47
:100B0B00A3E0F9740680189000FAE0640460030215
:100B1B000D039000F7E0FBA3E0FAA3E0F9740402E5
:100B2B0001DD9000F7E0FBA3E0FAA3E0F91201640A
:100B3B00FF64046003020CD790002A041201AA90F0
:100B4B00002A12017DFED394FE5003020BF9900094
:100B5B00F7E0FBA3E0FAA3E0F974061201DD9000C5
:100B6B00F7E0FBA3E0FAA3E0F99000217401120176
:100B7B00EF90002712017D75F008A4FD900028125C
:100B8B00017D2D9000221201EF90002712017DFDB7
:100B9B007C00E92401F9E43AFAE92DF9EC3AFAC0C0
:100BAB0003C002C001120164FD9000F7E0FBA3E05B
:100BBB00FAA3E0F990002812017DFCC374089CFC99
:100BCB00EDA804088002C333D8FCD001D002D003B7
:100BDB001201DD9000F7E0FBA3E0FAA3E0F990002F
:100BEB002912017DFD900023E48DF0020314900087
:100BFB00FAE0FD64026008ED64036003020D0390EC
:100C0B0000F7E0FBA3E0FAA3E0F9EEFD900025E48A
:100C1B008DF0120314900029E41201EF90002AE4E6
:100C2B001201EF90002712017DFD7C00E92401F9F0
:100C3B00E43AFAE92DF9EC3AFA12016425E01201D3
:100C4B00DD9000FAE0FEB40202802DEE9000F7B4C6
:100C5B000335E0FBA3E0FAA3E0F990002712017D36
:100C6B00FD7C00E92401F9E43AFAE92DF9EC3AFAB2
:100C7B0012016444011201DD9000F7E0FBA3E0FADE
:100C8B00A3E0F97405800AE0FBA3E0FAA3E0F97492
:100C9B00061201DD9000F7E0FBA3E0FAA3E0F99068
:100CAB00002874011201AA90002812017DD3940729
:100CBB0040469000F7E0FBA3E0FAA3E0F990002890
:100CCB00E41201EF90002774010201AAEFB4062889
:100CDB009000F7E0FBA3E0FAA3E0F9E41201DD904A
:100CEB0000F7E0FBA3E0FAA3E0F9900027E4120180
:100CFB00EF900028E41201EF229000DB7401F0A3C7
:100D0B00F0E49000D9F0A3F0C2A9E4F5FF7842E635
:100D1B00700AFB7A0079211209FF80EE9000DCE06B
:100D2B009000DBF09000DAE09000D9F07843E654C5
:100D3B000764026003020E059000DD7402F0E4907C
:100D4B0000E9F09000DDE02407FFE433FE7843E692
:100D5B00FDC3EF9D7480F86E98502F7B007A00795D
:100D6B0022E0FD24079000FBF01210AA9000E9E0AE
:100D7B0024DFF582E43400F583EFF09000DDE0240E
:100D8B0008F09000E9E004F080B99000E9E0FD90F4
:100D9B0000FB7401F0A37400F0A374EAF0A37401D8
:100DAB00F0A37400F0A374F6F07B017A0079DF12E4
:100DBB000F0BE49000DDF09000F6E0FF9000DDE01B
:100DCB00FEC39F4003020EDD74EA2EF582E434006D
:100DDB00F583E0FF9000DEF09000FA7401F0A3744D
:100DEB0000F0A374D9F0A3EFF07B017A0079DB124A
:100DFB0017AE9000DDE004F080BD7843E65407D3D6
:100E0B009400401D7B007A007922E6131313541FC4
:100E1B0004FDE65407FFC374089F9000FBF0121407
:100E2B00B19000DD7401F0E49000E9F09000DDE09A
:100E3B00C3784396502F7B007A007922E0FD24077C
:100E4B009000FBF01210AA9000E9E024DFF582E499
:100E5B003400F583EFF09000DDE02408F09000E91A
:100E6B00E004F080C79000E9E0FD9000FB7401F016
:100E7B00A37400F0A374EAF0A37401F0A37400F060
:100E8B00A374F6F07B017A0079DF120F0BE490006C
:100E9B00DDF09000F6E0FF9000DDE0FEC39F5032E6
:100EAB0074EA2EF582E43400F583E0FF9000DEF067
:100EBB009000FA7401F0A37400F0A374D9F0A3EFBF
:100ECB00F07B017A0079DB1217AE9000DDE004F0C5
:100EDB0080C09000FA7401F0A37400F0A374D9F0F1
:100EEB007B017A0079DC121BDF7BFF7A0079319072
:100EFB0001027401F0FF121407E47842F6020D159B
:100F0B009000F7EBF0A3EAF0A3E9F0A3EDF0E0FC1F
:100F1B0024FFFFE434FFFEEF7802CEC313CE13D8C9
:100F2B00F92C04FF900103F09000FEE0FBA3E0FA24
:100F3B00A3E0F9EF1201DDED75F008A4900104F0C8
:100F4B00E4900101F0900103E0FF900101E0FEC38A
:100F5B009F501C9000FBE0FBA3E0FAA3E0F98E820C
:100F6B00758300E41201EF900101E004F080D6E4F8
:100F7B00900101F0900104E0FF900101E0C39F405C
:100F8B00030210979000F7E0FBA3E0FAA3E0F9123D
:100F9B0001645480FFE4FE900103E0FDEEC39D402D
:100FAB0003021077EF60089001027401F08005E4F2
:100FBB00900102F0E4FF9000FBE0FBA3E0FAA3E05A
:100FCB00F98E8275830012017DD3947F400B0F8EB7
:100FDB008275830074301201AA9000FBE0FBA3E042
:100FEB00FAA3E0F98E8275830012017D540FD3941E
:100FFB0007400A8E8275830074031201AA9000FBCE
:10100B00E0FBA3E0FAA3E0F98E8275830012017D69
:10101B0025E0FD900102E02D8E827583001201EF19
:10102B008E8275830012017D540FD3940940159065
:10103B0000FBE0FBA3E0FAA3E0F98E82758300745A
:10104B00061201AA9000FBE0FBA3E0FAA3E0F98EE5
:10105B008275830012017DD3949F400C8E82758321
:10106B000074601201AA7F010E020FA29000F7E03C
:10107B00FBA3E0FAA3E0F9A3E0FD9001097401F0F2
:10108B00121188900101E004F0020F7F9000FBE049
:10109B00FBA3E0FAA3E0F9900103E0FD0215FE903B
:1010AB0000F7EBF0A3EAF0A3E9F0AB059000FC121C
:1010BB0004CA000000009000FBE0C39B04900102F7
:1010CB00F0EB131313541FA3F0EB5407FF700D90A9
:1010DB00010104F0900103E014F08012EF14FF748F
:1010EB0080A807088002C313D8FC900101F0E4909C
:1010FB000100F0900102E0FF900100E0C39F506EF1
:10110B009000FCE0FCA3E0FDA3E0FEA3E0FF780170
:10111B001204719000FC1204BE900101E07009747E
:10112B0080F0900103E004F09000F7E0FBA3E0FAFD
:10113B00A3E0F9900103E0F58275830012017DFFB6
:10114B00900101E0FB5F60179000FCE0FCA3E0FD69
:10115B00A3E0FEA3E04401FFEC9000FC1204BEEB05
:10116B00C313900101F0900100E004F08085900022
:10117B00FCE0FCA3E0FDA3E0FEA3E0FF2290010551
:10118B00EBF0A3EAF0A3E9F0120164FF900109E090
:10119B00FEC374089EFEEFA806088002C313D8FC9A
:1011AB0090010AF0900109E0FEEFA806088002C347
:1011BB0033D8FC1201DD7F01EFC39D507290010506
:1011CB00E0FBA3E0FAA3E0F98F8275830012017DA7
:1011DB00FE900109E0FCC374089CFCEEA804088097
:1011EB0002C313D8FC90010BF0EF24FFF582E4341B
:1011FB00FFF583E92582F9EA3583FA120164FE9043
:10120B00010BE04E1201DD900105E0FBA3E0FAA318
:10121B00E02FF9E43AFA120164FE900109E0FCEECA
:10122B00A804088002C333D8FC1201DD0F8089EFBC
:10123B0024FFFFE434FFFE900105E0FBA3E0FAA3DB
:10124B00E02FF9EA3EFA120164FF90010AE04F0227
:10125B0001DD7B017A0079D99000E17402F0E4FFA3
:10126B0012198FE49000DCF09000DBF09000DBE0D3
:10127B00FFC39406501CA3E0FEC006121C9E9000F8
:10128B00DBE02FFFC3D0E09FA3F09000DBE004F086
:10129B0080DA9000D9E0FFB4670C9000DCE0FE90A0
:1012AB0000DAE06E607BEF646670599000DCE0FF63
:1012BB009000DAE06F704D9000D97467F07B017A83
:1012CB000079D99000E17402F0E4FF121822E49047
:1012DB0000DBF09000DBE0FFC394985044EF75F017
:1012EB0002A424C0FFE5F03426FE7B017A0079D9F5
:1012FB009000E27402F012132DE4F5FF9000DBE096
:10130B0004F080CF90002EE4740193FA740293F9E9
:10131B0012059E121D02C28E7F147E0012171280C0
:10132B00F7229000DDEEF0A3EFF0A3EBF0A3EAF0D1
:10133B00A3E9F0A3E030E00204F09000DEE030E03F
:10134B000A04F070069000DDE004F075A15575A15C
:10135B00AA43B108E4F5A19000E3F09000E2E0C3EA
:10136B0013FFA3E0FEC39F5076EE75F002A4FF902F
:10137B0000DEE02FFF9000DDE035F0F5858F8490E7
:10138B0000DFE0FBA3E0FAA3E0F99000E3E0FD75DA
:10139B00F002A42401F582E435F0F58312017DFE01
:1013AB009000DFA3A375F002EDA4F58285F0831204
:1013BB00017D7C002400FFEC3EF58F8F8EE586309F
:1013CB00E60575869A80037F0022E5866440D394F8
:1013DB000040037F00229000E3E004F002136675E7
:1013EB00A15575A1AA53B1F7E4F5A17F01227A00AB
:1013FB0079FD74017B01900102F0E4FF9000FEEF98
:10140B00F0A3EBF0A3EAF0A3E9F0E4900103F09072
:10141B000102E0FFA3E0FEC39F40030214B0E4F51A
:10142B00FF9000FEE07055A3E0FBA3E0FAA3E0F908
:10143B008E8275830012017DC4540FFFC3940A5032
:10144B000674302FFF800474572FFF121A5F900021
:10145B00FFE0FBA3E0FAA3E0F9900103E0F582754E
:10146B00830012017D540FFFC3940A500674302F72
:10147B00FF800474572FFF121A5F80209000FFE04B
:10148B00FBA3E0FAA3E0F9120164FF6018121A5FE4
:10149B00900100E475F00112026680E0900103E018
:1014AB0004F002141A229000F7EBF0A3EAF0A3E980
:1014BB00F0ED24FFFFE434FFFEE92FF9EA3EFA12C8
:1014CB000164FF9000FBE0FEEFA806088002C31347
:1014DB00D8FC1201DDED24FEFFD3EF6480947F4036
:1014EB00779000F7E0FBA3E0FAA3E0F9EFFD33956B
:1014FB00E08D82F58312017DFE9000FBE0FDC3744D
:10150B00089DFDEEA805088002C333D8FCFEEFFD55
:10151B003395E0FCED2401FDE43CFCE92DF9EA3CBC
:10152B00FA1201644E1201DD9000F7E0FBA3E0FA22
:10153B00A3E0F9EFFD3395E0FCE92DF9EA3CFA1253
:10154B000164FD9000FBE0FCEDA804088002C313CE
:10155B00D8FC1201DD1F808122787FE4F6D8FD9044
:10156B0000007FFF7E03E4F0A3DFFCDEFA758189C8
:10157B000215B9021BC2E493A3F8E493A34003F64C
:10158B008001F208DFF48029E493A3F85407240CBC
:10159B00C8C333C4540F4420C8834004F45680019D
:1015AB0046F6DFE4800B0102040810204080901BFC
:1015BB0032E47E019360BCA3FF543F30E509541F16
:1015CB00FEE493A360010ECF54C025E060A840B8A1
:1015DB00E493A3FAE493A3F8E493A3C8C582C8CA1F
:1015EB00C583CAF0A3C8C582C8CAC583CADFE9DEF2
:1015FB00E780BE900105EBF0A3EAF0A3E9F0A3EDC1
:10160B00F0E4A3F0900108E0FFC313FEA3E0C39E38
:10161B005079900105E0FBA3E0FAA3E0F9900109F2
:10162B00E0FEF58275830012017D90010AF0EF2434
:10163B00FFFDE434FFFCEEFFC3ED9FFFEC94008F46
:10164B0082F58312017DFF900109E0F5827583001D
:10165B00EF1201EF90010AE0FF900108E024FFFD7B
:10166B00E434FFFCA3E0FBC3ED9BFDEC9400FC908A
:10167B000105E0FBA3E0FAA3E0F98D828C83EF1266
:10168B0001EF900109E004F002160F22D2957F0AB8
:10169B007E00121712C2957F0A7E00121712D29586
:1016AB007F0A7E00121712C2957F0A7E0012171254
:1016BB00D2957F0A7E00121712C2957F0A7E001206
:1016CB001712D2957F0A7E00121712C2957F0A7EDF
:1016DB0000121712D2957F0A7E00121712C2957F45
:1016EB000A7E00121712D2957F0A7E00121712C2C1
:1016FB00957F0A7E00121712D2957F0A7E00121771
:10170B0012C2957F0A7E00AD07AC06ED4C600FE46C
:10171B00F5FF7F64121CADED1D70F01C80ED229067
:10172B0000D9EBF0A3EAF0A3E9F09000D9E0FBA31A
:10173B00E0FAA3E0F9E41201DD9000D9E0FBA3E0AD
:10174B00FAA3E0F9900021E41201EF900027E412D4
:10175B0001EF900028E41201EF900029E41201EF51
:10176B0090002AE41201EF900022E41201EF9000A6
:10177B0023E4F5F0120314900025E4F5F0120314A2
:10178B009000DCE0FBA3E0FAA3E0F9C003C002C0C9
:10179B00019000D9E0FBA3E0FAA3E0F990002B1233
:1017AB000545229000F7EBF0A3EAF0A3E9F09000D7
:1017BB00F7E0FBA3E0FAA3E0F912016464017053B4
:1017CB009000FDE0FF700122EF54F070249000FDBB
:1017DB00E0540FF0E0C3940A5006E02430F0800789
:1017EB009000FDE02457F09000FDE0FF121A5F809F
:1017FB00031213F99000F7E0FBA3E0FAA3E0F9E47E
:10180B001201DD9000FAE0FBA3E0FAA3E0F974010A
:10181B000201DD1213F9229000DEEBF0A3EAF0A334
:10182B00E9F075A15575A1AA43B104E4F5A175853D
:10183B00C0EF25E0FFE4FE9000E1E0FDEEC39D501C
:10184B0037EE25E02FF5849000DEE0FBA3E0FAA352
:10185B00E0F98E8275830012017DF58EE58630E608
:10186B000575869A80037F0022E5866440D3940039
:10187B0040037F00220E80BF75A15575A1AA53B1FD
:10188B00FBE4F5A17F0122EF702CEB7007EDF45216
:10189B0092529322EBB40106EDF452928014EBB406
:1018AB000208ED4292EDF4529322EB64037036ED95
:1018BB004292ED429322EF6401702AEB7007EDF434
:1018CB005296529722EBB40106EDF452968013EB2D
:1018DB00B40208ED4296EDF4529722EBB40306EDF9
:1018EB004296ED429722900143E07032A3E07010D4
:1018FB0012001612125D121AD29001447401F022DA
:10190B00900144E0B401047402F022900144E064BD
:10191B0002702590014304F0E4900145F022900100
:10192B0043E0B40113900145E0700304F0229001F1
:10193B0045E0B40103120D04227813E67811F6E6A4
:10194B00FF6040540F18F66008E6901E8193F680F6
:10195B000F7811E6FFC4540F901E8193240418F6E0
:10196B00121D027810E6901E9193781356F6121CF6
:10197B00C87810E624FE60051460058006021CDFA3
:10198B001218F1229000DEEBF0A3EAF0A3E9F07558
:10199B0085C0EF25E0FFE4FE9000E1E0FDEEC39D86
:1019AB005029EE25E02FF58475868EE58630E10310
:1019BB007F00229000DEE0FBA3E0FAA3E0F98E8229
:1019CB00758300E58E1201EF0E80CD7F0122C2EAF6
:1019DB00E4F5E275E50075E450E5EB54FE4404F5DF
:1019EB00EB75D41275ED0075EC0053EAF375DC0260
:1019FB0075EF0075EE0AE5EA54EF4440F5EA75D24F
:101A0B0012E4F5E375D18075E22943D10175D8FF56
:101A1B0075E107D2EA22C0E0C083C082C0D075D086
:101A2B0000C000758CD8758AF0781406E6D3940143
:101A3B00400876007813E64404F6900142E0600912
:101A4B0014F0E0700490013AF0D000D0D0D082D0E6
:101A5B0083D0E032E4FEF5FFFDED901D9293B507C8
:101A6B00047E0180050DEDB430EFEE6021E49001B2
:101A7B0017F0ED901D6293121BA4900117E060FA12
:101A8B00E4900117F0121BA4900117E060FA22C03A
:101A9B00E0C083C082C0D075D000C000781406E6C9
:101AAB00D39401400876007813E64404F690014283
:101ABB00E0600914F0E0700490013AF0D000D0D04F
:101ACB00D082D083D0E032E49000D9F01219D9D271
:101ADB00AFE4F5D3F5D5900117F0900129F07F64B1
:101AEB007E001217129000D9E0FF04F0EFD394059B
:101AFB005007900129E060E622229000DEEBF0A374
:101B0B00EAF0A3E9F0E4FF9000DDE0FEEFC39E50A6
:101B1B0015A3E0FBA3E0FAA3E0F98F82758300ED38
:101B2B001201EF0F80E12244012200000000480166
:101B3B000D000000000000000048012AFFFFFFFF1E
:101B4B00FFFFFFFF4801320123456789ABCDEF0053
:101B5B00A2B09200A2B192013000062001037F03D4
:101B6B00222000063001037F0222300006300103E1
:101B7B007F04227F0122C0E0C083C08230980EC256
:101B8B009890010CE599F09001427403F0309902A2
:101B9B00C299D082D083D0E03290010FF0780A7CCA
:101BAB00007D017B017A01790D7E007F0812013ED9
:101BBB0075D30853D2FC22C2AF78127601121C5790
:101BCB0012002A121CF1E47812F6D2AFE4F5FF12E0
:101BDB00194480F8120164B401159000FAE0FBA3DC
:101BEB00E0FAA3E0F912016470057F30121A5F224C
:101BFB007B017A0179479000DD7401F0E4FD121B43
:101C0B00059001477496F022C28CC28D53C9EF53D5
:101C1B0089F0438901758CD8758AF0D2A9D28C22B0
:101C2B009000DC74FFF0A3741BF0A3745BF07B00DB
:101C3B007A00792102172A900147E0600E14F0E038
:101C4B0070097405F07813E64408F622121C6A7FBB
:101C5B00057E00121712121CE8121CBB021C8D759C
:101C6B00A15575A1AAE5B954F84406F5B9E4F5A157
:101C7B00227B017A0179469000DD7401F0E4FD02CC
:101C8B001B0575A15575A1AA43B101C2EFE4F5A1DE
:101C9B00F5FF22EF24FAFFE4343F8F82F583E493C0
:101CAB00FF22EF600AE4FE0EEEB412FB1F80F3225C
:101CBB00121C13E490013AF0900142F0227812E6E4
:101CCB00600616E67002D2AF2230C002C2C030C12D
:101CDB0002C2C132121C421200120200197B037D98
:101CEB00037F01021892120006121D08021CFAE46F
:101CFB00900143F0A3F022C2AF78120622121BFB15
:101D0B00021C7C0A6865782D646973702020202082
:101D1B00000A636861722D646973702020202000B3
:101D2B003030313132323333343435353636373770
:101D3B003838393920616162626363646465656652
:101D4B006667676869676B6C6D6E6F7071727374C1
:101D5B0075767778797A00282C34362D3738271E0C
:101D6B001F20212223242526332E2F303504050650
:101D7B000708090A0B0C0D0E0F1011121314151670
:101D8B001718191A1B1C1D0A20272C2D2E2F30312A
:101D9B0032333435363738393B3D5B5D60616263D6
:101DAB006465666768696A6B6C6D6E6F7071727370
:101DBB007475767778797A12011001000000083D6E
:101DCB0041072100000000000109023B0002010055
:101DDB00A0320904000001030101000921110100D7
:101DEB0001223E000705810308000A0904010001D6
:101DFB0003010200092110010001223400070582B2
:101E0B000304000A05010906A101050719E029E7EA
:101E1B001500250175019508810295017508810151
:101E2B0095037501050819012903910295057501A3
:101E3B0091019506750826FF000507190029918168
:101E4B0000C005010902A1010901A1000509190141
:101E5B00290315002501750195038102750595016F
:101E6B00810105010930093109381581257F750874
:101E7B0095038106C0C000000100020001000300B1
:0E1E8B00010002000100FEFDFBF7EFDFBF7F4C
:00000001FF
